:020000040800F2
:10000000680C0020050100084D0D0008FD0B0008DC
:10001000490D000877070008671B00080000000072
:10002000000000000000000000000000CD150008E6
:100030002D09000800000000B71400081D01000889
:100040001F0100081F0100081F0100081F01000810
:100050001F0100081F0100081F0100081F01000800
:100060001F0100081F0100081F0100081F010008F0
:100070001F0100081F0100081F0100081F010008E0
:100080001F0100081F0100081F0100081F010008D0
:100090001F0100081F0100081F0100081F010008C0
:1000A0001F0100081F0100081F0100081F010008B0
:1000B0001F0100081F0100088D1700081F0100081C
:1000C0001F0100081F0100081F0100081F01000890
:1000D0001F0100081F010008491900081F0100083E
:1000E0001F0100081F0100081F010008DFF810D0E1
:1000F00000F004FB00480047F11D0008AFF300804A
:10010000680C00200648804706480047FEE7FEE7E7
:10011000FEE7FEE7FEE7FEE7FEE7FEE7FEE7FEE7B7
:100120002D170008ED00000830B505462A460B469D
:1001300012F8010B13F8014B08B1A042F8D01CB122
:10014000002802D06D1CF1E7284630BD30B480EAAB
:10015000010202F0004530F0004221F0004013D0CF
:1001600090B1C30DD40DC2F31601C0F31600E41A0A
:1001700041F4000140F400027D34914201D3641C3B
:1001800000E04900002C02DA30BC002070474FF438
:1001900000000023914201D3891A034340084FEA2B
:1001A0004101F7D151B1914202D14FF0004105E038
:1001B00002D24FF0010101E06FF0010103EBC450E6
:1001C000284430BC00F005BA2DE9FE4F804681EA94
:1001D0000300C00F0C46009021F0004123F00045C1
:1001E000B8EB0200A94105D24046214690461C4684
:1001F0000B46024623F00040104347D0270DC7F3BB
:100200000A00C3F30A510290401A019040286BDAA9
:10021000C3F3130040F4801B0098924620B10023E2
:10022000D2EB030A63EB0B0B01985946C0F1400275
:10023000504600F09DF906460D4650465946019A33
:1002400000F0B5F910EB08006141002487EA115273
:1002500084EAE7731A4340D0009A62B3019A012AF4
:100260004FEA075215DC001B61EB02014FF0004220
:1002700002EA0752CDE90042001C41F580113246E6
:100280002B4600F0ECF903B0BDE8F08F4046214664
:10029000F9E7001B61EB0201001C41F58013001817
:1002A0005B412018A2F5001747EB030140EAD57027
:1002B000B6196D4111E06D084FEA360645EAC07582
:1002C0004FEA0752001B61EB0201001C41F580114F
:1002D00049084FEA30000019514132462B4603B01D
:1002E000BDE8F04F00F0ACB90098012240000023B7
:1002F000D0EB020263EBE073009821464FEAE07412
:10030000B8EB000061EB0401E9E783F000435BE731
:1003100081F0004158E72DE9FE4F81EA030404F023
:10032000004421F0004100944FF0000B23F0004303
:1003300050EA01045ED052EA03045BD0C3F30A54CE
:10034000C1F30A552C44A4F2F3340194A0FB0254E7
:10035000C1F3130141F48011C3F3130343F4801379
:1003600001FB024400FB034E840A970A44EA8154CD
:1003700047EA8357A4FB076802958D0A05FB0785AA
:100380004FEA932C04FB0C542705029D4FEA0658B4
:1003900047EA1637B5EB08056EEB070C870E920E91
:1003A00047EA811742EA8312A7FB0201B6EB0B0171
:1003B00064EB00042B0D43EA0C335E1844EB1C5035
:1003C000DA465146E7FB0201C5F313044FEA0B334B
:1003D00043EA14534FEA0432019C43EA0603A4F1B2
:1003E0000C040294009CCDE900B400F038F903B08D
:1003F000BDE8F08F00200146F9E796230022114660
:1004000000F0F0B80EB5C10F80EAE0700844CA07EA
:10041000002140F233438DE80E000A460B4600F0FF
:100420001EF903B000BD0EB540F233410291002128
:10043000CDE900110A460B4600F011F903B000BDEA
:1004400000F0004220F00040C10DC0F3160040F45F
:1004500000007F2901DA00207047962903DCC1F1F2
:100460009601C84001E096398840002AF4D0404205
:10047000704770B5C1F30A5201F000450024C1F382
:10048000130140F2FF3341F480119A4201DA002057
:1004900070BD40F233439A42A2F2334203DC52422F
:1004A00000F075F800E090402C43F1D0404270BD60
:1004B000C1F30A5210B5C1F3130140F2FF3341F406
:1004C00080119A4201DA002010BD40F233439A4273
:1004D000A2F2334203DC524200F059F810BD9040C2
:1004E00010BD00F0004230F000400AD0C10D01F50F
:1004F0006071C0F3160042EA0151C208400711437F
:10050000704700200146704730B5041E71F10004A9
:1005100004DB4FF00044404264EB0101141E73F110
:10052000000405DB1C464FF00043524263EB04031A
:100530008B4208BF824230BD01F0004330B421F04D
:10054000004150EA010206D00A0DA2F56072C1F323
:100550001301002A02DC30BC00207047440F44EA3B
:10056000C104C100E01830BC00EBC25000F031B84B
:10057000202A04DB203A00FA02F100207047914063
:10058000C2F1200320FA03F3194390407047202A58
:1005900004DB203A21FA02F00021704721FA02F32D
:1005A000D040C2F120029140084319467047202AEA
:1005B00006DBCB17203A41FA02F043EAE07306E08B
:1005C00041FA02F3D040C2F120029140084319469B
:1005D00070470029A8BF7047401C490008BF20F0A1
:1005E0000100704710B4B0FA80FC00FA0CF050EA39
:1005F000010404BF10BC704749B1CCF1200421FABA
:1006000004F411FA0CF118BF012121430843A3EBB4
:100610000C01CB1D4FEA00614FEA102042BF0020C1
:1006200010BC704700EBC35010440029A4BF10BC9D
:100630007047401C490008BF20F0010010BC704703
:1006400010B5141E73F1000408DA401C41F10001DA
:1006500092185B411A4301D120F0010010BD2DE931
:10066000F04D92469B4611B1B1FA81F202E0B0FA28
:1006700080F220329046FFF77BFF04460F4640EAA7
:100680000A0041EA0B0153465A46084313D011466B
:1006900053EA010019D0C8F140025046FFF777FF36
:1006A00005460E46504659464246FFF761FF08434D
:1006B00005D0012004E020463946BDE8F08D002039
:1006C000054346EAE0762C4337430A986305E40A7B
:1006D000A0EB08000022FD0A44EA47540A3002D584
:1006E00000200146E9E7010510196941DDE90845E7
:1006F00000196941BDE8F04DA2E70000064C074D26
:1007000006E0E06840F0010394E8070098471034E1
:10071000AC42F6D3FFF7EEFC283700084837000854
:1007200070B58C1810F8015B15F0070301D110F8B3
:10073000013B2A1106D110F8012B03E010F8016BE0
:1007400001F8016B5B1EF9D12B0705D40023521E63
:100750000DD401F8013BFAE710F8013BCB1A921CCB
:1007600003E013F8015B01F8015B521EF9D5A142C9
:10077000D8D3002070BD00BFFEE700002DE9F84F80
:100780006348007805287DD2DFE800F00312508F1F
:10079000A60001F03FFA00F080FE4FF400715D48C2
:1007A00000F096F94FF480515A4800F091F9ABE00F
:1007B00000F09CF958480068FFF71FFE5749097878
:1007C00001EB4101564A02EB810188601020009044
:1007D0005248007800EB4000114611F82020022317
:1007E00010212C2000F0E2FD4C49097801EB410179
:1007F0004B4A02EB81018868FFF773FE0646494ABF
:10080000494BFFF788FD0446032022460B462C2166
:100810000090202000F044FB3F48006841F28831FE
:10082000884202D904203A4908706DE03B490978B2
:1008300001EB41013A4A02EB81018868FFF751FE62
:100840008046384A384BFFF766FD04460D4633496B
:10085000097801EB4101324A12F82100FFF7E3FD6C
:10086000064622462B46FFF756FD8246FFF764FEFA
:100870002A49097801EB4101294A02EB81014860CC
:10088000264900E03FE0097801EB410102EB8101DC
:100890004868FFF726FE0446032022460B462C211B
:1008A0000090302000F0FCFA2EE04FF4007119485F
:1008B00000F00CF94FF48051164800F007F91023AE
:1008C0000A220021542000F011FD10230B220021E8
:1008D000642000F00BFD17E04FF400710D4800F0AC
:1008E000F5F84FF480510B4800F0F0F81023172270
:1008F0000021542000F0FAFC10231822002164206B
:1009000000F0F4FC00E000BF00BFBDE8F88F00007D
:100910002D000020000C01409C0300202E00002030
:10092000A0030020FCA9F1D24D62603F7047000097
:1009300008B50121102000F0CFFD4FF40050ADF8B4
:10094000000003208DF8020010208DF80300694696
:10095000124800F027F84FF40051104800F0B8F8A2
:100960000121082000F0B8FD4FF49050ADF80000D0
:1009700003208DF8020010208DF803006946084816
:1009800000F010F84FF40071054800F0A1F84FF4A2
:100990008051034800F09CF808BD000000100140A1
:1009A000000C01402DE9F041024600250026002000
:1009B00000230024002791F803C00CF00F0591F8E4
:1009C00003C00CF0100CBCF1000F03D091F802C072
:1009D0004CEA050591F800C0BCF1000F31D0146855
:1009E00000202BE04FF0010C0CFA00F3B1F800C02E
:1009F0000CEA03069E4220D183004FF00F0C0CFA44
:100A000003F7BC4305FA03FC4CEA040491F803C065
:100A1000BCF1280F06D14FF0010C0CFA00FCC2F813
:100A200014C00AE091F803C0BCF1480F05D14FF0A3
:100A3000010C0CFA00FCC2F810C0401C0828D1D3ED
:100A40001460B1F800C0BCF1FF0F34DD5468002021
:100A50002EE000F1080C4FF0010808FA0CF3B1F891
:100A600000C00CEA03069E4221D183004FF00F0C18
:100A70000CFA03F7BC4305FA03FC4CEA040491F8B2
:100A800003C0BCF1280F05D100F1080C08FA0CF8DE
:100A9000C2F8148091F803C0BCF1480F07D100F1EF
:100AA000080C4FF0010808FA0CF8C2F81080401C3E
:100AB0000828CED35460BDE8F08102460020936838
:100AC0000B400BB1012000E00020704741617047EE
:100AD000016170470A2004490870087314200876E1
:100AE0001E2081F824007047A003002070B5002468
:100AF00000F04AF804460A48006884420FD90848C2
:100B00000068241A2046FFF778FC06460549FFF7DF
:100B10001DFB0546FFF794FC03490860002470BDE7
:100B200098030020000048439C03002010B500F00B
:100B30002BF80149086010BD9803002008B5012179
:100B4000082000F0C9FC0120ADF8000010208DF84D
:100B5000030003208DF8020069460A48FFF722FFD0
:100B60000220ADF8000048208DF8030069460548D2
:100B7000FFF718FF01210348FFF7AAFFFFF7D6FF91
:100B800008BD0000000C014070B501201949086043
:100B900001F008F900201849C1F88001002400BFC5
:100BA000144800680028FBD1002513E001201149FA
:100BB0007C310860640001F0F5F800200E49C1F8AE
:100BC00080010C48006800B1641C012001F0EAF8C3
:100BD000681CC5B2182DE9DB012006497C3108608C
:100BE00084F4000401F0DEF800200349C1F880011C
:100BF000204670BD048121420080214200BFFEE7F3
:100C000010B580210748FFF763FF40210548FFF733
:100C10005FFF80210348FFF759FF40210148FFF79C
:100C200055FF10BD000C014010B540210548FFF7ED
:100C30004FFF80210348FFF749FF80210148FFF75C
:100C400047FF10BD000C014010B540210348FFF7DD
:100C50003FFF40210148FFF739FF10BD000C014064
:100C600008B50121042000F037FC0320ADF8000096
:100C700048208DF8030069460148FFF793FE08BD40
:100C80000008014010B5044614B10120194908704C
:100C900018480078E8B101211748FFF70EFF20B18E
:100CA00002211548FFF709FF98B90A2001F054F80E
:100CB00000201049087001210F48FFF7FEFE08B917
:100CC000012010BD02210C48FFF7F7FE78B9022081
:100CD000F7E701210848FFF7F0FE012807D10221BC
:100CE0000548FFF7EAFE012801D1024908700020FB
:100CF000E7E70000970300200008014010B500203E
:100D0000FFF7C0FF0D49087008460078012802D09F
:100D1000022810D107E00A480078012802D10220F9
:100D20000749087008E00020054908700549086077
:100D300000F050F800E000BF00BF10BD2B00002005
:100D40002D0000209C03002000BFFEE7704700003C
:100D500070B5002100230F22C47804B3154C246819
:100D600004F4E064C4F5E064210AC1F10403CA405C
:100D7000447804FA03F184781440214309010E4CAD
:100D80000678A155047804F01F050124AC400578CD
:100D90006D11AD0005F1E025C5F8004109E00478CA
:100DA00004F01F050124AC40044D0678761145F887
:100DB000264070BD0CED00E000E400E080E100E0C2
:100DC00002490143024A1160704700000000FA0521
:100DD0000CED00E070B500240CE0002506E00020DA
:100DE000074901EBC5010855681CC5B2802DF6DB2B
:100DF000601CC4B2082CF0DB00F0D4F970BD000018
:100E0000E603002070B50B46CE1701EB5676C6F30D
:100E1000C702CE1701EB5676F610A1EBC606F4B268
:100E20000123A340DDB20E4B03EBC0039B5CDB430D
:100E30000B4E06EBC006B354094B03EBC0039B5C9F
:100E40002B43074E06EBC006B354054B03EBC00320
:100E50009B5CDB43024E06EBC006B35470BD000042
:100E6000E603002070B50A46CE1701EB5676C6F3AE
:100E7000C703CE1701EB5676F610A1EBC606F4B207
:100E80000122A240D5B2054A02EBC002D25C2A433D
:100E9000024E06EBC006F25470BD0000E6030020CF
:100EA0002DE9FF5F86B014461D464FF0010A002071
:100EB0000390049005904FF00109002600BF83467F
:100EC0000022134620462946FFF71EFB09D285F073
:100ED0000040CDE9004020460199FFF7CAFA0646D6
:100EE00004E020462946FFF7C4FA06463046FFF7DD
:100EF00089FA22462B46CDE90001FFF709FA074699
:100F000088460022554B38464146FFF704FACDE9A2
:100F10000001FFF7CDFA834607E009EB89004FEAAD
:100F200040090AF1010000F0FF0A0A2096FBF0F0E8
:100F300090FBF9F00028F0D142F2107096FBF0F02F
:100F40000A2190FBF1F201FB1200C0B28DF80C00F7
:100F50004FF47A7096FBF0F090FBF1F201FB120077
:100F6000C0B28DF80D00642096FBF0F090FBF1F21A
:100F700001FB1200C0B28DF80E000A2096FBF0F0C3
:100F800090FBF1F201FB1200C0B28DF80F000A20B5
:100F900096FBF0F100FB1160C0B28DF810002E201E
:100FA0008DF811004FF47A70BBFBF0F00A21B0FB12
:100FB000F1F201FB12008DF812006420BBFBF0F08F
:100FC000B0FBF1F201FB12008DF813000A20BBFB0D
:100FD000F0F0B0FBF1F201FB12008DF814000A20D2
:100FE000BBFBF0F100FB11B08DF815000021149847
:100FF000801D03AA1154894608E003A810F80900CF
:10100000303003A901F8090009F10109B9F10A0F0B
:10101000F3DB0022134620462946FFF775FA08D273
:101020000AF1010000F0FF0A2D20CAF1050103AA10
:1010300050542E208DF8110000211498801D03AA11
:101040001154CAF1050003A942181023DDE9061066
:1010500000F0E6F90AB0BDE8F09F00000088C34048
:1010600008B50121082000F037FA4020ADF8000053
:1010700010208DF8030003208DF8020069464248D5
:10108000FFF790FC8020ADF8000069463E48FFF76E
:1010900089FC80213C48FFF71BFD40213A48FFF7BF
:1010A00017FD0021AE2000F0DCF90021084600F019
:1010B000D8F90021102000F0D4F90021402000F0E0
:1010C000D0F90021812000F0CCF90021CF2000F0E0
:1010D000C8F90021A12000F0C4F90021C82000F0C7
:1010E000C0F90021A62000F0BCF90021A82000F0E2
:1010F000B8F900213F2000F0B4F90021D32000F01E
:10110000B0F90021084600F0ACF90021D52000F02C
:10111000A8F90021802000F0A4F90021D92000F0D6
:10112000A0F90021F12000F09CF90021DA2000F064
:1011300098F90021122000F094F90021DB2000F042
:1011400090F90021402000F08CF90021202000F0CF
:1011500088F90021022000F084F900218D2000F0A0
:1011600080F90021142000F07CF90021A42000F077
:1011700078F90021A62000F074F90021AF2000F0DA
:1011800070F9FFF727FE08BD000C014010B50246BC
:10119000012000E050430B1EA1F10104E1B2F9D19E
:1011A00010BD000070B500241CE004F1B001C8B20D
:1011B000002100F056F90021084600F052F9002104
:1011C000102000F04EF9002508E0084901EBC501A8
:1011D000085D012100F045F9681CC5B2802DF4DBE3
:1011E000601CC4B2082CE0DB70BD0000E6030020E8
:1011F0002DE9FF4F81B080460E461C4600962046E2
:10120000E31704EB5373DB1021464FEAE47C04EB55
:101210005C7C4FEAEC0CA4EBCC0CBCF1000F02D0D0
:101220004FF0010C01E04FF0000C6344224604EB48
:10123000D27C4FEA6C0C03FB0CF303F0FF0B03981A
:101240002038C7B2002547E00C2C07D107EB470038
:10125000234901EB800010F805A014E0102C05D103
:10126000204800EB071010F805A00CE0182C07D15F
:1012700007EBC7001C4901EB800010F805A002E055
:1012800005B0BDE8F08F4FF000091FE00AF08000C4
:1012900020B131464046FFF7E5FD03E031464046C8
:1012A000FFF7B0FD4FEA4A604FEA106A701CC6B201
:1012B0000098301AA04205D1009E08F1010000F00C
:1012C000FF0806E009F1010000F0FF09B9F1080F7D
:1012D000DCDB00BF681CC5B25D45B5DB00BFCFE7F6
:1012E000681F0008DC230008CC2900082DE9FF4F07
:1012F00005460E4690461C464FF0000A02950196A0
:101300002046E11704EB5171C1F3C701009143E09E
:1013100008FB04F0C11700EB51710AEBE101C9B2FF
:1013200003910AF1010000F0FF0A002732E0102CBF
:1013300006D11D49039801EB001010F807B001E039
:10134000BDE8FF8F4FF0000913E00BF0010020B162
:1013500031462846FFF786FD03E031462846FFF771
:1013600051FD4FEA6B0B701CC6B209F1010000F091
:10137000FF09B9F1080FE8DB681CC5B20298281A0A
:10138000A04204D1029D01980830C0B20190019E94
:10139000781CC7B2A742CADB0098411EC9B20091AF
:1013A0000028B5D100BFCBE7370000202DE9F04F72
:1013B00006468A4691461F46099C00252CE0781B6C
:1013C000401EC1B20A20FFF7E1FEB9FBF0F00A218E
:1013D000B0FBF1F201FB1208B8F1000F0CD1A346EB
:1013E00004EBDB71491001FB0561C8B223463022D2
:1013F0005146FFF7FDFE0DE0A34604EBDB714910FB
:1014000001FB0561C8B208F13001CAB2234651465A
:10141000FFF7EEFE681CC5B2BD42D0DBBDE8F08F21
:10142000F0B506460F4614461D4613E022782B46BB
:1014300039463046FFF7DCFE284605EBD07106EB57
:101440006101CEB2C5F18000B04202DA0026B81CBC
:10145000C7B2641C2078202802DB20787E28E5DDD6
:10146000F0BD70B505460C46FFF7CAFB782000F0CA
:10147000AFF8FFF7E9FB1CB1402000F0A9F802E04B
:10148000002000F0A5F8FFF7DFFB284600F0A0F8E9
:10149000FFF7DAFBFFF7C8FB70BD10B5002000F0C6
:1014A000D3FC012000F0D0FC022000F0CDFC032092
:1014B00000F0CAFC10BD704729B1064AD269024348
:1014C000044BDA6104E0034AD2698243014BDA61DA
:1014D000704700000010024029B1064A9269024399
:1014E000044B9A6104E0034A92698243014B9A617A
:1014F000704700000010024030B500210022002497
:1015000000232D4D6D6805F00C0121B1042905D093
:10151000082923D105E0294D056022E0274D05600B
:101520001FE0254D6D6805F47012234D6D6805F4BC
:101530008034022505EB92421CB9214D55430560CC
:101540000BE01D4D6D6805F400351DB11C4D554374
:10155000056002E0194D5543056002E0174D056036
:1015600000BF00BF144D6D6805F0F0010909154D6D
:101570006B5C0568DD4045600F4D6D6805F4E0610A
:10158000090A104D6B5C4568DD4085600A4D6D6849
:1015900005F46051C90A0B4D6B5C4568DD40C560C0
:1015A000054D6D6805F44041890B074D6B5CC568BE
:1015B000B5FBF3F5056130BD0010024000127A0062
:1015C00000093D00000000201000002070470000CE
:1015D00070B5044600251BE040210F48FFF776FA5E
:1015E00004F0800020B180210B48FFF771FA03E07E
:1015F00080210948FFF76AFA40210748FFF768FA97
:1016000040210548FFF762FA6006040E681CC5B267
:10161000082DE1DB70BD0000000C014010B500F0AA
:1016200001F810BD0CB5002001900090334800680F
:1016300040F480303149086000BF3048006800F451
:10164000003000900198401C0190009818B9019852
:10165000B0F5A06FF1D12948006800F4003010B156
:101660000120009001E0002000900098012843D163
:101670002348006840F010002149086008460068CF
:1016800020F0030008600846006840F0020008608F
:101690001A4840681949486008464068486008464A
:1016A000406840F4806048600846406820F47C1040
:1016B00048600846406840F4E81048600846006802
:1016C00040F08070086000BF0C48006800F00070B7
:1016D0000028F9D00948406820F003000749486015
:1016E0000846406840F00200486000BF0348406878
:1016F00000F00C000828F9D10CBD000000100240D9
:1017000000200240042808D14FF0E021096941F08F
:1017100004014FF0E022116107E04FF0E021096978
:1017200021F004014FF0E0221161704710B5134819
:10173000006840F0010011490860084640681049FF
:1017400008400E494860084600680E4908400B49A9
:1017500008600846006820F4802008600846406859
:1017600020F4FE0048604FF41F008860FFF756FF2A
:101770004FF000600449086010BD000000100240F6
:101780000000FFF8FFFFF6FE08ED00E010B50121B4
:10179000124800F038F801281FD101210F4800F04D
:1017A00023F800200E49087013E00E480C49097810
:1017B000405C002808DD0B4809490978405C401E60
:1017C0000849074A1278885405480078401C0449A3
:1017D0000870034800780328E7DB10BD00080040CC
:1017E0002F00002028000020CA430282704721B148
:1017F000028842F00102028004E002884FF6FE7384
:101800001A400280704730B50246002000230024B1
:10181000158A05EA0103958905EA010413B10CB1A3
:10182000012000E0002030BD1AB183890B43838181
:1018300002E083898B4383817047018582827047F0
:10184000002202881D4B98420ED01D4B98420BD0AF
:10185000B0F1804F08D01B4B984205D01A4B9842EC
:1018600002D01A4B984204D14FF68F731A404B881E
:101870001A43174B984207D0164B984204D04FF6A4
:10188000FF431A40CB881A4302808B8883850B88DC
:1018900003850A4B98420BD0094B984208D00E4B57
:1018A000984205D00D4B984202D00D4B984201D181
:1018B0000B7A03860123838270470000002C0140CD
:1018C000003401400004004000080040000C0040CB
:1018D000001000400014004000400140004401405E
:1018E000004801401FB501210420FFF7E5FD1E203F
:1018F0008DF80C0003208DF80D0001208DF80E00EE
:101900008DF80F0003A8FFF723FA42F20F70ADF82D
:1019100004000020ADF80000ADF802006946094857
:10192000FFF78EFF012247210648FFF786FF0122BD
:1019300011460448FFF778FF01210248FFF757FFDF
:101940001FBD00000008004010B540F225511248AC
:1019500000F049F801281ED141031048FFF7B6F8FE
:101960000D4800F0FBF80E490870084601780D4854
:1019700002780078401C0B4B18700B4881540848C3
:1019800000780D2802D101200849087040F2255145
:10199000014800F00DF810BD004400400010014067
:1019A0003400002035000020DC0300203600002039
:1019B00010B50022002340F66A14A14200D100BFF6
:1019C0000A1201249440A3B2DC43048010BD21B16B
:1019D000828942F40052828104E082894DF6FF73CD
:1019E0001A408281704770B502460024002300250A
:1019F000002040F66A16B14200D100BFC1F3421583
:101A000001F01F03012606FA03F3012D02D1968986
:101A1000334006E0022D02D1168A334001E0968A57
:101A200033400C12012606FA04F41688344013B130
:101A30000CB1012000E0002070BDF0B50346002489
:101A400000260025002040F66A17B94200D100BFE9
:101A50001846C1F3421401F01F06012707FA06F5E4
:101A6000012C01D10C3004E0022C01D1103000E037
:101A700014301AB107682F43076002E00768AF43CC
:101A80000760F0BD2DE9F04786B005460E460024FC
:101A9000A24600BFA1460027B08900B100BF2F4673
:101AA0002C8A4CF6FF700440F08804432C82AC89E9
:101AB0004EF6F3100440B088318908437189084319
:101AC0000443AC81AC8A4FF6FF400440B089044324
:101AD000AC8201A8FFF710FD1F48874202D1DDF854
:101AE00010A001E0DDF80CA0A88900F4004040B18E
:101AF0000AEBCA0000EB0A1031684900B0FBF1F8AC
:101B000007E00AEBCA0000EB0A1031688900B0FB5D
:101B1000F1F86420B8FBF0F004012009642101FB16
:101B20001089A88900F4004040B1322000EBC900C0
:101B3000B0FBF1F000F00700044308E0322000EBB6
:101B400009106421B0FBF1F000F00F0004432C8178
:101B500006B0BDE8F08700000038014001468888E3
:101B6000C0F30800704700BFFEE7000000B587B073
:101B700001210420FFF7B0FC01214804FFF79CFC81
:101B80000420ADF8180018208DF81B0003208DF8F4
:101B90001A0006A91D48FEF705FF0820ADF8180039
:101BA00004208DF81B0006A91848FEF7FBFE4FF431
:101BB000165002900020ADF80C00ADF80E00ADF804
:101BC00010000C20ADF812000020ADF8140002A99E
:101BD0000F48FFF757FF01210D48FFF7F8FE0122DC
:101BE00040F225510A48FFF728FF26208DF804000F
:101BF00000208DF805008DF8060001208DF8070003
:101C000001A8FFF7A5F807B000BD000000080140DB
:101C10000044004010B52E480078012856D12DA16F
:101C20002D48FEF781FA88B101202C4908702C4913
:101C3000087010230C2200215420FFF757FB1023BB
:101C40000D2200216420FFF751FB3AE025A1224834
:101C5000FEF76AFA90B1012020490870022020495D
:101C6000087010230E2200215420FFF73FFB1023A1
:101C70000F2200216420FFF739FB22E01AA1164849
:101C8000FEF752FA90B1012014490870032014495C
:101C9000087010231A4600215420FFF727FB102359
:101CA000112200216420FFF721FB0AE00FA10A485E
:101CB000FEF73AFA28B103200849087004200849C1
:101CC000087000200A4908700149087010BD000022
:101CD0003600002044310000DC0300202D000020ED
:101CE0002E00002044320000443300004434000041
:101CF0003500002002E008C8121F08C1002AFAD1EE
:101D000070477047002001E001C1121F002AFBD17B
:101D10007047000010B56FF00400FFF7F3FC0A48AD
:101D200000680A49B0FBF1F00949087008460078DC
:101D300000EB4001C1EBC0104FF6FF7101EAC0009B
:101D40000449088010BD00001400002000127A0031
:101D500030000020320000200146114A12884A4318
:101D60004FF0E0235A6100229A611A46126942F04C
:101D700001021A6100BF4FF0E022106900F0010279
:101D80001AB100F48032002AF5D04FF0E022126937
:101D900022F001024FF0E0231A6100229A6170479D
:101DA000320000200146114A12784A434FF0E023E6
:101DB0005A6100229A611A46126942F001021A61C0
:101DC00000BF4FF0E022106900F001021AB100F4E8
:101DD0008032002AF5D04FF0E022126922F0010291
:101DE0004FF0E0231A6100229A6170473000002012
:101DF0004FF4A060FEF7E4FFFFF78CFFFFF772FDE2
:101E0000FEF796FDFFF7B2FEFEF72AFFFFF728F96F
:101E1000FFF743FBFEF792FEFEF788FEFEF75AFE41
:101E200011E00121002000F093F8012801D1FEF714
:101E300065FF0521012000F08BF8012803D1FEF792
:101E40009DFCFFF7AFF9ECE710B5044634B1012C67
:101E500023D0022C46D0032C77D15CE01023002243
:101E600011461046FFF742FA1023012200211846BE
:101E7000FFF73CFA1023022200212020FFF736FA58
:101E80001023032200213020FFF730FA10233A22DA
:101E900000214020FFF7ACF958E010230422194636
:101EA0000020FFF723FA1023052219461846FFF7F2
:101EB0001DFA10233A2219462020FFF799F9102322
:101EC000122219464420FFF711FA10231422194652
:101ED0005420FFF70BFA1023152219466420FFF750
:101EE00005FA33E01023062220210020FFF7FEF937
:101EF0001023072220211846FFF7F8F910233A2271
:101F000020210846FFF774F91023152220216420B0
:101F1000FFF7ECF91AE01023082230210020FFF728
:101F2000E5F91023092230211846FFF7DFF91023C5
:101F30003A2230212020FFF75BF9102312223021B2
:101F40006420FFF7D3F901E0FFE700BF00BF10BD39
:101F500002460020034B9B5C13B9024B99540120AD
:101F60007047000028000020000000000000000072
:101F700000000000000000003F40000000000000E2
:101F800000003000400030004000000009000BC09D
:101F90003D000BC03D00090018C024407FE02240F6
:101FA00031800000180024C01B000D8032400180E9
:101FB00003801C4027401C80074000401000600048
:101FC00000000000000000000000000000001F8072
:101FD000204040200000402020401F8000000000E2
:101FE000090006001F80060009000000040004002C
:101FF0003F800400040000000010006000000000AA
:1020000000000000040004000400040004000000BC
:10201000000000400000000000000000002001C09F
:1020200006003800400000001F8020402040204073
:102030001F800000000010403FC000400000000072
:1020400018C0214022402440184000001080204049
:10205000244024401B80000002000D0011003FC0FE
:10206000014000003C8024402440244023800000A4
:102070001F802440244034400380000030002000B2
:1020800027C03800200000001B802440244024404A
:102090001B8000001C0022C0224022401F80000044
:1020A00000000000084000000000000000000000E8
:1020B0000460000000000000000004000A0011009D
:1020C00020804040090009000900090009000000C3
:1020D00000004040208011000A0004001800200089
:1020E00023402400180000001F8020402740294082
:1020F0001F400000004007C039000F0001C0004031
:1021000020403FC0244024401B8000001F8020400E
:10211000204020403080000020403FC02040204030
:102120001F80000020403FC024402E4030C00000EF
:1021300020403FC024402E00300000000F001080DF
:10214000204022403380020020403FC004000400B1
:102150003FC02040204020403FC0204020400000A1
:102160000060202020203FC02000200020403FC0F1
:1021700024400B0030C0204020403FC020400040A1
:10218000004000C03FC03C0003C03C003FC0000016
:1021900020403FC00C4023003FC020001F80204053
:1021A000204020401F80000020403FC024402400E9
:1021B000180000001F802140214020E01FA00000E7
:1021C00020403FC02440260019C0004018C02440D1
:1021D0002440224031800000300020403FC0204099
:1021E0003000000020003F80004000403F80200081
:1021F00020003E0001C0070038002000380007C062
:102200003C0007C038000000204039C0060039C03B
:10221000204000002000384007C038402000000067
:10222000304021C02640384020C00000000000009F
:102230007FE0402040200000000070000C00038080
:10224000004000000000402040207FE0000000002F
:1022500000002000400020000000000000100010DE
:1022600000100010001000100000000040000000EE
:1022700000000000000002800540054003C000404F
:1022800020003FC0044004400380000000000380A1
:102290000440044006400000000003800440244045
:1022A0003FC000400000038005400540034000009F
:1022B000000004401FC0244024402000000002E031
:1022C000055005500650042020403FC00440040043
:1022D00003C000400000044027C000400000000090
:1022E00000100010041027E00000000020403FC054
:1022F0000140070004C00440204020403FC000408F
:102300000040000007C0040007C0040003C0000034
:10231000044007C00440040003C0004000000380E4
:102320000440044003800000041007F004500440FF
:1023300003800000000003800440045007F00010F8
:10234000044007C0024004000400000000000640F2
:102350000540054004C00000000004001F80044048
:1023600000400000040007800040044007C0004017
:102370000400070004C0018006000400060001C03C
:10238000070001C006000000044006C0010006C0AE
:10239000044000000410071004E00180060004005F
:1023A0000000044005C0064004400000000000009A
:1023B00004007BE040200000000000000000FFF06F
:1023C00000000000000040207BE00400000000004E
:1023D000400080004000200020004000000000007D
:1023E00000000000000000000000000000000000ED
:1023F00000001FCC000C00000000000000000800DE
:10240000300060000800300060000000022003FC83
:102410001E20022003FC1E200220000000000E18D7
:1024200011043FFF10840C78000000000F0010849E
:102430000F3800C0077818840078000000780F84F7
:1024400010C411240E9800E40084000808006800FD
:10245000700000000000000000000000000000000C
:10246000000007E0181820044002000000004002AD
:102470002004181807E0000000000000024002409D
:1024800001800FF0018002400240000000800080C7
:1024900000800FF800800080008000000001000D27
:1024A000000E00000000000000000000000000809E
:1024B0000080008000800080008000800000000C10
:1024C000000C0000000000000000000000000006FA
:1024D000001800600180060018002000000007F0CE
:1024E000080810041004080807F0000000000804A1
:1024F00008041FFC000400040000000000000E0C93
:1025000010141024104411840E0C000000000C184C
:1025100010041104110412880C700000000000E087
:102520000320042408241FFC0024000000001F983E
:10253000108411041104108810700000000007F0CE
:1025400008881104110418880070000000001C00A5
:10255000100010FC13001C001000000000000E38DA
:1025600011441084108411440E380000000007004C
:10257000088C10441044088807F000000000000098
:102580000000030C030C000000000000000000002D
:1025900000010106000000000000000000000080B3
:1025A000014002200410080810040000022002204C
:1025B000022002200220022002200000000010045D
:1025C00008080410022001400080000000000E00F6
:1025D0001200100C106C10800F00000003E00C18AB
:1025E00013E4142417C4082807D000000004003C9A
:1025F00003C41C40074000E4001C000410041FFC3E
:102600001104110411040E880070000003E00C187E
:1026100010041004100410081C10000010041FFC0B
:10262000100410041004080807F0000010041FFC38
:102630001104110417C410040818000010041FFC32
:102640001104110017C010000800000003E00C186E
:102650001004100410441C780040000010041FFCFB
:1026600010840080008010841FFC100400001004FF
:1026700010041FFC100410040000000000030001FF
:10268000100110011FFE10001000000010041FFCBC
:10269000110403801464181C1004000010041FFCB3
:1026A0001004000400040004000C000010041FFCCF
:1026B0001F0000FC1F001FFC1004000010041FFC82
:1026C0000C04030000E010181FFC100007F00808BD
:1026D000100410041004080807F0000010041FFC88
:1026E00010841080108010800F00000007F0081880
:1026F00010241024101C080A07F2000010041FFC0C
:102700001104110011C011300E0C000400000E1C49
:1027100011041084108410441C38000018001000AC
:1027200010041FFC100410001800000010001FF817
:1027300010040004000410041FF8100010001E0014
:1027400011E0001C007013801C0010001FC0103C22
:1027500000E01F0000E0103C1FC000001004180C37
:10276000163401C001C01634180C100410001C00EF
:10277000130400FC13041C00100000000804101CCB
:102780001064108413041C041018000000000000E2
:1027900000007FFE400240024002000000003000C6
:1027A0000C0003800060001C0003000000004002D9
:1027B000400240027FFE0000000000000000000018
:1027C0002000400040004000200000000001000107
:1027D00000010001000100010001000100004000B3
:1027E00040002000000000000000000000000098F1
:1027F000012401440144014400FC000410001FFCBA
:1028000000880104010400880070000000000070CE
:102810000088010401040104008800000000007029
:1028200000880104010411081FFC0004000000F8E6
:10283000014401440144014400C8000000000104B7
:1028400001040FFC1104110411001800000000D64F
:1028500001290129012901C90106000010041FFCFA
:10286000008401000100010400FC000400000104D8
:10287000190419FC0004000400000000000000031B
:1028800000010101190119FE0000000010041FFCE5
:102890000024004001B4010C0104000000001004F9
:1028A00010041FFC0004000400000000010401FCEF
:1028B0000104010001FC0104010000FC010401FC11
:1028C000008401000100010400FC0004000000F885
:1028D000010401040104010400F80000010101FFEA
:1028E00000850104010400880070000000000070F1
:1028F000008801040104010501FF00010104010435
:1029000001FC00840104010001800000000000CCF3
:102910000124012401240124019800000000010089
:10292000010007F80104010400000000010001F8A3
:10293000000400040004010801FC000401000180FF
:102940000170000C001001600180010001F0010C19
:10295000003001C00030010C01F001000000010452
:10296000018C00740170018C0104000001010181DF
:102970000171000E00180160018001000000018457
:10298000010C013401440184010C0000000000002E
:102990000000000001003EFC400240020000000078
:1029A00000000000FFFF00000000000000004002E7
:1029B00040023EFC0100000000000000000060003A
:1029C0008000800040004000200020000000000047
:1029D00000000000000000000000000000000000F7
:1029E00000000000000000000000000000000000E7
:1029F0000000000000000000000000000000000FC8
:102A000080380FFE380F8038000000000000000002
:102A100000000000000000000000010000060000AF
:102A20000C00003800003100000600000C000038E7
:102A3000000030000000000000000000618000671E
:102A4000F807F9800061800061800061800061808A
:102A50000067F807F98000618000000000000000B6
:102A6000000001C0E003E0F00630080418081FFF72
:102A7000FE040E080787F00381E00000000000005C
:102A800001F000060C00040408060C7001F9C000F7
:102A90000E00003BE000EC18070808040C180003C7
:102AA000E00000000001E00007F003F818041C0833
:102AB00004170807E1D003C0E00023B0003C080081
:102AC000200800001000000000000001000031009C
:102AD000003200001C0000000000000000000000A8
:102AE00000000000000000000000000000000000E6
:102AF0000000000000000000000000007F0001FF57
:102B0000C00780F00C001810000420000200000034
:102B10000000002000021000040C00180780F001E3
:102B2000FFC0007F00000000000000000000000067
:102B30000000000000000000420000660000660087
:102B4000003C0000180003FFC0001800003C00001B
:102B50006600006600004200000000000800000857
:102B60000000080000080000080001FFC000080085
:102B70000008000008000008000008000000000035
:102B8000000100003100003200001C0000000000C5
:102B90000000000000000000000000000000000035
:102BA0000000000008000008000008000008000005
:102BB00008000008000008000008000008000008E5
:102BC0000000000000000000000000003800003895
:102BD00000003800000000000000000000000000BD
:102BE00000000000000000000000000000060000DF
:102BF0001C000070000180000E0000380000C000C2
:102C00000700001C00003000000000000000000071
:102C10007F8001FFE00380700600180400080400B4
:102C20000806001803807001FFE0007F80000000AC
:102C30000000000000000100080100080100080376
:102C4000FFF807FFF8000008000008000008000077
:102C50000000000000000001C03802C058040098C5
:102C6000040118040218040418061C1803F81801BB
:102C7000E0F800000000000000000001C0E003C018
:102C8000F004000804080804080806180803F418EB
:102C900001E7F00001E0000000000000000000007B
:102CA0000300000D00001100006100008108030115
:102CB0000807FFF80FFFF8000108000108000000F6
:102CC0000000000000E007FCD00608080610080617
:102CD0001008061008061838060FF00607C0000096
:102CE00000000000000000003F8001FFE00384308E
:102CF000020818041008041008041008071810032C
:102D00000FF00007C000000000000000000003C03A
:102D1000000700000600000600F80607F806180085
:102D200006E00007000006000000000000000001AF
:102D3000E1E003F7F0063410041808041808040C46
:102D400008040C0806161803F3F001C1E0000000A7
:102D500000000000F80003FC3003063804020804F9
:102D600002080402080404100308F001FFC0007FF9
:102D70000000000000000000000000000000000053
:102D8000000000007038007038007038000000004B
:102D90000000000000000000000000000000000033
:102DA0000000000000000000301A00301C0000008D
:102DB0000000000000000000000000000000000013
:102DC0000000000800001400002200004100008004
:102DD00080010040020020040010080008000000EC
:102DE000000000002100002100002100002100005F
:102DF000210000210000210000210000210000210D
:102E0000000000000000000000000800080400109E
:102E100002002001004000808000410000220000EC
:102E2000140000080000000000000003C00004C0FF
:102E300000040000080038080F380808380810009F
:102E40000C300007E00003C000000000000000009C
:102E50003F8000FFE0038070020F1006708804C0FE
:102E600088048308047F8802C09003012000FE408C
:102E70000000080000180001F8003E0801C2000729
:102E8000020007E20000FE00001FC80001F8000079
:102E90003800000804000807FFF807FFF8040808D6
:102EA00004080804080804080806180803F41801B0
:102EB000E7F00001E0000000000000003F8001FF9B
:102EC000E0038070020018040008040008040008F1
:102ED0000400100600200780C0000000040008075E
:102EE000FFF807FFF80400080400080400080400C5
:102EF0001802001003807001FFE0007F80000000D6
:102F000004000807FFF807FFF8040808040808048D
:102F10000808040808043E08040008060018010018
:102F20006000000004000807FFF807FFF804080825
:102F3000040800040800040800043E00060000061F
:102F40000000018000000000000000003F8001FF41
:102F5000E003807006001804000804020804020858
:102F60000203F00783F000020000020004000807DB
:102F7000FFF807FFF8040808000800000800000830
:102F80000000080004080807FFF807FFF80400081D
:102F90000000000000000400080400080400080706
:102FA000FFF807FFF8040008040008040008000008
:102FB0000000000000000000000600000700000103
:102FC00004000104000104000307FFFE07FFFC04E6
:102FD000000004000004000004000807FFF807FFD9
:102FE000F8040C08001800003E0004C7800503C860
:102FF0000600F80400380400180000080400080760
:10300000FFF807FFF80400080000080000080000AF
:103010000800000800000800001800006000000020
:1030200004000807FFF807800807FC00007FC000C5
:1030300003F80007C000780007800807FFF807FFC3
:10304000F804000804000807FFF807000803C000A0
:1030500000E000003800001E000007000001C0046E
:1030600000F007FFF8040000000000007F8001FF6F
:10307000E003807006001804000804000806001829
:1030800003003001FFE0007F80000000040008071B
:10309000FFF807FFF8040408040400040400040413
:1030A00000040400060C0003F80001F0000000001A
:1030B000000000007F8001FFE003807006008804AC
:1030C00000880400C806003C03003E01FFE6007FC4
:1030D0008400000004000807FFF807FFF804080850
:1030E000040800040C00040F00040BC00610F003D9
:1030F000F03801E00800000800000001E0F803F0EB
:1031000030063010041808041808040C08040C08D1
:103110000206180207F00781E000000001800006A7
:10312000000004000004000004000807FFF807FF87
:10313000F8040008040000040000060000018000FC
:1031400004000007FFE007FFF0040018000008007B
:10315000000800000800000800000804001007FF35
:10316000E004000004000006000007E00007FE0085
:10317000041FE00001F80000380001E0043E0007F1
:10318000C00006000004000004000007E00007FF84
:10319000C0041FF80007C007F80007FF80043FF8CD
:1031A0000007C004F800070000040000000000044D
:1031B000000806001807C07805F1C8003E00001F8F
:1031C000800463E80780F806001804000800000087
:1031D00004000006000007800007E008047C0800E7
:1031E0001FF80007F800180804E0080700000600B0
:1031F000000400000000000100080600380400F888
:103200000403E8040F08047C0805F00807C0080759
:103210000018040060000000000000000000000032
:10322000000000000000003FFFFE2000022000021E
:103230002000022000022000020000000000000028
:10324000000008000007000000C000003800000671
:10325000000001C000003000000E0000010000006E
:1032600000000000000020000220000220000220D8
:1032700000022000023FFFFE0000000000000000EE
:103280000000000000000000000000000008000036
:103290001000003000002000003000001000000886
:1032A000000000000000000000000100000100001C
:1032B0000100000100000100000100000100000108
:1032C00000000100000100000100000100000000FA
:1032D000000000000020000020000010000010008E
:1032E00000000000000000000000000000000000DE
:1032F0000000000000F00019F8001B180022080070
:103300002608002408002410003FF8001FF80000E1
:103310000800001800000004000007FFF80FFFF08D
:1033200000181800100800200800200800301800BD
:103330001FF0000FC00000000000000007C0001FC9
:10334000F0001830002008002008002008003C0889
:10335000001C1000006000000000000000000000E1
:1033600007C0001FF00038180020080020080020C7
:103370000804101007FFF80FFFF000001000000015
:103380000000000000000007C0001FF00012300025
:103390002218002208002208003208001E10000E29
:1033A000200000000000000020000020080020088D
:1033B00001FFF803FFF8062008042008042008078E
:1033C000200003000000000000000000000E000EBE
:1033D0006E001FF30031B10020B10020B100319127
:1033E000001F13002E1E00200E00300000000004FD
:1033F000000807FFF80FFFF8001008002000002069
:1034000000002008003FF8001FF80000080000003E
:10341000000000000000002008002008002008062E
:103420003FF8063FF8000008000008000008000010
:103430000000000000000000000000000300000386
:10344000002001002001002003063FFE063FFC0093
:10345000000000000000000000000004000807FF5A
:10346000F80FFFF8000188000300002FC00038F8B3
:1034700000203800200800000800000000000000C4
:10348000000004000804000804000807FFF80FFF0C
:10349000F80000080000080000080000000000001C
:1034A000002008003FF8003FF8001008002000004E
:1034B0003FF8003FF8001008002000003FF8003FF0
:1034C000F8000008000000002008003FF8003FF866
:1034D000001008001000002000002008003FF80045
:1034E0001FF80000080000000000000007C0000FE7
:1034F000F0001830003008002008002008003008D4
:10350000001830000FF00007C000000000000000AD
:103510002001003FFF003FFF0010110020090020A4
:1035200008002008003038001FF0000FC000000025
:103530000000000007C0001FF0003818002008003D
:103540002008002009001011001FFF003FFF0000AD
:1035500001000000002008002008002008003FF8BB
:10356000003FF800080800100800200800200000B4
:103570003000003000000000000000000000000CDF
:1035800078001E1800330800230800210800218855
:103590000021980030F000386000000000000000BA
:1035A000200000200000200000FFF003FFF80020B2
:1035B0000800200800200800003000000000000083
:1035C000000000002000003FF0007FF8000018001D
:1035D0000008000008002010003FF8007FF0000005
:1035E00010000000000000002000003000003C003F
:1035F000003F800023F0000078000070002380006E
:103600003C00003000002000002000003C00003F93
:10361000E00023F80000E0002700003E00003FE04B
:103620000021F80001E0003E000020000000000042
:103630002008002008003838003E6800278000037A
:10364000C8002CF8003838002018002008000000BE
:10365000000000002000003003003C01003F830018
:1036600023EC000070002380003C000020000020BC
:1036700000000000000000000000003808002038B2
:103680000020F80023E8002F88003E0800380800DA
:103690002018000070000000000000000000000082
:1036A000000000000000000008000014001FF7FCEC
:1036B00030000620000200000000000000000000B2
:1036C0000000000000000000000000000000FFFFFC
:1036D000FF000000000000000000000000000000EB
:1036E0000000000000002000023000061FF7FC0070
:1036F00014000008000000000000000000000000AE
:103700000000000000000018000060000040000001
:103710004000002000001000000800000400000429
:1037200000000C00001000004837000800000020D6
:10373000A003000020070008043A0008A0030020AE
:10374000C8080000041D0008412D010203040410F4
:1037500009060708090204060884A24A0469180138
:1037600010380D04E4242CB4252624B42C24E42D94
:10377000600CFF02011E1212121E41827F4B7E421C
:1037800001527E1AFE0A9AFE08380C2020100814F6
:1037900067844424140C4F3F040402FE4343312940
:1037A0001F10102424A4FE232240300F08C808084C
:1037B0002818100C080601FF0102100C43807F340A
:1037C000010618300CF8494A4C48F8484C4A49F868
:1037D0001C1010137D2B12FF0524131010100F80E6
:1037E00060F8074020900C030C902040401A01A183
:1037F00019142A1FA941180E101014D4545454FC43
:10380000525252D312301809404050575555557FE7
:10381000041B5750304E202020BEAA011ABE0C199E
:10382000501B80AF0C1AFF0454AF80801DF112149E
:1038300010474312F1134030100A033941414559F2
:103840004141730B1F0830802C808088013AFF06AD
:1038500019512F202010080402E41C0408107020C5
:103860000820180F08F8080826FC040404FC1009B6
:103870008141310D030D71011A3F742A3FC01F129F
:10388000D2525F52F2042AD2C031700A9F523212D1
:103890001F1232529F193A2808FC040202FE03024A
:1038A0007024601807100A7F201408310E30408001
:1038B0001010042424A42F2424E424242FA424243A
:1038C000041A080118090B0808FF08080A090B4127
:1038D0003DFE9292920441201044442425140C048D
:1038E000FF040C1425244444199D380B8848289F54
:1038F0002848880808F8D610080120100C0304187E
:103900003440807F280C101092543010FF10305437
:10391000929F18108485454424140C060C142444EA
:10392000458484F05D222222E20419F02B80403E7F
:10393000311B3F400112781B04049B2C24243F05BB
:1039400014E40404101080804322120E0202027E4E
:1039500082828380E0192E180BF3121252921212F7
:1039600012F202E1401001011F11111115195191BC
:10397000513F1111011BFC4401180842C24243424D
:1039800040406053300F0226FF200F40484848FF58
:10399000484842A29E82A2C2BE180A80601F207FB1
:1039A0004444404F181C484F40DF180C14D4545462
:1039B00054FC525252D312E1180940405057555509
:1039C000557F041B57507015404042CC180940A049
:1039D0009E8282829EA0E029DA200C908840432CAF
:1039E00010284641808018081715D55557557D0475
:1039F0001CD51517702B40403C29011A7F0C11393A
:043A0000C2410000BF
:04000005080000ED02
:00000001FF
