:020000040800F2
:10000000180E002005010008A50A0008ED090008E7
:10001000790A0008CD050008371B00080000000021
:100020000000000000000000000000009112000825
:100030000D08000800000000B51000081D010008B0
:100040001F0100081F0100081F0100081F01000810
:100050001F0100081F0100081F0100081F01000800
:100060001F0100081F0100081F0100081F010008F0
:100070001F0100081F0100081F0100081F010008E0
:100080001F0100081F0100081F0100081F010008D0
:100090001F0100081F0100081F0100081F010008C0
:1000A0001F0100081F0100081F0100081F010008B0
:1000B000191500081F010008611500081F0100083C
:1000C0001F0100081F0100081F0100081F01000890
:1000D0001F0100080D180008951800081F010008EE
:1000E0001F0100081F0100081F010008DFF810D0E1
:1000F00000F06AF800480047C11E0008AFF3008016
:10010000180E00200648804706480047FEE7FEE735
:10011000FEE7FEE7FEE7FEE7FEE7FEE7FEE7FEE7B7
:10012000A1140008ED000008D2B201E000F8012B94
:10013000491EFBD270470022F6E710B513460A4667
:1001400004461946FFF7F0FF204610BD421E12F884
:10015000013F002BFBD111F8013B02F8013B002BC2
:10016000F9D1704730B505462A460B4612F8010B07
:1001700013F8014B08B1A042F8D01CB1002802D0FE
:100180006D1CF1E7284630BD034611F8012B00F83D
:10019000012B002AF9D11846704730B50B460146AD
:1001A00000202022012409E021FA02F59D4205D316
:1001B00003FA02F5491B04FA02F52844151EA2F1C0
:1001C0000102F1DC30BD0000064C074D06E0E0689E
:1001D00040F0010394E8070098471034AC42F6D38E
:1001E000FFF788FFB0390008D039000870B58C18C7
:1001F00010F8015B15F0070301D110F8013B2A113B
:1002000006D110F8012B03E010F8016B01F8016B27
:100210005B1EF9D12B0705D40023521E0DD401F823
:10022000013BFAE710F8013BCB1A921C03E013F8EC
:10023000015B01F8015B521EF9D5A142D8D3002021
:1002400070BD21B1826842F00102826003E08268E1
:1002500022F001028260704721B1826842F480720C
:10026000826003E0826822F48072826070470146F7
:1002700000208A6802F004020AB1012000E0002098
:100280007047014600208A6802F008020AB1012086
:1002900000E000207047000030B502460020002337
:1002A00050680F4C20400D790C6844EA0524204327
:1002B000506090680B4C2040D1E902542C434D799A
:1002C00044EA450420439060D06A20F470000C7C1E
:1002D000641EE4B2234340EA0350D06230BD000004
:1002E000FFFEF0FFFDF7F1FFF0B504460D460020DC
:1002F0000021092D11DDE068A5F10A0606EB46078D
:10030000072606FA07F18843A5F10A0606EB46061A
:1003100003FA06F10843E0600CE0206905EB4507AD
:10032000072606FA07F1884305EB450603FA06F1AE
:1003300008432061072A0FDA606B561E06EB86071A
:100340001F2606FA07F18843561E06EB860605FAB5
:1003500006F10843606322E00D2A0FDA206BD61FF6
:1003600006EB86071F2606FA07F18843D61F06EB21
:10037000860605FA06F10843206310E0E06AA2F160
:100380000D0606EB86071F2606FA07F18843A2F141
:100390000D0606EB860605FA06F10843E062F0BD9D
:1003A000816841F008018160704721B1826842F4A0
:1003B000A002826003E0826822F4A002826070479B
:1003C000816841F0040181607047000000B58BB086
:1003D0000121084600F07CFE114800F053F9114855
:1003E000009011480190002002900220039000200C
:1003F0000490802005904000069080000790202007
:1004000008900002099000200A906946044800F014
:10041000DFF90121024800F029F90BB000BD00000E
:10042000080002404C240140E203002008B50121ED
:10043000042000F07DFE0320ADF8000000208DF8C0
:1004400003006946014800F0F1F908BD00080140C9
:1004500010B5FFF7EBFFFFF7B9FF00F001F810BD93
:1004600000B585B00121480200F062FE0020009036
:1004700001208DF804008DF805004FF460200290F3
:100480000020039002208DF8100069461948FFF7FC
:1004900003FF4FF4404000F00FFE0523012200212E
:1004A0001448FFF721FF0523022201211148FFF71D
:1004B0001BFF01210F48FFF7CFFE01210D48FFF779
:1004C000C0FE0C48FFF76CFF00BF0A48FFF7D9FEDB
:1004D0000028FAD10748FFF773FF00BF0548FFF770
:1004E000C6FE0028FAD101210248FFF75EFF05B0E1
:1004F00000BD0000002401401748007816498979A2
:10050000884205DD0120144908730020887321E02A
:10051000114840781049C979884204DD01200E490C
:100520000873887316E00C4840880B490989884293
:1005300005DD012008490873022088730AE0064897
:10054000808805494989884204DD012002490873F1
:100550000320887370470000F403002010B54FF4A7
:10056000A06000F0D9FA01F0B3FB00F045FB01F008
:1005700005F901F0D5F8FFF76BFF4FF4165001F0C5
:1005800081FD4FF4165001F0CDFD00F005F800F0AC
:100590002FFD00F0B5FF10BD08B50121082000F0C7
:1005A000C7FD0120ADF8000003208DF802001020E7
:1005B0008DF803006946044800F038F9012102482B
:1005C00000F0C8F908BD0000000C014000BFFEE7C4
:1005D000002004E00021054A1154411C88B2C828BB
:1005E000F8DB0021024A1170704700004C0900201E
:1005F000EF03002010B50F48407BC8B90D48807B41
:10060000052813D2DFE800F00306090C0F0001F003
:1006100073F80CE000F0ECF909E000F019FF06E0D7
:1006200000F02CFA03E000F03EFA00E000BF00BF4B
:1006300010BD0000F403002010B501F0A7FB4FF43B
:100640008051094800F086F944F6382001F062FB39
:100650004FF48051044800F07FF91E2001F05AFB4E
:1006600001F07EFB10BD0000000C014021B10268CA
:1006700042F00102026004E002684FF6FE731A4085
:100680000260704701684FF6FE7211400160002160
:10069000016041608160C1604B49884208D14A498C
:1006A0000839496841F00F01474A083A51608AE029
:1006B00045491431884208D143490839496841F015
:1006C000F001414A083A51607DE03F4928318842B3
:1006D00008D13D490839496841F470613A4A083AFD
:1006E000516070E038493C31884208D136490839B8
:1006F000496841F47041344A083A516063E0324934
:100700005031884208D130490839496841F4702194
:100710002D4A083A516056E02B496431884208D18D
:1007200029490839496841F47001274A083A51605B
:1007300049E025497831884208D123490839496878
:1007400041F07061204A083A51603CE01F498842FC
:1007500006D1011F096841F00F01021F116032E04C
:100760001A491431884208D11849091F096841F013
:10077000F001164A121F116025E014492831884201
:1007800008D11249091F096841F470610F4A121F0C
:10079000116018E00D493C31884208D10B49091F0E
:1007A000096841F47041094A121F11600BE00749C2
:1007B0005031884207D10549091F096841F4702169
:1007C000024A121F116070470800024008040240EC
:1007D00010B50022026847F6F0739A430C6A8B68E2
:1007E00023430C6923434C6923438C692343CC691D
:1007F00023434C6A23438C6A23431A430260CB6829
:1008000043600B6883604B68C36010BD7047000095
:1008100010B5044621460448FFF7A4FC08B10120A6
:1008200010BD0020FCE700004C0900202DE9F0413C
:10083000024600250026002000230024002791F80E
:1008400003C00CF00F0591F803C00CF0100CBCF1C4
:10085000000F03D091F802C04CEA050591F800C0E2
:10086000BCF1000F31D0146800202BE04FF0010CD8
:100870000CFA00F3B1F800C00CEA03069E4220D146
:1008800083004FF00F0C0CFA03F7BC4305FA03FC8E
:100890004CEA040491F803C0BCF1280F06D14FF0D4
:1008A000010C0CFA00FCC2F814C00AE091F803C075
:1008B000BCF1480F05D14FF0010C0CFA00FCC2F856
:1008C00010C0401C0828D1D31460B1F800C0BCF19E
:1008D000FF0F34DD546800202EE000F1080C4FF0CB
:1008E000010808FA0CF3B1F800C00CEA03069E42B6
:1008F00021D183004FF00F0C0CFA03F7BC4305FA2B
:1009000003FC4CEA040491F803C0BCF1280F05D1A4
:1009100000F1080C08FA0CF8C2F8148091F803C032
:10092000BCF1480F07D100F1080C4FF0010808FA9C
:100930000CF8C2F81080401C0828CED35460BDE8E3
:10094000F0810246002093680B400BB1012000E0CB
:1009500000207047416170470161704730B599B020
:100960000346002206E0204830F813002DF812005C
:10097000501CC2B2322AF6DB002228E0002120E01F
:100980003DF81140481C3DF81000844217DD3DF849
:1009900011004C1C3DF8144060402DF811003DF84A
:1009A00011004C1C3DF8144060404C1C2DF8140004
:1009B0003DF811003DF8144060402DF81100481C2E
:1009C000C1B2C2F131008842DADC501CC2B2312A15
:1009D000D4DBBDF83000BDF83250441904EBD470BC
:1009E000C0F34F0019B030BDE203002000BFFEE7A6
:1009F00010B50120054948730549064801F00AFB76
:100A00000420024988730020487310BDF4030020BD
:100A10004A0000203000002010B580210748FFF771
:100A20009BFF40210548FFF797FF80210348FFF710
:100A300091FF40210148FFF78DFF10BD000C0140E0
:100A400010B540210548FFF787FF80210348FFF7D5
:100A500081FF80210148FFF77FFF10BD000C01409E
:100A600010B540210348FFF777FF40210148FFF709
:100A700071FF10BD000C014000BFFEE710B5012062
:100A8000054948730549064801F0C4FA04200249A3
:100A900088730020487310BDF40300206A00002012
:100AA000300000207047704770B5002100230F22EE
:100AB000C47804B3154C246804F4E064C4F5E0641D
:100AC000210AC1F10403CA40447804FA03F184788E
:100AD0001440214309010E4C0678A155047804F016
:100AE0001F050124AC4005786D11AD0005F1E0252E
:100AF000C5F8004109E0047804F01F050124AC406A
:100B0000044D0678761145F8264070BD0CED00E0E6
:100B100000E400E080E100E002490143024A116084
:100B2000704700000000FA050CED00E070B50024ED
:100B30000CE0002506E00020074901EBC50108553F
:100B4000681CC5B2802DF6DB601CC4B2082CF0DB3B
:100B500000F0F4F870BD00000404002070B50B46EE
:100B6000CE1701EB5676C6F3C702CE1701EB5676C9
:100B7000F610A1EBC606F4B20123A340DDB20E4B82
:100B800003EBC0039B5CDB430B4E06EBC006B35488
:100B9000094B03EBC0039B5C2B43074E06EBC006DF
:100BA000B354054B03EBC0039B5CDB43024E06EBE7
:100BB000C006B35470BD00000404002070B50A469E
:100BC000CE1701EB5676C6F3C703CE1701EB567668
:100BD000F610A1EBC606F4B20122A240D5B2054A36
:100BE00002EBC002D25C2A43024E06EBC006F2546E
:100BF00070BD00000404002008B50121082000F0A9
:100C000097FA4020ADF8000010208DF80300032073
:100C10008DF8020069464248FFF708FE8020ADF8D3
:100C2000000069463E48FFF701FE80213C48FFF77F
:100C300093FE40213A48FFF78FFE0021AE2000F0DE
:100C4000BBF90021084600F0B7F90021102000F0A0
:100C5000B3F90021402000F0AFF90021812000F01D
:100C6000ABF90021CF2000F0A7F90021A12000F06E
:100C7000A3F90021C82000F09FF90021A62000F070
:100C80009BF90021A82000F097F900213F2000F0F7
:100C900093F90021D32000F08FF90021084600F0DD
:100CA0008BF90021D52000F087F90021802000F089
:100CB00083F90021D92000F07FF90021F12000F014
:100CC0007BF90021DA2000F077F90021122000F0F2
:100CD00073F90021DB2000F06FF90021402000F0C3
:100CE0006BF90021202000F067F90021022000F0BC
:100CF00063F900218D2000F05FF90021142000F03D
:100D00005BF90021A42000F057F90021A62000F093
:100D100053F90021AF2000F04FF9FFF707FF08BD9E
:100D2000000C014010B50246012000E050430B1EAC
:100D3000A1F10104E1B2F9D110BD000070B50024A9
:100D40001CE004F1B001C8B2002100F035F9002127
:100D5000084600F031F90021102000F02DF900259F
:100D600008E0084901EBC501085D012100F024F904
:100D7000681CC5B2802DF4DB601CC4B2082CE0DB1B
:100D800070BD0000040400202DE9FF4F81B08046B3
:100D90000E461C4600962046E31704EB5373DB1007
:100DA00021464FEAE47C04EB5C7C4FEAEC0CA4EBBC
:100DB000CC0CBCF1000F02D04FF0010C01E04FF061
:100DC000000C6344224604EBD27C4FEA6C0C03FB1C
:100DD0000CF303F0FF0B03982038C7B2002547E05F
:100DE0000C2C07D107EB4700234901EB800010F8DA
:100DF00005A014E0102C05D1204800EB071010F8D6
:100E000005A00CE0182C07D107EBC7001C4901EB2B
:100E1000800010F805A002E005B0BDE8F08F4FF0AB
:100E200000091FE00AF0800020B131464046FFF77C
:100E3000C5FE03E031464046FFF790FE4FEA4A60A8
:100E40004FEA106A701CC6B20098301AA04205D151
:100E5000009E08F1010000F0FF0806E009F1010022
:100E600000F0FF09B9F1080FDCDB00BF681CC5B258
:100E70005D45B5DB00BFCFE7F02100086426000820
:100E8000542C00082DE9FF4F05460E4690461C469F
:100E90004FF0000A029501962046E11704EB5171CC
:100EA000C1F3C701009143E008FB04F0C11700EB58
:100EB00051710AEBE101C9B203910AF1010000F09E
:100EC000FF0A002732E0102C06D11D49039801EBE0
:100ED000001010F807B001E0BDE8FF8F4FF00009E7
:100EE00013E00BF0010020B131462846FFF766FE03
:100EF00003E031462846FFF731FE4FEA6B0B701CCA
:100F0000C6B209F1010000F0FF09B9F1080FE8DBF2
:100F1000681CC5B20298281AA04204D1029D01980B
:100F20000830C0B20190019E781CC7B2A742CADB4C
:100F30000098411EC9B200910028B5D100BFCBE78F
:100F40007E0000202DE9F04F06468A4691461F4656
:100F5000099C00252CE0781B401EC1B20A20FFF737
:100F6000E1FEB9FBF0F00A21B0FBF1F201FB12083F
:100F7000B8F1000F0CD1A34604EBDB71491001FB63
:100F80000561C8B2234630225146FFF7FDFE0DE051
:100F9000A34604EBDB71491001FB0561C8B208F1FF
:100FA0003001CAB223465146FFF7EEFE681CC5B2B7
:100FB000BD42D0DBBDE8F08F70B505460C46FFF7AB
:100FC0002BFD782000F0AAF9FFF74AFD1CB1402064
:100FD00000F0A4F902E0002000F0A0F9FFF740FDC6
:100FE000284600F09BF9FFF73BFDFFF729FD70BD98
:100FF00010B5002000F082FF012000F07FFF0220EA
:1010000000F07CFF032000F079FFFFF797FE10BD92
:1010100008B5264800F004FF30B9244880782449F8
:10102000087022480078487010200090204802780C
:10103000022310212A20FFF785FF102000901C4872
:101040004278022310216A20FFF77CFF0120FFF77E
:1010500085FC00EB401000EB400040F6FF7190FB78
:10106000F1F0134948800020FFF778FC00EB4010B6
:1010700000EB400040F6FF7190FBF1F00C498880D6
:101080001020009008464288022320214A20FFF7C2
:1010900059FF1020009006488288022330214A2000
:1010A000FFF750FFFFF74AFE08BD00002B000020AD
:1010B000F40300207047000001460020034A5068F6
:1010C00020F4404008435060704700000010024088
:1010D00029B1064A52690243044B5A6104E0034AAB
:1010E00052698243014B5A61704700000010024070
:1010F00029B1064AD2690243044BDA6104E0034A8B
:10110000D2698243014BDA6170470000001002404F
:1011100029B1064A12690243044B1A6104E0034AEA
:1011200012698243014B1A617047000000100240AF
:1011300029B1064A92690243044B9A6104E0034ACA
:1011400092698243014B9A6170470000001002408F
:1011500029B1064AD2680243044BDA6004E0034A2C
:10116000D2688243014BDA607047000000100240F1
:1011700030B500210022002400232D4D6D6805F0BC
:101180000C0121B1042905D0082923D105E0294DFE
:10119000056022E0274D05601FE0254D6D6805F4D0
:1011A0007012234D6D6805F48034022505EB9242E0
:1011B0001CB9214D554305600BE01D4D6D6805F4CC
:1011C00000351DB11C4D5543056002E0194D5543D6
:1011D000056002E0174D056000BF00BF144D6D684B
:1011E00005F0F0010909154D6B5C0568DD404560AF
:1011F0000F4D6D6805F4E061090A104D6B5C4568A0
:10120000DD4085600A4D6D6805F46051C90A0B4DDB
:101210006B5C4568DD40C560054D6D6805F4404177
:10122000890B074D6B5CC568B5FBF3F5056130BDF7
:101230000010024000127A0000093D00000000206A
:101240001000002008B505488088009003484388B6
:101250004278017802A000F071FC08BDF403002080
:10126000CEC2B6C82564A1E32CCAAAB6C825642597
:10127000252CD1CCCEEDBAACC1BF256425252CBC24
:10128000D7CDE9BAACC1BF256425250D0A00000001
:10129000704700002DE9F04104460D462746FFF750
:1012A00097F9002627E017A0FFF7B2FAF8B9164819
:1012B000007800BB3C460BE000BF4021134800F023
:1012C00069FB0028F9D02178104800F030FC641C3C
:1012D00020780028F0D10EA000F082FA00200D49FD
:1012E00008700D48057001200749087003E00126C9
:1012F000002005490870002ED5D0FFF769F9BDE838
:10130000F08100004F4B0000F1030020004400403A
:101310000D0A0000EE030020F003002070B5044623
:1013200000251BE040210F48FFF714FB04F080006C
:1013300020B180210B48FFF70FFB03E08021094813
:10134000FFF708FB40210748FFF706FB402105484F
:10135000FFF700FB6006040E681CC5B2082DE1DB38
:1013600070BD0000000C014010B500F001F810BD88
:101370000CB50020019000903348006840F48030A4
:101380003149086000BF3048006800F40030009028
:101390000198401C0190009818B90198B0F5A06F11
:1013A000F1D12948006800F4003010B1012000900C
:1013B00001E0002000900098012843D123480068F4
:1013C00040F01000214908600846006820F0030042
:1013D00008600846006840F0020008601A4840684B
:1013E000194948600846406848600846406840F42B
:1013F000806048600846406820F47C1048600846D9
:10140000406840F4E81048600846006840F080708A
:10141000086000BF0C48006800F000700028F9D098
:101420000948406820F003000749486008464068C2
:1014300040F00200486000BF0348406800F00C0024
:101440000828F9D10CBD0000001002400020024025
:1014500010B50120054948730549064800F0DAFD3A
:101460000420024988730020487310BDF403002053
:101470005800002030000020042808D14FF0E0215F
:10148000096941F004014FF0E022116107E04FF0DB
:10149000E021096921F004014FF0E0221161704759
:1014A00010B51348006840F0010011490860084673
:1014B0004068104908400E494860084600680E49D7
:1014C00008400B4908600846006820F48020086046
:1014D0000846406820F4FE0048604FF41F00886012
:1014E000FFF742FF4FF000600449086010BD0000A4
:1014F000001002400000FFF8FFFFF6FE08ED00E0DC
:101500001E20044988713C20C8710881488104204C
:1015100088737047F403002010B50121880700F09C
:101520007CF8B0B10121880700F068F8094800781C
:1015300020B109480078401C074908700648007827
:1015400006490978884204DD0020024908700249F2
:10155000087010BDF1030020EE030020F00300200E
:1015600010B501211F4800F058F8012838D1012199
:101570001C4800F043F800201B49087013E01B488A
:1015800019490978405C002808DD1848164909788F
:10159000405C401E1549144A12788854124800785D
:1015A000401C11490870104800780328E7DB1048F8
:1015B000007BA8B10F480078401CC0B20D490870EC
:1015C000C82809D101210C48FFF7C4F900200949B6
:1015D00008700749087303E001210748FFF7BCF9C9
:1015E00010BD0000000800407C0000202800002002
:1015F000F40300207D000020000C0140CA43028259
:10160000704721B1028842F00102028004E00288A2
:101610004FF6FE731A400280704730B50246002034
:1016200000230024158A05EA0103958905EA0104CF
:1016300013B10CB1012000E0002030BD1AB1838944
:101640000B43838102E083898B438381704701854B
:1016500082827047002202881D4B98420ED01D4B9B
:1016600098420BD0B0F1804F08D01B4B984205D068
:101670001A4B984202D01A4B984204D14FF68F73FE
:101680001A404B881A43174B984207D0164B984282
:1016900004D04FF6FF431A40CB881A4302808B8850
:1016A00083850B8803850A4B98420BD0094B9842DF
:1016B00008D00E4B984205D00D4B984202D00D4BEE
:1016C000984201D10B7A0386012383827047000080
:1016D000002C01400034014000040040000800409C
:1016E000000C004000100040001400400040014089
:1016F000004401400048014010B5012005494873ED
:101700000549064800F086FC042002498873002041
:10171000487310BDF40300203C000020300000207E
:101720001FB501210846FFF7E3FC42F20F70ADF848
:10173000080041F61F40ADF804000020ADF80A0093
:10174000ADF8060001A94FF08040FFF783FF1C2091
:101750008DF8000001208DF801008DF802008DF851
:1017600003006846FFF7A0F9012211469007FFF732
:1017700065FF01218807FFF744FF1FBD1FB5012149
:101780000420FFF7B5FC1E208DF80C0003208DF817
:101790000D0001208DF80E008DF80F0003A8FFF753
:1017A00083F942F20F70ADF804000020ADF800009C
:1017B000ADF8020069460948FFF74CFF01224721B6
:1017C0000648FFF744FF012211460448FFF736FFA1
:1017D00001210248FFF715FF1FBD0000000800406F
:1017E00010B504460BE000BF4021074800F0D2F8D6
:1017F0000028F9D014F8011B034800F098F920786C
:101800000028F0D110BD00000044004010B540F2A7
:1018100025511D4800F0CBF810B31B4800F082F9A9
:10182000C4B21A48008800F40040C8B917480088BC
:1018300000F4804060B10A2C03D0002013490880D6
:1018400020E01248008840F400401049088019E068
:101850000D2C06D10D48008840F480400B490880CB
:1018600010E00A480088C0F30D0009490C540748ED
:101870000088401C0549088008460088C72801DD0B
:101880000020088010BD000000380140EC0300205B
:101890008408002010B50024094800F043F9C4B2C0
:1018A000084809490978445407480078401C06490B
:1018B000087008460078C82801DD0020087010BDB7
:1018C000004400404C090020EF03002001F40072A6
:1018D000B2F5007F00D100BFCA430280704721B13A
:1018E000828942F40052828104E082894DF6FF73BE
:1018F0001A4082817047000010B504462048844297
:1019000009D101218803FFF723FC00214FF4804017
:10191000FFF71EFC32E01B48844209D10121480434
:10192000FFF7F6FB00214FF40030FFF7F1FB25E055
:101930001548844209D101218804FFF7E9FB002101
:101940004FF48020FFF7E4FB18E01048844209D1EF
:101950000121C804FFF7DCFB00214FF40020FFF752
:10196000D7FB0BE00A48844208D101210805FFF7A4
:10197000CFFB00214FF48010FFF7CAFB10BD000021
:10198000003801400044004000480040004C004046
:101990000050004002460020B1F5007F00D100BF9A
:1019A00013880B400BB1012000E00020704770B598
:1019B0000246002400230025002040F66A16B142AA
:1019C00000D100BFC1F3421501F01F03012606FA42
:1019D00003F3012D02D19689334006E0022D02D196
:1019E000168A334001E0968A33400C12012606FA2B
:1019F00004F41688344013B10CB1012000E000203B
:101A000070BDF0B50346002400260025002040F6F6
:101A10006A17B94200D100BF1846C1F3421401F061
:101A20001F06012707FA06F5012C01D10C3004E04E
:101A3000022C01D1103000E014301AB107682F4396
:101A4000076002E00768AF430760F0BD2DE9F0478B
:101A500086B005460E460024A24600BFA1460027D8
:101A6000B08900B100BF2F462C8A4CF6FF700440AD
:101A7000F08804432C82AC894EF6F3100440B08801
:101A800031890843718908430443AC81AC8A4FF61D
:101A9000FF400440B0890443AC8201A8FFF768FB13
:101AA0001F48874202D1DDF810A001E0DDF80CA04C
:101AB000A88900F4004040B10AEBCA0000EB0A100C
:101AC00031684900B0FBF1F807E00AEBCA0000EB0F
:101AD0000A1031688900B0FBF1F86420B8FBF0F01F
:101AE00004012009642101FB1089A88900F4004049
:101AF00040B1322000EBC900B0FBF1F000F007006C
:101B0000044308E0322000EB09106421B0FBF1F03F
:101B100000F00F0004432C8106B0BDE8F087000000
:101B20000038014001468888C0F308007047C1F3BF
:101B300008028280704700BFFEE700000FB4054B2B
:101B400010B503A9044A029800F018F810BC5DF81B
:101B500014FB0000A51E0008E803002002E008C8EE
:101B6000121F08C1002AFAD170477047002001E017
:101B700001C1121F002AFBD1704700002DE9FF4F61
:101B800089B09B460446002506E025280BD05A461E
:101B90000B999047641C6D1C20780028F5D10DB07E
:101BA0002846BDE8F08F0027B8460122474900E0EB
:101BB000074314F8013F203B02FA03F00842F7D133
:101BC00020782E2819D114F8010F47F004072A288D
:101BD0000ED06FF02F022078A0F1300109290CD827
:101BE00008EB880102EB410100EB0108641CF2E7FD
:101BF0000A98641C50F8048B0A9020780028CED0F4
:101C0000642808D0692806D075281ED05A460B993A
:101C100090476D1C58E00A994FF00A0901C90A91D2
:101C2000002802DA40422D2102E0390504D52B219B
:101C30008DF82010012103E0F90704D02021F7E7F7
:101C40008A4608AE0DE00021FAE70A994FF00A092A
:101C500001C90A91F7E74946FEF79FFA303106F8C5
:101C6000011D0028F7D1ADEB060000F1200978072F
:101C700001D44FF00108C84502DDA8EB090000E0DF
:101C800000208046002706E008A85A46C05D0B9950
:101C900090476D1C7F1C5745F6DB04E030205A4608
:101CA0000B9990476D1CB8F10001A8F10108F5DC13
:101CB00005E016F8010B5A460B9990476D1CB9F1D7
:101CC0000001A9F10109F4DC641C65E709280100A1
:101CD00010B56FF00400FFF7CFFB0A4800680A490F
:101CE000B0FBF1F0094908700846007800EB4001AC
:101CF000C1EBC0104FF6FF7101EAC0000449088033
:101D000010BD00001400002000127A00DE03002045
:101D1000E00300200146114A12784A434FF0E023C5
:101D20005A6100229A611A46126942F001021A6150
:101D300000BF4FF0E022106900F001021AB100F478
:101D40008032002AF5D04FF0E022126922F0010221
:101D50004FF0E0231A6100229A617047DE030020F1
:101D600008B501210820FFF7E3F94FF48050ADF8E2
:101D7000000003208DF8020004208DF8030069465E
:101D80000148FEF753FD08BD000C014008B50121D4
:101D90000820FFF7CDF94FF48050ADF80000032084
:101DA0008DF8020010208DF8030069460148FEF707
:101DB0003DFD08BD000C014010B500BF4FF480513F
:101DC0000D48FEF7BEFD0028F8D02820FFF7A2FF3F
:101DD0004FF480510848FEF7B4FD012809D100BF37
:101DE0004FF480510448FEF7ACFD0128F8D00120E3
:101DF00010BD0020FCE70000000C014070B500247D
:101E0000002508E04FF6FF7000EA4404FFF7D4FF16
:101E10000443681C85B2082DF4DB204670BD000029
:101E200070B504460025FEF707FC00F031F858BBFA
:101E300000BF00F02DF80028FBD000BF00F028F80C
:101E40000128FBD0002504E0FFF7D8FF6055681C8F
:101E500085B2052DF8DB00BF00F01AF80028FBD092
:101E6000FFF794FF4FF480510848FEF775FD207886
:101E700061780844A1780844E1780844C6B2207922
:101E8000B04201D0012070BD0020FCE7000C0140F1
:101E900010B54FF480510248FEF753FD10BD00000D
:101EA000000C014000BF054A128802F04002002ADF
:101EB000F9D0C2B2014B1B1D1A8070470038014097
:101EC000FEF74CFB19E06421002000F085F90128A1
:101ED00003D1FEF711FBFEF78DFB3221012000F04C
:101EE0007BF9012801D1FFF793F8C821022000F007
:101EF00073F9012801D1FFF7A5F9E4E770B50546AC
:101F000035B1012D12D0022D35D0032D7ED157E0F1
:101F1000002408E02107080E102322460021FEF7C6
:101F2000B1FF601CC4B2082CF4DB70E0102308225F
:101F300019460020FEF7A6FF10230A22194618466C
:101F4000FEF7A0FF10233A2219462020FEF71CFFBF
:101F50001023092219464020FEF794FF10230A227D
:101F600019465020FEF78EFF10233A2219466020B2
:101F7000FEF70AFF4BE010230B2220210020FEF782
:101F800081FF10230C2220211846FEF77BFF10232F
:101F90000F2220210846FEF775FF10231A46202144
:101FA0003020FEF76FFF10233A2220214020FEF759
:101FB000EBFE1023252220215A20FEF7E5FE26E025
:101FC00010230D2230210020FEF75CFF10230E228B
:101FD00030211846FEF756FF10230F223021202013
:101FE000FEF750FF10231A4630210846FEF74AFF3D
:101FF00010233A2230214020FEF7C6FE102325226E
:1020000030215A20FEF7C0FE01E0FFE700BF00BF0D
:1020100070BD000030B58BB004460D46282101A8E4
:10202000FEF789F8142101A8FEF785F811A101A88F
:10203000FEF7AAF8214601A8FEF788F810A101A82A
:10204000FEF784F8052101A8FFF724F905212846A9
:10205000FFF720F9282101A8FEF76DF81A208DF866
:10206000040000208DF80500052101A8FFF712F9F2
:102070000BB030BD41542B434D47533D220000006F
:10208000220D0A0010B586B00446012144F2040076
:10209000FFF74EF84FF40070ADF8140003208DF8F0
:1020A000160018208DF8170005A91C48FEF7BEFB86
:1020B0004FF48060ADF8140004208DF8170005A9D6
:1020C0001648FEF7B3FB25208DF8000003208DF89D
:1020D00001008DF8020001208DF803006846FEF72C
:1020E000E3FC01940020ADF80800ADF80A00ADF85B
:1020F0000C00ADF810000C20ADF80E0001A9084846
:10210000FFF7A4FC012240F225510548FFF779FCB6
:1021100001210348FFF7E3FB06B010BD00080140B2
:102120000038014010B586B0044601214804FEF78E
:10213000DFFF01210420FEF7FBFF2548FFF7DCFB52
:102140000420ADF8140018208DF8170003208DF836
:10215000160005A91F48FEF769FB0820ADF814001A
:1021600004208DF8170005A91A48FEF75FFB0194BB
:102170000020ADF80800ADF80A00ADF80C00ADF88D
:1021800010000C20ADF80E0001A91148FFF75EFC0D
:1021900026208DF8000001208DF8010000208DF828
:1021A000020001208DF803006846FEF77DFC012245
:1021B00040F225510648FFF724FC01210448FFF7AF
:1021C0008EFB40210248FFF781FB06B010BD0000E6
:1021D000004400400008014002460020034B9B5C85
:1021E00013B9024B995401207047000028000020C9
:1021F00000000000000000000000000000000000DF
:102200003F400000000000000000300040003000AF
:102210004000000009000BC03D000BC03D0009005C
:1022200018C024407FE0224031800000180024C004
:102230001B000D803240018003801C4027401C8021
:102240000740004010006000000000000000000097
:102250000000000000001F802040402000004020BF
:1022600020401F8000000000090006001F800600BB
:1022700009000000040004003F8004000400000086
:1022800000100060000000000000000004000400D6
:1022900004000400040000000000004000000000F2
:1022A00000000000002001C00600380040000000CF
:1022B0001F802040204020401F8000000000104070
:1022C0003FC000400000000018C0214022402440D0
:1022D0001840000010802040244024401B80000053
:1022E00002000D0011003FC0014000003C8024406E
:1022F00024402440238000001F8024402440344098
:10230000038000003000200027C0380020000000BB
:102310001B802440244024401B8000001C0022C05D
:10232000224022401F800000000000000840000002
:102330000000000000000000046000000000000039
:10234000000004000A00110020804040090009003C
:102350000900090009000000000040402080110031
:102360000A00040018002000234024001800000088
:102370001F802040274029401F400000004007C028
:1023800039000F0001C0004020403FC024402440DD
:102390001B8000001F802040204020403080000033
:1023A00020403FC0204020401F80000020403FC010
:1023B00024402E4030C0000020403FC024402E006A
:1023C000300000000F0010802040224033800200C7
:1023D00020403FC0040004003FC020402040204077
:1023E0003FC02040204000000060202020203FC04F
:1023F0002000200020403FC024400B0030C020407F
:1024000020403FC020400040004000C03FC03C0092
:1024100003C03C003FC0000020403FC00C402300F0
:102420003FC020001F802040204020401F8000002F
:1024300020403FC024402400180000001F8021409D
:10244000214020E01FA0000020403FC02440260083
:1024500019C0004018C024402440224031800000B0
:10246000300020403FC020403000000020003F806E
:10247000004000403F80200020003E0001C00700D7
:1024800038002000380007C03C0007C038000000BA
:10249000204039C0060039C02040000020003840EC
:1024A00007C0384020000000304021C0264038409E
:1024B00020C00000000000007FE04020402000001D
:1024C000000070000C00038000400000000040206D
:1024D00040207FE0000000000000200040002000BD
:1024E000000000000010001000100010001000108C
:1024F000000000004000000000000000000002801A
:102500000540054003C0004020003FC00440044097
:1025100003800000000003800440044006400000E7
:1025200000000380044024403FC0004000000380BE
:102530000540054003400000000004401FC0244047
:1025400024402000000002E0055005500650042001
:1025500020403FC00440040003C00040000004408D
:1025600027C000400000000000100010041027E009
:102570000000000020403FC00140070004C00440AC
:10258000204020403FC000400040000007C0040041
:1025900007C0040003C00000044007C0044004005A
:1025A00003C000400000038004400440038000009A
:1025B000041007F004500440038000000000038072
:1025C0000440045007F00010044007C0024004001B
:1025D00004000000000006400540054004C0000063
:1025E000000004001F800440004000000400078039
:1025F0000040044007C000400400070004C0018000
:1026000006000400060001C0070001C0060000002B
:10261000044006C0010006C004400000041007107A
:1026200004E00180060004000000044005C00640EC
:10263000044000000000000004007BE04020000097
:10264000000000000000FFF000000000000040203B
:102650007BE00400000000004000800040002000FB
:10266000200040000000000000000000000000000A
:10267000000000000000000000001FCC000C000063
:10268000000000000000080030006000080030007A
:1026900060000000022003FC1E20022003FC1E201C
:1026A0000220000000000E1811043FFF10840C7877
:1026B000000000000F0010840F3800C00778188455
:1026C0000078000000780F8410C411240E9800E4F4
:1026D000008400080800680070000000000000008E
:1026E0000000000000000000000007E018182004AF
:1026F00040020000000040022004181807E000001B
:10270000000000000240024001800FF00180024002
:10271000024000000080008000800FF800800080F0
:10272000008000000001000D000E0000000000000D
:102730000000000000000080008000800080008019
:10274000008000800000000C000C00000000000071
:102750000000000000000006001800600180060074
:1027600018002000000007F00808100410040808F2
:1027700007F000000000080408041FFC0004000427
:102780000000000000000E0C1014102410441184EE
:102790000E0C000000000C18100411041104128823
:1027A0000C700000000000E00320042408241FFC3B
:1027B0000024000000001F981084110411041088E8
:1027C00010700000000007F0088811041104188838
:1027D0000070000000001C00100010FC13001C0022
:1027E0001000000000000E381144108410841144C1
:1027F0000E38000000000700088C104410440888C0
:1028000007F00000000000000000030C030C0000B3
:1028100000000000000000000001010600000000B0
:1028200000000000000000800140022004100808A1
:1028300010040000022002200220022002200220B8
:1028400002200000000010040808041002200140CB
:102850000080000000000E001200100C106C1080B0
:102860000F00000003E00C1813E4142417C4082818
:1028700007D000000004003C03C41C40074000E4F3
:10288000001C000410041FFC1104110411040E8824
:102890000070000003E00C1810041004100410086D
:1028A0001C10000010041FFC100410041004080881
:1028B00007F0000010041FFC1104110417C41004D9
:1028C0000818000010041FFC1104110017C01000AC
:1028D0000800000003E00C181004100410441C78D9
:1028E0000040000010041FFC108400800080108451
:1028F0001FFC10040000100410041FFC100410043E
:102900000000000000030001100110011FFE100074
:102910001000000010041FFC110403801464181C34
:102920001004000010041FFC100400040004000444
:10293000000C000010041FFC1F0000FC1F001FFC07
:102940001004000010041FFC0C04030000E0101829
:102950001FFC100007F008081004100410040808F9
:1029600007F0000010041FFC1084108010801080FD
:102970000F00000007F0081810241024101C080A8B
:1029800007F2000010041FFC1104110011C01130E7
:102990000E0C000400000E1C11041084108410445E
:1029A0001C3800001800100010041FFC1004100058
:1029B0001800000010001FF81004000400041004A8
:1029C0001FF8100010001E0011E0001C00701380A2
:1029D0001C0010001FC0103C00E01F0000E0103C75
:1029E0001FC000001004180C163401C001C01634BA
:1029F000180C100410001C00130400FC13041C002D
:102A0000100000000804101C1064108413041C043F
:102A1000101800000000000000007FFE400240028D
:102A200040020000000030000C0003800060001C29
:102A30000003000000004002400240027FFE000050
:102A400000000000000000002000400040004000A6
:102A50002000000000010001000100010001000150
:102A600000010001000040004000200000000000C4
:102A700000000000000000980124014401440144CA
:102A800000FC000410001FFC008801040104008801
:102A900000700000000000700088010401040104BF
:102AA0000088000000000070008801040104110883
:102AB0001FFC0004000000F80144014401440144EB
:102AC00000C800000000010401040FFC11041104FF
:102AD00011001800000000D601290129012901C9AF
:102AE0000106000010041FFC008401000100010425
:102AF00000FC000400000104190419FC0004000497
:102B0000000000000000000300010101190119FE8E
:102B10000000000010041FFC0024004001B4010C60
:102B2000010400000000100410041FFC0004000455
:102B300000000000010401FC0104010001FC01048B
:102B4000010000FC010401FC0084010001000104FB
:102B500000FC0004000000F8010401040104010469
:102B600000F80000010101FF008501040104008854
:102B700000700000000000700088010401040105DD
:102B800001FF00010104010401FC008401040100B3
:102B900001800000000000CC012401240124012454
:102BA0000198000000000100010007F80104010481
:102BB00000000000010001F8000400040004010806
:102BC00001FC0004010001800170000C0010016094
:102BD0000180010001F0010C003001C00030010C47
:102BE00001F0010000000104018C00740170018CEF
:102BF00001040000010101810171000E0018016053
:102C00000180010000000184010C013401440184B1
:102C1000010C0000000000000000000001003EFC6C
:102C2000400240020000000000000000FFFF000022
:102C3000000000000000400240023EFC01000000D5
:102C400000000000000060008000800040004000A4
:102C50002000200000000000000000000000000034
:102C60000000000000000000000000000000000064
:102C70000000000000000000000000000000000054
:102C8000000000000000000F80380FFE380F803871
:102C90000000000000000000000000000000000034
:102CA00000000100000600000C00003800003100A8
:102CB000000600000C00003800003000000000009A
:102CC0000000000061800067F807F9800061800063
:102CD00061800061800061800067F807F980006111
:102CE0008000000000000000000001C0E003E0F0F0
:102CF0000630080418081FFFFE040E080787F003BB
:102D000081E000000000000001F000060C00040457
:102D100008060C7001F9C0000E00003BE000EC1842
:102D2000070808040C180003E00000000001E000A0
:102D300007F003F818041C0804170807E1D003C0C3
:102D4000E00023B0003C0800200800001000000054
:102D50000000000100003100003200001C000000F3
:102D60000000000000000000000000000000000063
:102D70000000000000000000000000000000000053
:102D8000000000007F0001FFC00780F00C00181059
:102D900000042000020000000000002000021000DB
:102DA000040C00180780F001FFC0007F0000000045
:102DB0000000000000000000000000000000000013
:102DC0004200006600006600003C0000180003FF9F
:102DD000C0001800003C00006600006600004200D1
:102DE00000000000080000080000080000080000C3
:102DF000080001FFC00008000008000008000008EB
:102E00000000080000000000000100003100003256
:102E100000001C0000000000000000000000000096
:102E20000000000000000000000000000800000892
:102E3000000008000008000008000008000008006A
:102E4000000800000800000800000000000000006A
:102E500000000000380000380000380000000000CA
:102E60000000000000000000000000000000000062
:102E700000000000000600001C000070000180003F
:102E80000E0000380000C0000700001C00003000E9
:102E900000000000000000007F8001FFE003807060
:102EA00006001804000804000806001803807001DA
:102EB000FFE0007F80000000000000000000010033
:102EC0000801000801000803FFF807FFF8000008E8
:102ED00000000800000800000000000000000001E1
:102EE000C03802C0580400980401180402180404F1
:102EF00018061C1803F81801E0F800000000000094
:102F000000000001C0E003C0F00400080408080449
:102F1000080806180803F41801E7F00001E00000B3
:102F200000000000000000000300000D0000110080
:102F300000610000810803010807FFF80FFFF80097
:102F400001080001080000000000000000E007FC8C
:102F5000D0060808061008061008061008061838DB
:102F6000060FF00607C0000000000000000000008F
:102F70003F8001FFE00384300208180410080410A9
:102F800008041008071810030FF00007C000000025
:102F900000000000000003C000070000060000065B
:102FA00000F80607F806180006E000070000060013
:102FB0000000000000000001E1E003F7F00634101B
:102FC000041808041808040C08040C080616180352
:102FD000F3F001C1E000000000000000F80003FC75
:102FE000300306380402080402080402080404102E
:102FF0000308F001FFC0007F000000000000000097
:1030000000000000000000000000000070380070A8
:1030100038007038000000000000000000000000D0
:1030200000000000000000000000000000000000A0
:10303000301A00301C0000000000000000000000FA
:103040000000000000000000000000080000140064
:1030500000220000410000808001004002002004A6
:1030600000100800080000000000000021000021FE
:1030700000002100002100002100002100002100AB
:1030800000210000210000210000000000000000DD
:103090000000080008040010020020010040008029
:1030A0008000410000220000140000080000000021
:1030B00000000003C00004C000040000080038083D
:1030C0000F380808380810000C300007E00003C073
:1030D00000000000000000003F8000FFE00380705F
:1030E000020F1006708804C088048308047F8802D9
:1030F000C09003012000FE400000080000180001FD
:10310000F8003E0801C20007020007E20000FE00CE
:10311000001FC80001F8000038000008040008077C
:10312000FFF807FFF8040808040808040808040862
:103130000806180803F41801E7F00001E000000099
:10314000000000003F8001FFE003807002001804CF
:10315000000804000804000804001006002007808E
:10316000C000000004000807FFF807FFF80400088B
:103170000400080400080400180200100380700115
:10318000FFE0007F8000000004000807FFF807FF51
:10319000F8040808040808040808040808043E089D
:1031A0000400080600180100600000000400080781
:1031B000FFF807FFF80408080408000408000408E2
:1031C00000043E0006000006000001800000000030
:1031D000000000003F8001FFE0038070060018043B
:1031E00000080402080402080203F00783F000024A
:1031F0000000020004000807FFF807FFF8040808B1
:103200000008000008000008000008000408080783
:10321000FFF807FFF80400080000000000000400A9
:103220000804000804000807FFF807FFF804000876
:103230000400080400080000000000000000000076
:103240000006000007000001040001040001040062
:103250000307FFFE07FFFC04000004000004000059
:1032600004000807FFF807FFF8040C080018000026
:103270003E0004C7800503C80600F80400380400B7
:103280001800000804000807FFF807FFF80400080A
:103290000000080000080000080000080000080006
:1032A000001800006000000004000807FFF8078015
:1032B0000807FC00007FC00003F80007C00078008A
:1032C00007800807FFF807FFF80400080400080754
:1032D000FFF807000803C00000E000003800001EEF
:1032E000000007000001C00400F007FFF804000020
:1032F000000000007F8001FFE003807006001804DA
:10330000000804000806001803003001FFE0007FF9
:103310008000000004000807FFF807FFF804040815
:10332000040400040400040400040400060C000368
:10333000F80001F000000000000000007F8001FFA5
:10334000E00380700600880400880400C806003C82
:1033500003003E01FFE6007F840000000400080730
:10336000FFF807FFF8040808040800040C00040F25
:1033700000040BC00610F003F03801E0080000085C
:1033800000000001E0F803F03006301004180804D3
:103390001808040C08040C080206180207F007813C
:1033A000E0000000018000060000040000040000AE
:1033B00004000807FFF807FFF804000804000004F1
:1033C000000006000001800004000007FFE007FF86
:1033D000F0040018000008000008000008000008C1
:1033E00000000804001007FFE004000004000006CD
:1033F000000007E00007FE00041FE00001F80000E5
:10340000380001E0043E0007C00006000004000090
:1034100004000007E00007FFC0041FF80007C00712
:10342000F80007FF80043FF80007C004F800070019
:103430000004000000000004000806001807C0781F
:1034400005F1C8003E00001F800463E80780F8060D
:1034500000180400080000000400000600000780B7
:103460000007E008047C08001FF80007F8001808AF
:1034700004E008070000060000040000000000014E
:1034800000080600380400F80403E8040F08047C70
:103490000805F00807C008070018040060000000D5
:1034A0000000000000000000000000000000003FDD
:1034B000FFFE200002200002200002200002200067
:1034C00002000000000000000000080000070000EB
:1034D00000C0000038000006000001C000003000FD
:1034E000000E0000010000000000000000002000AD
:1034F000022000022000022000022000023FFFFE06
:1035000000000000000000000000000000000000BB
:103510000000000000080000100000300000200043
:103520000030000010000008000000000000000053
:103530000000010000010000010000010000010086
:103540000001000001000001000001000001000076
:103550000100000100000000000000000020000049
:10356000200000100000100000000000000000001B
:1035700000000000000000000000000000F0001942
:10358000F8001B1800220800260800240800241058
:10359000003FF8001FF800000800001800000004B9
:1035A000000007FFF80FFFF00018180010080020B7
:1035B00008002008003018001FF0000FC0000000B5
:1035C0000000000007C0001FF000183000200800B5
:1035D0002008002008003C08001C100000600000CB
:1035E000000000000000000007C0001FF0003818B5
:1035F00000200800200800200804101007FFF80F22
:10360000FFF00000100000000000000000000007B4
:10361000C0001FF00012300022180022080022080B
:10362000003208001E10000E200000000000000004
:10363000200000200800200801FFF803FFF8062002
:1036400008042008042008072000030000000000F0
:1036500000000000000E000E6E001FF30031B100EC
:1036600020B10020B1003191001F13002E1E002058
:103670000E00300000000004000807FFF80FFFF8FC
:10368000001008002000002000002008003FF80083
:103690001FF80000080000000000000000000020EB
:1036A00008002008002008063FF8063FF800000840
:1036B00000000800000800000000000000000000FA
:1036C0000000000003000003002001002001002092
:1036D00003063FFE063FFC00000000000000000063
:1036E00000000004000807FFF80FFFF80001880041
:1036F0000300002FC00038F8002038002008000028
:103700000800000000000000000004000804000899
:1037100004000807FFF80FFFF80000080000080089
:103720000008000000000000002008003FF8003FF3
:10373000F8001008002000003FF8003FF8001008D3
:10374000002000003FF8003FF800000800000000E3
:103750002008003FF8003FF800100800100000208B
:1037600000002008003FF8001FF8000008000000DB
:103770000000000007C0000FF00018300030080003
:103780002008002008003008001830000FF0000763
:10379000C0000000000000002001003FFF003FFFCC
:1037A0000010110020090020080020080030380017
:1037B0001FF0000FC00000000000000007C0001F45
:1037C000F00038180020080020080020090010111F
:1037D000001FFF003FFF0000010000000020080064
:1037E0002008002008003FF8003FF80008080010FB
:1037F0000800200800200000300000300000000019
:10380000000000000000000C78001E1800330800C3
:1038100023080021080021880021980030F000389A
:1038200060000000000000002000002000002000D8
:1038300000FFF003FFF80020080020080020080027
:103840000030000000000000000000002000003FE9
:10385000F0007FF8000018000008000008002010A9
:10386000003FF8007FF000001000000000000000A2
:103870002000003000003C00003F800023F00000EA
:1038800078000070002380003C0000300000200021
:10389000002000003C00003FE00023F80000E000B2
:1038A0002700003E00003FE00021F80001E0003E5C
:1038B0000000200000000000200800200800383828
:1038C000003E680027800003C8002CF8003838004C
:1038D0002018002008000000000000002000003038
:1038E00003003C01003F830023EC000070002380B4
:1038F000003C00002000002000000000000000004C
:1039000000000038080020380020F80023E8002FCD
:1039100088003E08003808002018000070000000F1
:103920000000000000000000000000000000000097
:1039300008000014001FF7FC300006200002000001
:103940000000000000000000000000000000000077
:10395000000000000000FFFFFF000000000000006A
:103960000000000000000000000000000000200037
:10397000023000061FF7FC001400000800000000E1
:10398000000000000000000000000000000000181F
:103990000000600000400000400000200000100017
:1039A000000800000400000400000C0000100000EB
:1039B000D039000800000020F4030000EC010008EA
:1039C000D43C0008F4030020240A00006C1B00080B
:1039D000412D010203040410090607080902040628
:1039E0000884A24A04691881100C31373731393202
:1039F0003338303832100ECEC2B6C8CCABB8DFC1C7
:103A0000CB212121ABCAAA0E8809D1CCCEEDBAAC0C
:103A1000C1BF12CDBCD7CDE9122110091094533289
:103A20001E325210567E4242427E4BFF490142FFF7
:103A3000100908CC4A49484ACC181F7F88888482DC
:103A4000E01E26121252927F4A7E104E20104C47E2
:103A500054017BD404B451250F3040F0180B806022
:103A6000F807101010D0FFD00619CE1942100C1014
:103A700008040B08FF080B040810291A100C9050BA
:103A800020504C434C5020404013040312FF1809AF
:103A9000414458414E60584710151060028C16FE84
:103AA00002F202FE1AF81A11100B04047E0180477C
:103AB000300F10271B47808721180B22322AA6A21D
:103AC00062211109815C21200E4222130B42827E69
:103AD00002020A122346162030AC6330100A88C84E
:103AE000A8998E88A8C888200A22672212128040CE
:103AF000300F4D3F40407160112BFE920132FE2984
:103B0000601E407E42427E026B427E80391F7920D9
:103B1000300C4448507F40407F504844402809FCC6
:103B2000242424FC252624081204101040308F8001
:103B3000844C55252525554C8080802B8070F01EA7
:103B4000FE424242FA0412FE10108060180708106C
:103B5000FF50484641424C40FF1809100C0555558E
:103B6000D5057F06155505140C180D1010108AA9DF
:103B70006B352525ABE9080C311BFE2201490551A7
:103B80001B0702012AFF05320739601D180C242487
:103B9000821A24403960100B9041310F01013F41DE
:103BA0004171280F40402020908894E38488902021
:103BB0002040B0111BFC440145464544FC4E2020EA
:103BC00020BEAA011ABE0C19511B80AF0C1AFF04AB
:103BD0001AAFBF211809F80122202222A2FA802A56
:103BE000028112FF2708040211201F5440807F70B9
:103BF0000AF8888C8A89888888F82AFF6019014227
:103C0000FF1C4044C40B1D401010FFCE22F0400F9B
:103C1000103C131014B840300E014080403F2A245D
:103C2000011AFC5F33232229D83D0242827F081308
:103C30000202244042CC1E829292F29E042A829179
:103C40004C7F2010C339C1180C4040444454644593
:103C5000464464546739E04BFF4901398019E12833
:103C60000AA86C2A3928A82A6CA8DF180E028281BB
:103C700090924A49452422100801601C9052349BBE
:103C8000100A345280708F0808F8081008829A567B
:103C90006322528E18088040330C334080601981B3
:103CA000280940A09E8282829EA04121180C3F904C
:103CB0008840432C10284641809018081715D55588
:103CC00057557D042CD51517904C407F55011A7F10
:043CD0000C011700CC
:04000005080000ED02
:00000001FF
