:020000040800F2
:1000000048040020050100085505000815050008F2
:1000100051050008ED0300082F0C00080000000047
:10002000000000000000000000000000F5060008CD
:10003000F903000800000000DD0500081D010008AC
:100040001F0100081F0100081F0100081F01000810
:100050001F0100081F0100081F0100081F01000800
:100060001F0100081F0100081F0100081F010008F0
:100070001F0100081F0100081F0100081F010008E0
:100080001F0100081F0100081F0100081F010008D0
:100090001F0100081F0100081F0100081F010008C0
:1000A0001F0100081F0100081F0100081F010008B0
:1000B0001F0100081F010008690800081F0100084F
:1000C0001F0100081F0100081F0100081F01000890
:1000D0001F0100081F010008250A00081F01000871
:1000E0001F0100081F0100081F010008DFF810D0E1
:1000F00000F01AF8004800475D0D0008AFF30080DB
:10010000480400200648804706480047FEE7FEE70F
:10011000FEE7FEE7FEE7FEE7FEE7FEE7FEE7FEE7B7
:1001200009080008ED000008064C074D06E0E068ED
:1001300040F0010394E8070098471034AC42F6D32E
:10014000FFF7D8FF280F0008480F000810B54FF43C
:10015000A06000F039FA00F0DFFD00F031FC00F0A3
:10016000DBF900F067FD10BD014611B10120554AD1
:10017000107054480078002878D05348007801283F
:100180001FD05148007802281BD04F480078032820
:1001900017D04D480078042813D04B480078052824
:1001A0000FD04948007806280BD047480078072828
:1001B00007D045480078082803D04348007809282C
:1001C00054D100203F4A10703F480078012804D1E4
:1001D00000203D4A1070012070473B4800780228FB
:1001E00004D10020384A10700220F5E73648007824
:1001F000032804D10020344A10700320ECE7324871
:100200000078042804D100202F4A10700420E3E76E
:100210002D480078052804D100202B4A10700520B5
:10022000DAE729480078062804D10020264A107011
:100230000620D1E724480078072804D10020224A6C
:1002400010700720C8E720480078082804D1002053
:100250001D4A10700820BFE71B48007809282FD1DD
:100260000020194A10700920B6E7FFE71648007809
:10027000012825D014480078022821D0124800789F
:1002800003281DD010480078042819D00E480078A3
:10029000052815D00C480078062811D00A480078A7
:1002A00007280DD008480078082809D006480078AB
:1002B000092805D00120034A10700020024A10705E
:1002C000002089E7310000203000002010B5012017
:1002D000FFF74AFF444908730846007B0A2871D299
:1002E000DFE800F07F0513212F3D4B5962713E4836
:1002F000C078322803DB32203B49C87004E03A481A
:10030000C078401C3849C8706CE03748C078142861
:1003100003DC14203449C87004E03348C078401E20
:100320003149C8705EE030484079502803DB5020E6
:100330002D49487104E02C484079401C2A494871F5
:1003400050E029484079282803DC282026494871B4
:1003500004E025484079401E2349487142E0224884
:100360008079142803DB14201F49887104E01E489B
:100370008079401C1C49887134E01B48807905282D
:1003800003DC05201849887104E017488079401E75
:100390001549887126E01448C07A08B9012000E0A8
:1003A00000201149C8721DE00F4800793C2803DB8A
:1003B0003C200D49087104E00B480079401C0A49B3
:1003C00008710FE00DE008480079142803DC1420C0
:1003D0000549087104E004480079401E024908718B
:1003E00000E000BF00BF10BD3400002000BFFEE7EA
:1003F00010B5FFF76BFF10BD70472DE9F0410246C5
:1004000000250026002000230024002791F803C0C7
:100410000CF00F0591F803C00CF0100CBCF1000FAC
:1004200003D091F802C04CEA050591F800C0BCF178
:10043000000F31D0146800202BE04FF0010C0CFAB3
:1004400000F3B1F800C00CEA03069E4220D18300FD
:100450004FF00F0C0CFA03F7BC4305FA03FC4CEA0F
:10046000040491F803C0BCF1280F06D14FF0010C31
:100470000CFA00FCC2F814C00AE091F803C0BCF109
:10048000480F05D14FF0010C0CFA00FCC2F810C067
:10049000401C0828D1D31460B1F800C0BCF1FF0F94
:1004A00034DD546800202EE000F1080C4FF0010804
:1004B00008FA0CF3B1F800C00CEA03069E4221D101
:1004C00083004FF00F0C0CFA03F7BC4305FA03FC52
:1004D0004CEA040491F803C0BCF1280F05D100F1E7
:1004E000080C08FA0CF8C2F8148091F803C0BCF1AB
:1004F000480F07D100F1080C4FF0010808FA0CF87A
:10050000C2F81080401C0828CED35460BDE8F081AA
:100510004161704700BFFEE708B50121082000F0E7
:100520006FF84FF40070ADF8000003208DF8020062
:1005300010208DF8030069460448FFF75EFF4FF472
:1005400000710248FFF7E4FF08BD0000000C014005
:1005500000BFFEE77047000070B5002100230F22A6
:10056000C47804B3154C246804F4E064C4F5E06472
:10057000210AC1F10403CA40447804FA03F18478E3
:100580001440214309010E4C0678A155047804F06B
:100590001F050124AC4005786D11AD0005F1E02583
:1005A000C5F8004109E0047804F01F050124AC40BF
:1005B000044D0678761145F8264070BD0CED00E03C
:1005C00000E400E080E100E002490143024A1160DA
:1005D000704700000000FA050CED00E070470000D5
:1005E00029B1064AD2690243044BDA6104E0034AA6
:1005F000D2698243014BDA6170470000001002406B
:1006000029B1064A92690243044B9A6104E0034A05
:1006100092698243014B9A617047000000100240CA
:1006200030B500210022002400232D4D6D6805F017
:100630000C0121B1042905D0082923D105E0294D59
:10064000056022E0274D05601FE0254D6D6805F42B
:100650007012234D6D6805F48034022505EB92423B
:100660001CB9214D554305600BE01D4D6D6805F427
:1006700000351DB11C4D5543056002E0194D554331
:10068000056002E0174D056000BF00BF144D6D68A6
:1006900005F0F0010909154D6B5C0568DD4045600A
:1006A0000F4D6D6805F4E061090A104D6B5C4568FB
:1006B000DD4085600A4D6D6805F46051C90A0B4D37
:1006C0006B5C4568DD40C560054D6D6805F44041D3
:1006D000890B074D6B5CC568B5FBF3F5056130BD53
:1006E0000010024000127A0000093D0000000020C6
:1006F00010000020704710B500F002F810BD000097
:100700000CB50020019000903348006840F4803020
:100710003149086000BF3048006800F400300090A4
:100720000198401C0190009818B90198B0F5A06F8D
:10073000F1D12948006800F4003010B10120009088
:1007400001E0002000900098012843D12348006870
:1007500040F01000214908600846006820F00300BE
:1007600008600846006840F0020008601A484068C7
:10077000194948600846406848600846406840F4A7
:10078000806048600846406820F47C104860084655
:10079000406840F4E81048600846006840F0807007
:1007A000086000BF0C48006800F000700028F9D015
:1007B0000948406820F0030007494860084640683F
:1007C00040F00200486000BF0348406800F00C00A1
:1007D0000828F9D10CBD00000010024000200240A2
:1007E000042808D14FF0E021096941F004014FF0DD
:1007F000E022116107E04FF0E021096921F00401D6
:100800004FF0E0221161704710B51348006840F0C6
:1008100001001149086008464068104908400E4927
:100820004860084600680E4908400B4908600846C1
:10083000006820F4802008600846406820F4FE002C
:1008400048604FF41F008860FFF755FF4FF00060CD
:100850000449086010BD0000001002400000FFF8CD
:10086000FFFFF6FE08ED00E010B50121124800F090
:1008700038F801281FD101210F4800F023F800208B
:100880000E49087013E00E480C490978405C0028B6
:1008900008DD0B4809490978405C401E0849074AB1
:1008A0001278885405480078401C044908700348B1
:1008B00000780328E7DB10BD000800402B00002073
:1008C00028000020CA430282704721B1028842F00A
:1008D0000102028004E002884FF6FE731A40028093
:1008E000704730B50246002000230024158A05EA2F
:1008F0000103958905EA010413B10CB1012000E060
:10090000002030BD1AB183890B43838102E08389C3
:100910008B43838170470185828270470022028861
:100920001D4B98420ED01D4B98420BD0B0F1804F1A
:1009300008D01B4B984205D01A4B984202D01A4B54
:10094000984204D14FF68F731A404B881A43174BC5
:10095000984207D0164B984204D04FF6FF431A40F6
:10096000CB881A4302808B8883850B8803850A4BCA
:1009700098420BD0094B984208D00E4B984205D0B4
:100980000D4B984202D00D4B984201D10B7A038651
:100990000123838270470000002C01400034014095
:1009A0000004004000080040000C0040001000401F
:1009B0000014004000400140004401400048014054
:1009C0001FB501210420FFF70BFE1E208DF80C003F
:1009D00003208DF80D0001208DF80E008DF80F001A
:1009E00003A8FFF7B9FD42F20F70ADF80400002034
:1009F000ADF80000ADF8020069460948FFF78EFF28
:100A0000012247210648FFF786FF012211460448CC
:100A1000FFF778FF01210248FFF757FF1FBD0000D5
:100A20000008004010B504E0084800F0F7F8084955
:100A3000087040F22551054800F034F80028F3D141
:100A400040F22551014800F005F810BD0044004077
:100A50003000002010B50022002340F66A14A142A5
:100A600000D100BF0A1201249440A3B2DC430480E9
:100A700010BD21B1828942F40052828104E0828952
:100A80004DF6FF731A408281704702460020B1F58F
:100A9000007F00D100BF13880B400BB1012000E0A4
:100AA0000020704770B50246002400230025002076
:100AB00040F66A16B14200D100BFC1F3421501F001
:100AC0001F03012606FA03F3012D02D19689334054
:100AD00006E0022D02D1168A334001E0968A3340A7
:100AE0000C12012606FA04F41688344013B10CB136
:100AF000012000E0002070BDF0B503460024002670
:100B00000025002040F66A17B94200D100BF184600
:100B1000C1F3421401F01F06012707FA06F5012C64
:100B200001D10C3004E0022C01D1103000E014306F
:100B30001AB107682F43076002E00768AF430760F8
:100B4000F0BD00002DE9F04786B005460E460024B2
:100B5000A24600BFA1460027B08900B100BF2F46C2
:100B60002C8A4CF6FF700440F08804432C82AC8938
:100B70004EF6F3100440B088318908437189084368
:100B80000443AC81AC8A4FF6FF400440B089044373
:100B9000AC8201A8FFF744FD1F48874202D1DDF86F
:100BA00010A001E0DDF80CA0A88900F4004040B1DD
:100BB0000AEBCA0000EB0A1031684900B0FBF1F8FB
:100BC00007E00AEBCA0000EB0A1031688900B0FBAD
:100BD000F1F86420B8FBF0F004012009642101FB66
:100BE0001089A88900F4004040B1322000EBC90010
:100BF000B0FBF1F000F00700044308E0322000EB06
:100C000009106421B0FBF1F000F00F0004432C81C7
:100C100006B0BDE8F0870000003801400146888832
:100C2000C0F308007047C1F308028280704700BF1C
:100C3000FEE7000000B587B001210420FFF7E0FCCB
:100C400001214804FFF7CCFC0420ADF8180018205F
:100C50008DF81B0003208DF81A0006A91D48FFF728
:100C6000CCFB0820ADF8180004208DF81B0006A965
:100C70001848FFF7C2FB4FF4165002900020ADF861
:100C80000C00ADF80E00ADF810000C20ADF812000D
:100C90000020ADF8140002A90F48FFF753FF01210F
:100CA0000D48FFF7E6FE012240F225510A48FFF702
:100CB00023FF26208DF8040000208DF805008DF814
:100CC000060001208DF8070001A8FFF745FC07B0DA
:100CD00000BD0000000801400044004070B504461B
:100CE0000D4629462046FFF79EFF00BF8021204683
:100CF000FFF7CBFE0028F9D070BD02E008C8121F34
:100D000008C1002AFAD170477047002001E001C1F4
:100D1000121F002AFBD1704710B56FF00400FFF7D7
:100D20005FFD0A4800680A49B0FBF1F00949087004
:100D30000846007800EB4001C1EBC0104FF6FF7190
:100D400001EAC0000449088010BD00001400002022
:100D500000127A002C0000202E000020FFF7F6F988
:100D6000D1E03221002000F0D3F801287ED166487E
:100D7000C0793030C1B26548FFF7B0FF6248007AF1
:100D80003030C1B26148FFF7A9FF5F48407A303088
:100D9000C1B25E48FFF7A2FF5B4800780A2190FBD2
:100DA000F1F03030C4B221465848FFF797FF56485B
:100DB00000780A2190FBF1F201FB12003030C4B23E
:100DC00021465248FFF78AFF4F4840780A2190FB9E
:100DD000F1F03030C4B221464C48FFF77FFF4A485B
:100DE00040780A2190FBF1F201FB12003030C4B2CE
:100DF00021464648FFF772FF434890F902000A2156
:100E000090FBF1F0C0F13000C4B221463F48FFF73B
:100E100065FF3D4890F902000A2190FBF1F201FBC9
:100E20001200C0F13000C4B221463848FFF756FF27
:100E30003548C0780A2190FBF1F03030C4B2214629
:100E40003248FFF74BFF3048C0780A2190FBF1F29F
:100E500001FB12003030C4B221462C48FFF73EFFA0
:100E6000294840790A2190FBF1F000E049E0303058
:100E7000C4B221462548FFF731FF234840790A21B3
:100E800090FBF1F201FB12003030C4B221461F4842
:100E9000FFF724FF1C4880790A2190FBF1F03030E5
:100EA000C4B221461948FFF719FF174880790A2173
:100EB00090FBF1F201FB12003030C4B2214613481E
:100EC000FFF70CFF104800790A2190FBF1F0303059
:100ED000C4B221460D48FFF701FF0B4800790A21F3
:100EE00090FBF1F201FB12003030C4B221460748FA
:100EF000FFF7F4FE0448807A3030C1B20348FFF7B0
:100F0000EDFEFFF775FA2CE73400002000440040A6
:100F100002460020034B9B5C13B9024B99540120FD
:100F20007047000028000020480F00080000002043
:100F300034000000FA0C00087C0F00083400002088
:100F4000140400000A0D0008000000000102030460
:100F500001020304060708090204060800A24A0465
:100F60000000000000000000010203040607080959
:0C0F700000000000000000000001000074
:04000005080000ED02
:00000001FF
