:020000040800F2
:10000000C00E00209D01000885120008D7110008CD
:10001000811200085D0F0008D522000800000000D2
:1000200000000000000000000000000005010008C2
:10003000850F00080000000049010008D11B0008DE
:10004000B7010008B7010008B7010008B7010008B0
:10005000B7010008B7010008B7010008B7010008A0
:10006000B7010008B7010008B7010008B701000890
:10007000B7010008B7010008B7010008B701000880
:10008000B7010008B7010008B7010008B701000870
:10009000B7010008B7010008B7010008B701000860
:1000A000B7010008B7010008B7010008B701000850
:1000B000B7010008411C0008D51C0008B701000862
:1000C000B7010008B7010008B7010008B701000830
:1000D000B70100080D1F0008591F0008991F0008EC
:1000E000B7010008B7010008B7010008DFF810D019
:1000F00000F0BCFA0048004791310008AFF30080DF
:10010000C00E0020224B19680868B0E8F00F80F399
:100110000988BFF36F8F4FF0000080F311884EF015
:100120000D0E70470000000006480068006880F36C
:10013000088862B661B6BFF34F8FBFF36F8F00DFE1
:1001400000BF00BF08ED00E0EFF30980BFF36F8F41
:100150000F4B1A6820E9F00F106008B54FF05000FF
:1001600080F31188BFF34F8FBFF36F8F03F078F9DF
:100170004FF0000080F31188BDE808401968086856
:10018000B0E8F00F80F30988BFF36F8F704700BFAE
:10019000DC000020EFF30580704700000648804730
:1001A00006480047FEE7FEE7FEE7FEE7FEE7FEE75C
:1001B000FEE7FEE7FEE7FEE7E11B0008ED000008B2
:1001C00040EA01039B0703D009E008C9121F08C0D9
:1001D000042AFAD203E011F8013B00F8013B521E59
:1001E000F9D27047D2B201E000F8012B491EFBD2D0
:1001F00070470022F6E710B513460A460446194632
:10020000FFF7F0FF204610BD421E12F8013F002B01
:10021000FBD111F8013B02F8013B002BF9D17047EB
:1002200030B505462A460B4612F8010B13F8014B70
:1002300008B1A042F8D01CB1002802D06D1CF1E733
:10024000284630BD10B5044604E00B7800F8013BA9
:1002500003B1491C521EF8D2204610BD034611F8C6
:10026000012B00F8012B002AF9D11846704730B550
:100270000B46014600202022012409E021FA02F564
:100280009D4205D303FA02F5491B04FA02F52844FE
:10029000151EA2F10102F1DC30BD2DE9F05F05462B
:1002A000002092469B4688460646814640241BE035
:1002B000284641464746224600F0F9F953465A4639
:1002C000C01A914110D311461846224600F0E0F9B9
:1002D0002D1A67EB01084F4622460120002100F04D
:1002E000D7F917EB00094E41201EA4F10104DFDC11
:1002F000484631462A464346BDE8F09F2DE9FE4F69
:10030000804681EA0300C00F0C46009021F00041B6
:1003100023F00045B8EB0200A94105D24046214632
:1003200090461C460B46024623F00040104347D03F
:10033000270DC7F30A00C3F30A510290401A019037
:1003400040286BDAC3F3130040F4801B00989246F8
:1003500020B10023D2EB030A63EB0B0B0198594643
:10036000C0F14002504600F093F906460D46504653
:100370005946019A00F0ABF910EB080061410024E6
:1003800087EA115284EAE7731A4340D0009A62B3B5
:10039000019A012A4FEA075215DC001B61EB0201AA
:1003A0004FF0004202EA0752CDE90042001C41F53D
:1003B000801132462B4600F0ABF903B0BDE8F08F58
:1003C00040462146F9E7001B61EB0201001C41F5A4
:1003D000801300185B412018A2F5001747EB0301BA
:1003E00040EAD570B6196D4111E06D084FEA360646
:1003F00045EAC0754FEA0752001B61EB0201001C81
:1004000041F5801149084FEA300000195141324648
:100410002B4603B0BDE8F04F00F06BB90098012205
:1004200040000023D0EB020263EBE073009821460A
:100430004FEAE074B8EB000061EB0401E9E783F0F8
:1004400000435BE781F0004158E72DE9FE4F81EA68
:10045000030404F0004421F0004100944FF0000B2D
:1004600023F0004350EA01045ED052EA03045BD05B
:10047000C3F30A54C1F30A552C44A4F2F334019493
:10048000A0FB0254C1F3130141F48011C3F3130321
:1004900043F4801301FB024400FB034E840A970AD5
:1004A00044EA815447EA8357A4FB076802958D0A02
:1004B00005FB07854FEA932C04FB0C542705029D8E
:1004C0004FEA065847EA1637B5EB08056EEB070CFE
:1004D000870E920E47EA811742EA8312A7FB0201B8
:1004E000B6EB0B0164EB00042B0D43EA0C335E18F2
:1004F00044EB1C50DA465146E7FB0201C5F31304F6
:100500004FEA0B3343EA14534FEA0432019C43EAA7
:100510000603A4F10C040294009CCDE900B400F0A1
:10052000F7F803B0BDE8F08F00200146F9E72DE9A8
:10053000F04D81EA030404F0004B21F0004514461D
:100540004FF0000A23F0004150EA050220D054EA9F
:1005500001021DD0C5F30A570246C5F31303C1F3C8
:100560001300C1F30A5640F4801543F48013A7EB3F
:100570000608101BD64608F2FD3873EB050002D3BF
:1005800008F1010801E092185B41B8F1000F03DAAD
:1005900000200146BDE8F08D00204FF48011064692
:1005A00084460EE0171B73EB050705D3121B63EBA4
:1005B000050306434CEA010C49084FEA3000921843
:1005C0005B4150EA0107EDD152EA030012D082EA02
:1005D000040083EA0501084305D0101BAB4106D295
:1005E0000122002306E000224FF0004302E06FF0FA
:1005F000010253101AEB06004CEB085110EB0A00F5
:1006000041EB0B01BDE8F04D00F073B8C1F30A52A5
:10061000C1F3130140F2FF3341F480119A4202DA30
:1006200000200146704740F233439A42A2F233421F
:1006300002DC524200F03BB800F02AB830B5041E8C
:1006400071F1000404DB4FF00044404264EB01010F
:10065000141E73F1000405DB1C464FF000435242A8
:1006600063EB0403994208BF904230BD064C074D2E
:1006700006E0E06840F0010394E807009847103472
:10068000AC42F6D3FFF736FD98370008B8370008BC
:10069000202A04DB203A00FA02F100207047914042
:1006A000C2F1200320FA03F3194390407047202A37
:1006B00004DB203A21FA02F00021704721FA02F30C
:1006C000D040C2F120029140084319467047202AC9
:1006D00006DBCB17203A41FA02F043EAE07306E06A
:1006E00041FA02F3D040C2F120029140084319467A
:1006F000704710B5141E73F1000408DA401C41F174
:10070000000192185B411A4301D120F0010010BD95
:100710002DE9F04D92469B4611B1B1FA81F202E00B
:10072000B0FA80F220329046FFF7B2FF04460F463F
:1007300040EA0A0041EA0B0153465A46084313D0E7
:10074000114653EA010019D0C8F140025046FFF7A4
:10075000AEFF05460E46504659464246FFF798FF03
:10076000084305D0012004E020463946BDE8F08D5D
:100770000020054346EAE0762C4337430A98630598
:10078000E40AA0EB08000022FD0A44EA47540A30BC
:1007900002D500200146E9E7010510196941DDE9AC
:1007A000084500196941BDE8F04DA2E710B55C4865
:1007B000407830B101281FD0022839D0032874D1E5
:1007C00054E04021574800F004FD574A57A16048C3
:1007D00002F016F85F4801F00DF94FF47A7002F05C
:1007E0009FFC40214F4800F0F2FC5BA001F048FD67
:1007F00004204B49487059E080214A4800F0E9FC48
:10080000494A083249A1524801F0FAFF574801F01D
:10081000F1F84FF47A7002F083FC8021414800F037
:10082000D6FC4DA001F02CFD04203D4948703DE070
:100830004FF480713B4800F0CCFC3B4A10323BA1A6
:10084000434801F0DDFF4A4801F0D4F84FF47A70D4
:1008500002F066FC4FF48071324800F0B8FC3EA014
:1008600001F00EFD04202E4948701FE04FF4007186
:100870002C4800F0AEFC2C4A18322CA1344801F070
:10088000BFFF3C4801F0B6F84FF47A7002F048FC24
:100890004FF40071234800F09AFC2FA001F0F0FC07
:1008A00004201F49487001E0FFE700BF00BF1C485B
:1008B000C078B42832D100201949C8701A48801E67
:1008C0000078012806D12C492148FFF7C7FC2148B0
:1008D00001F090F81448801E007A012806D12649BC
:1008E0001B48FFF7BBFC214801F084F80E48801E2E
:1008F000007C012806D120491548FFF7AFFC1C48B1
:1009000001F078F80848801E007E012806D11A49B7
:100910000F48FFF7A3FC174801F06CF810BD00006A
:100920002B000020000C014031000020506C65615C
:100930007365207069636B207570207061636B61F3
:100940006765207769746820636F6465202573008C
:10095000A30000207300002074362E7478743D22AA
:10096000CDB6B5DDB3C9B9A6220000007F000020D6
:100970008B000020970000203437000810B506488F
:100980000078012805D100F055FA002002490870CE
:1009900001E002F019FC10BD2B00002010B5C0A131
:1009A000C048FFF73DFC00287ED0BFA1BD48FFF73F
:1009B00037FC20B10120BE490870887065E1BDA1F7
:1009C000B848FFF72DFC28B10120B9490870022072
:1009D00088705AE1B9A1B348FFF722FC28B3B9A146
:1009E000B048FFF71DFCB8490860B4A1AD48FFF757
:1009F00017FCB64908600B2208460168091DB44877
:100A0000FFF720FC0622B0480168C91CB148FFF777
:100A100019FC0120AF49891E087008464078401C27
:100A200048700020A24948702FE1ABA19D48FFF714
:100A3000F7FB48B3A3A19B48FFF7F2FBA24908606C
:100A4000A5A19848FFF7ECFBA04908600B220846D7
:100A50000168091DA248FFF7F5FB06229A480168C4
:100A6000C91C9C480830FFF7EDFB01209949891EFD
:100A700008720846407A401CC1B29648801E4172F6
:100A800001208B49487000E196A18648FFF7C8FB1A
:100A900058B38CA18348FFF7C3FB8B49086091A131
:100AA0008048FFF7BDFB00E0F8E0884908600B22B2
:100AB00008460168091D8D48FFF7C4FB06228248DD
:100AC0000168C91C83481030FFF7BCFB0120814935
:100AD000891E08740846407C401CC1B27D48801EB7
:100AE0004174022072494870CFE081A16D48FFF740
:100AF00097FB48B373A16B48FFF792FB72490860FC
:100B00007BA16848FFF78CFB704908600B22084600
:100B10000168091D7848FFF795FB06226A480168BD
:100B2000C91C6C481830FFF78DFB01206949891EEC
:100B300008760846407E401CC1B26648801E417659
:100B400003205B494870A0E06CA15648FFF768FBA2
:100B5000002859D069A15348FFF762FB5A49086041
:100B6000062208460168891C6548FFF76BFB594956
:100B70006348FFF755FB58B14021624800F029FB5C
:100B800061A001F07DFB00205249891E08707CE0C5
:100B9000504908315A48FFF743FB58B18021594862
:100BA00000F017FB60A001F06BFB00204949891E93
:100BB00008726AE0474910315148FFF731FB60B1D4
:100BC0004FF480714F4800F004FB5FA001F058FB28
:100BD00000204049891E087457E03E4918314848B2
:100BE000FFF71EFB60B14FF40071464800F0F1FAC8
:100BF0005DA001F045FB00203649891E087644E0DF
:100C000061A001F03DFB40E065A12648FFF708FB2D
:100C1000002830D02F48801E0078012803D162A020
:100C200001F02EFB02E064A001F02AFB2948801E9F
:100C3000007A012803D164A001F022FB02E066A043
:100C400001F01EFB2348801E007C012803D166A012
:100C500001F016FB02E068A001F012FB1D48801EA7
:100C6000007E012803D168A001F00AFB0DE06AA014
:100C700001F006FB09E06CA10A48FFF7D1FA20B1A8
:100C80004FF470711F4800F0A2FA00206849087004
:100C900064210448FFF7ADFA01F0BEFC10BD00006E
:100CA000454E4400B40400205A434B445900000010
:100CB0002B0000205A43474C59000000314854444F
:100CC00000000000514A4D00580000205C00002048
:100CD000730000203100002032485444000000001E
:100CE0007F00002033485444000000008B000020A7
:100CF000344854440000000097000020514A00008E
:100D00004F000020000C014074362E7478743D2290
:100D1000C7EBB5BD31BAC5B9F1C8A1B3F6BFECB5E3
:100D2000DDA3A1220000000074362E7478743D22E9
:100D3000C7EBB5BD32BAC5B9F1C8A1B3F6BFECB5C2
:100D4000DDA3A1220000000074362E7478743D22C9
:100D5000C7EBB5BD33BAC5B9F1C8A1B3F6BFECB5A1
:100D6000DDA3A1220000000074362E7478743D22A9
:100D7000C7EBB5BD34BAC5B9F1C8A1B3F6BFECB580
:100D8000DDA3A1220000000074362E7478743D2289
:100D9000C8A1BCFEC2EBB4EDCEF3A3A122000000BB
:100DA0004A5854440000000074322E7478743D2276
:100DB000D2D1D3C32200000074322E7478743D2245
:100DC000CEB4D3C32200000074332E7478743D2255
:100DD000D2D1D3C32200000074332E7478743D2224
:100DE000CEB4D3C32200000074342E7478743D2234
:100DF000D2D1D3C32200000074342E7478743D2203
:100E0000CEB4D3C32200000074352E7478743D2212
:100E1000D2D1D3C32200000074352E7478743D22E1
:100E2000CEB4D3C3220000005951434B440000000C
:100E300072000020002553E0052D4BD2DFE805F0BD
:100E4000030E1925350000F08AFA04462CB901205A
:100E500000F062FA044604B901253BE000F07FFA95
:100E600004462CB9022000F057FA044604B90225C2
:100E700030E000F0D9FA04460CB9032500E0002563
:100E80004FF4FA7002F04CF924E04FF4FA7002F0DB
:100E900047F900F0E6FA04460CB9042500E0002505
:100EA0004FF47A7002F03CF914E00E488178022089
:100EB00000F0F4FA044634B90BA001F0E1F90EA0F9
:100EC00001F0DEF906E008A001F0DAF90FA001F068
:100ED000D7F900BF00BF00254FF4C87002F020F919
:100EE000AAE700002B00002070616765204C525F6C
:100EF000535543434553530074302E7478743D2248
:100F0000C2BCC8EBB3C9B9A6A3A1220074302E7429
:100F100078743D22CCEDBCD3CAA7B0DCA3ACD2D14F
:100F2000D3D0D6B8CEC6A3A12200000010B500F0E1
:100F3000AAF902F0D3F84FF4165001F0CDF94FF4AE
:100F4000E13001F02DFA4FF4614001F07BFA00F03E
:100F500095FF00F07DFB01F015FB10BD00BFFEE723
:100F6000002004E00021054A1154411C88B2642885
:100F7000F8DB0021024A1170704700005004002085
:100F8000D50000207047000030B5044604254FF41A
:100F9000302000F06FF80546042D17D10C48006989
:100FA00040F002000A49086108464461006940F0C7
:100FB000400008614FF4302000F05CF8054604481A
:100FC000006941F6FD71084001490861284630BDBD
:100FD0000020024004200B49C96801F0010109B159
:100FE00001200EE00749C96801F0040109B102209F
:100FF00007E00449C96801F0100109B1032000E0CD
:1010000004207047002002400348006940F080003F
:1010100001490861704700000020024070B5044695
:101020000D460426F00200F025F80646042E11D1E4
:101030000948006940F00100074908612580F00275
:1010400000F018F806460448006941F6FE710840B1
:1010500001490861304670BD002002400248034942
:1010600048600348486070472301674500200240FC
:10107000AB89EFCD00B502460423FFF7ABFF034673
:1010800003E0FFF7A7FF0346521E012B01D1002A00
:10109000F7D102B90523184600BD000010B504467B
:1010A00021460448FFF7BCF808B1012010BD00201C
:1010B000FCE70000500400202DE9F0410246002525
:1010C0000026002000230024002791F803C00CF024
:1010D0000F0591F803C00CF0100CBCF1000F03D009
:1010E00091F802C04CEA050591F800C0BCF1000F70
:1010F00031D0146800202BE04FF0010C0CFA00F303
:10110000B1F800C00CEA03069E4220D183004FF0E4
:101110000F0C0CFA03F7BC4305FA03FC4CEA040479
:1011200091F803C0BCF1280F06D14FF0010C0CFA66
:1011300000FCC2F814C00AE091F803C0BCF1480FEB
:1011400005D14FF0010C0CFA00FCC2F810C0401C95
:101150000828D1D31460B1F800C0BCF1FF0F34DD12
:10116000546800202EE000F1080C4FF0010808FA46
:101170000CF3B1F800C00CEA03069E4221D18300B3
:101180004FF00F0C0CFA03F7BC4305FA03FC4CEAD2
:10119000040491F803C0BCF1280F05D100F1080C3C
:1011A00008FA0CF8C2F8148091F803C0BCF1480F9B
:1011B00007D100F1080C4FF0010808FA0CF8C2F84A
:1011C0001080401C0828CED35460BDE8F0814161F6
:1011D00070470161704700BFFEE700007CB505461F
:1011E000EF208DF8000001208DF801001A480068FA
:1011F000000E8DF8020018480068000C8DF80300FE
:1012000015480088000A8DF80400134800788DF80E
:10121000050007208DF8060000208DF807000F4913
:10122000088012E0012001F07BFF0C48008800F4E8
:10123000004050B100200949088069460848FEF77F
:10124000EFFF04460CB120467CBD681E80B2051E2F
:10125000E8D100BFF8E70000680000206600002029
:101260003001002000BF0549098801F04001002934
:10127000F9D00249091D088070470000004800406D
:1012800000BFFEE7704710B54FF4A06000F03AF8D9
:1012900010BD000070B5002100230F22C47804B3F4
:1012A000154C246804F4E064C4F5E064210AC1F13B
:1012B0000403CA40447804FA03F1847814402143BB
:1012C00009010E4C0678A155047804F01F0501248D
:1012D000AC4005786D11AD0005F1E025C5F8004181
:1012E00009E0047804F01F050124AC40044D0678A1
:1012F000761145F8264070BD0CED00E000E400E0FA
:1013000080E100E002490143024A11607047000099
:101310000000FA050CED00E02DE9F041054600F073
:1013200056FB00F02BFB012000F04BFB042000F0EB
:1013300056FB022000F094FB2846FFF793FFEF1DB9
:10134000384600F035FB4FF4FA60FFF747FF0646DA
:101350000EB1747A00E0FF242046BDE8F08170B53C
:1013600000F035FB00F00AFB012000F02AFB03200F
:1013700000F035FB012000F073FB0526304600F03D
:1013800017FB4FF4FA60FFF729FF05460DB16C7AA1
:1013900000E0FF24204670BD2DE9F04781460D4650
:1013A00016461F4600F013FB00F0E8FA012000F09B
:1013B00008FB082000F013FB1B2000F051FB4846FF
:1013C000FFF750FF2812FFF74DFFE8B2FFF74AFF83
:1013D0003012FFF747FFF0B2FFF744FF09F1240096
:1013E00000EB2520E9B2084400EB2620F1B200EB27
:1013F000010A504600F0DCFA4FF4FA60FFF7EEFE07
:10140000044664B194F80980E07AA17A00EB0120E7
:101410003880607B217B00EB0120788001E04FF079
:10142000FF084046BDE8F08770B500F0D0FA00F044
:10143000A5FA012000F0C5FA032000F0D0FA03203D
:1014400000F00EFB0726304600F0B2FA4FF4FA60C7
:10145000FFF7C4FE05460DB16C7A00E0FF2420467C
:1014600070BD70B500F0B3FA00F088FA012000F00A
:10147000A8FA032000F0B3FA052000F0F1FA0926DB
:10148000304600F095FA4FF4FA60FFF7A7FE0546E4
:101490000DB16C7A00E0FF24204670BD2DE9F041CB
:1014A00006460C4600F093FA00F068FA012000F0BE
:1014B00088FA062000F093FA062000F0D1FA3046B0
:1014C000FFF7D0FE2012FFF7CDFEE0B2FFF7CAFE15
:1014D00006F10D0000EB2420E1B200EB01084046CC
:1014E00000F066FA4FF4FA60FFF778FE07460FB196
:1014F0007D7A00E0FF252846BDE8F08129B1064A43
:10150000D2690243044BDA6104E0034AD2698243A0
:10151000014BDA61704700000010024029B1064A11
:1015200012690243044B1A6104E0034A12698243C0
:10153000014B1A61704700000010024029B1064AB1
:1015400092690243044B9A6104E0034A9269824320
:10155000014B9A61704700000010024029B1064A11
:10156000D2680243044BDA6004E0034AD268824343
:10157000014BDA60704700000010024030B50021D6
:101580000022002400232D4D6D6805F00C0121B1CF
:10159000042905D0082923D105E0294D056022E062
:1015A000274D05601FE0254D6D6805F47012234D31
:1015B0006D6805F48034022505EB92421CB9214D7B
:1015C000554305600BE01D4D6D6805F400351DB1F8
:1015D0001C4D5543056002E0194D5543056002E07E
:1015E000174D056000BF00BF144D6D6805F0F00198
:1015F0000909154D6B5C0568DD4045600F4D6D6850
:1016000005F4E061090A104D6B5C4568DD408560BA
:101610000A4D6D6805F46051C90A0B4D6B5C456855
:10162000DD40C560054D6D6805F44041890B074DEF
:101630006B5CC568B5FBF3F5056130BD0010024079
:1016400000127A0000093D00000000201000002078
:1016500000B589B024216846FEF7CBFD112269460A
:10166000554800F0B1F8BDF80000882805D000F01A
:10167000D3FF52A001F0B4F89CE0BDF802000012C4
:1016800050490870BDF802004870BDF8040000120F
:101690000872BDF80400C1B24A484172BDF80600A4
:1016A000001248490874BDF80600C1B245484174AB
:1016B000BDF80800001243490876BDF80800C1B221
:1016C00040484176BDF80A0000123E498870BDF8D6
:1016D0000A00C1B23B48C170BDF80C000112394884
:1016E0000171BDF80C00C1B236484171BDF80E0061
:1016F000011234488171BDF80E00C1B23148C17188
:10170000BDF8100001122F488172BDF81000C1B25F
:101710002C48C172BDF8120001122A480173BDF8AD
:101720001200C1B227484173BDF8140001122548C8
:101730008173BDF81400C1B22248C173BDF8160010
:10174000011220488174BDF81600C1B21D48C17451
:10175000BDF8180001121B480175BDF81800C1B290
:1017600018484175BDF81A00011216488175BDF878
:101770001A00C1B21348C175BDF81C00011211480E
:101780008176BDF81C00C1B20E48C176BDF81E00BE
:1017900001120C480177BDF81E00C1B2094841771B
:1017A000BDF82000011207488177BDF82000C1B2C2
:1017B0000448C17709B000BD007F000866697273F4
:1017C000740000002F00002030B503460C4615467B
:1017D000002207E0184600F008F824F812009B1CCD
:1017E000501C82B2AA42F5DB30BD01460888704722
:1017F0002DE9F05F80468A461746B8F1006F02D3A4
:101800003348804501D3BDE8F09FFFF727FCA8F1DE
:10181000006B4FEA9B25CBF34809C9F50074A7423A
:1018200000DC3C464DE04FF0006101EB85208A145E
:101830002849FFF7C9FF00260BE009EB0600254900
:1018400031F810004FF6FF71884200D003E0701CA1
:1018500086B2A642F1DB00BFA6421BDA4FF0006160
:1018600001EB8520FFF790FB002608E03AF8160010
:1018700006EB0901174A22F81100701C86B2A64235
:10188000F4DB4FF0006101EB85208A14114900F070
:1018900023F804E022465146404600F01DF8A742D6
:1018A00000D10FE06D1C4FF000090AEB440AA04480
:1018B000381B87B2B7F5007F02DD4FF4007400E0FB
:1018C0003C46B0E700BFFFF79FFB00BF9BE700006F
:1018D00000000108180500202DE9F04105460E46DC
:1018E0001746002407E036F814102846FFF796FB49
:1018F000AD1C601C84B2BC42F5DBBDE8F081000089
:101900002DE9F04104460D461646A046FFF728FB98
:10191000002725E02846FFF7C1FBE8B91348007807
:10192000F0B9444604E02178114800F029FD641C18
:1019300020780028F7D10D210D4800F021FD0A2163
:101940000B4800F01DFD00200A4908700A48067087
:1019500001200649087003E00127002003490870B0
:10196000002FD7D0FFF7FCFABDE8F081D6000020A9
:1019700000380140D7000020D800002010B50B49E6
:101980000968080EFFF76EFC08480068C0F30740BE
:10199000FFF768FC05480088C0F30720FFF762FCEA
:1019A00002490878FFF75EFC10BD000068000020C7
:1019B00010B504462012FFF755FCE0B2FFF752FCC9
:1019C00010BD10B504462046FFF74CFC10BD10B505
:1019D000EF20FFF747FC0120FFF744FC10BD10B5D6
:1019E0000446C4F30720FFF73DFCE0B2FFF73AFCE2
:1019F00010BD000030B591B00546002434221449D2
:101A00006846FEF7DDFB22208DF8340000BF04E0BD
:101A1000295D0DAA601C1154C4B20B2CF8DB2220E6
:101A20008DF8400000208DF841000DA96846FEF7B2
:101A3000EBFB032207A16846FFF762FF064800F0B0
:101A40004FFA1A21054800F09BFC11B030BD000090
:101A5000003700083E000000A300002000380140CD
:101A600010B504462046FFF7FDFB10BD10B500F091
:101A700001F810BD0CB500200190009033480068BB
:101A800040F480303149086000BF3048006800F4FD
:101A9000003000900198401C0190009818B90198FE
:101AA000B0F5A06FF1D12948006800F4003010B102
:101AB0000120009001E0002000900098012843D10F
:101AC0002348006840F0100021490860084600687B
:101AD00020F0030008600846006840F0020008603B
:101AE0001A484068194948600846406848600846F6
:101AF000406840F4806048600846406820F47C10EC
:101B000048600846406840F4E810486008460068AD
:101B100040F08070086000BF0C48006800F0007062
:101B20000028F9D00948406820F0030007494860C0
:101B30000846406840F00200486000BF0348406823
:101B400000F00C000828F9D10CBD00000010024084
:101B50000020024010B5032207A108A0FFF7D0FE25
:101B6000032205A107A0FFF7CBFE032202A108A0D4
:101B7000FFF7C6FE10BD00004F4B0000415445303A
:101B80000000000041542B434D47463D310000000A
:101B900041542B43504D533D22534D222C22534D43
:101BA000222C22534D220000042808D14FF0E021BE
:101BB000096941F004014FF0E022116107E04FF0A4
:101BC000E021096921F004014FF0E0221161704722
:101BD00010B501F0C9FC012801D001F0ABFC10BD2B
:101BE00010B51348006840F001001149086008462C
:101BF0004068104908400E494860084600680E4990
:101C000008400B4908600846006820F480200860FE
:101C10000846406820F4FE0048604FF41F008860CA
:101C2000FFF724FF4FF000600449086010BD00007A
:101C3000001002400000FFF8FFFFF6FE08ED00E094
:101C400010B50121094800F0A8F868B108480088DB
:101C500040F40040064908800121044800F08EF855
:101C60000021024800F08DF810BD00000004004083
:101C7000660000207FB505460C4601210220FFF7D3
:101C80003DFCADF80450ADF800400020ADF8060072
:101C9000ADF8020069460E4800F09EF80122114698
:101CA0000B4800F08BF80121094800F06AF81D206C
:101CB0008DF80C0000208DF80D0003208DF80E002B
:101CC00001208DF80F0003A8FFF7E4FA7FBD0000A4
:101CD0000004004010B50121224800F05EF8012800
:101CE0003ED101211F4800F049F800201E4908702C
:101CF00013E01E481C490978405C002808DD1B4899
:101D000019490978405C401E1849174A12788854CE
:101D100015480078401C14490870134800780328BF
:101D2000E7DB1348007840B91148007A28B9104819
:101D3000007C10B90E48007E78B10E480078401C37
:101D4000C0B20C490870C8280ADB002008700A4895
:101D5000C078401C0849C87002E00020054908709E
:101D600010BD000000080040600000202800002096
:101D70002F000020610000202B000020CA430282B7
:101D8000704721B1028842F00102028004E002881B
:101D90004FF6FE731A400280704730B502460020AD
:101DA00000230024158A05EA0103958905EA010448
:101DB00013B10CB1012000E0002030BD1AB18389BD
:101DC0000B43838102E083898B43838170470185C4
:101DD0008282704781847047002202881D4B98429E
:101DE0000ED01D4B98420BD0B0F1804F08D01B4B4A
:101DF000984205D01A4B984202D01A4B984204D10F
:101E00004FF68F731A404B881A43174B984207D0EE
:101E1000164B984204D04FF6FF431A40CB881A4322
:101E200002808B8883850B8803850A4B98420BD0F0
:101E3000094B984208D00E4B984205D00D4B984262
:101E400002D00D4B984201D10B7A03860123838285
:101E500070470000002C01400034014000040040A5
:101E600000080040000C004000100040001400403A
:101E70000040014000440140004801401FB50121DD
:101E80000420FFF73BFB1E208DF80C0000208DF88E
:101E90000D008DF80E0001208DF80F0003A8FFF74C
:101EA000F9F942F20F70ADF804000020ADF800001F
:101EB000ADF8020069460948FFF78EFF012247216D
:101EC0000648FFF784FF012211460448FFF776FF1A
:101ED00001210248FFF755FF1FBD00000008004028
:101EE00010B504460BE000BF4021074800F0F6F8AB
:101EF0000028F9D014F8011B034800F0BCF9207841
:101F00000028F0D110BD00000038014010B540F2AB
:101F100025510E4800F0EFF8012816D10B4800F0CB
:101F2000A5F90B490B4A127888540A480078401CDE
:101F30000849087008460078642801DD0020087010
:101F400040F22551014800F05FF810BD0038014013
:101F500050040020D500002010B540F225510B4858
:101F600000F0C9F888B1094800F080F90849094A29
:101F70001278885407480078401C064908700846C3
:101F80000078642801DD0020087010BD0044004086
:101F9000B40400207200002010B540F2255116480C
:101FA00000F0A9F8F8B1144800F060F9C4B2134881
:101FB000008800F40040B0B910480088B0F5C87F30
:101FC00012DA00210E48FFF705FF0C48008818B907
:101FD00001210B48FFF7D5FE08490888411C074A34
:101FE000118008490C5405E00448008840F4004082
:101FF0000249088010BD0000004800406600002033
:10200000000400403001002010B50022002340F6FB
:102010006A14A14200D100BF0A1201249440A3B265
:10202000DC43048010BD21B1828942F400528281D8
:1020300004E082894DF6FF731A40828170470000E8
:1020400010B504462048844209D101218803FFF7D6
:1020500085FA00214FF48040FFF780FA32E01B48F8
:10206000844209D101214804FFF758FA00214FF4B6
:102070000030FFF753FA25E01548844209D10121C9
:102080008804FFF74BFA00214FF48020FFF746FA4F
:1020900018E01048844209D10121C804FFF73EFA34
:1020A00000214FF40020FFF739FA0BE00A48844280
:1020B00008D101210805FFF731FA00214FF4801003
:1020C000FFF72CFA10BD000000380140004400402A
:1020D00000480040004C00400050004002460020F4
:1020E000B1F5007F00D100BF13880B400BB1012078
:1020F00000E00020704770B5024600240023002550
:10210000002040F66A16B14200D100BFC1F342156B
:1021100001F01F03012606FA03F3012D02D196896F
:10212000334006E0022D02D1168A334001E0968A40
:1021300033400C12012606FA04F41688344013B119
:102140000CB1012000E0002070BDF0B50346002472
:1021500000260025002040F66A17B94200D100BFD2
:102160001846C1F3421401F01F06012707FA06F5CD
:10217000012C01D10C3004E0022C01D1103000E020
:1021800014301AB107682F43076002E00768AF43B5
:102190000760F0BD2DE9F04786B005460E460024E5
:1021A000A24600BFA1460027B08900B100BF2F465C
:1021B0002C8A4CF6FF700440F08804432C82AC89D2
:1021C0004EF6F3100440B088318908437189084302
:1021D0000443AC81AC8A4FF6FF400440B08904430D
:1021E000AC8201A8FFF7CAF91F48874202D1DDF887
:1021F00010A001E0DDF80CA0A88900F4004040B177
:102200000AEBCA0000EB0A1031684900B0FBF1F894
:1022100007E00AEBCA0000EB0A1031688900B0FB46
:10222000F1F86420B8FBF0F004012009642101FBFF
:102230001089A88900F4004040B1322000EBC900A9
:10224000B0FBF1F000F00700044308E0322000EB9F
:1022500009106421B0FBF1F000F00F0004432C8161
:1022600006B0BDE8F08700000038014001468888CC
:10227000C0F308007047C1F3080282807047000075
:1022800010B50446204601F0B1F800BF40211048C7
:10229000FFF724FF0128F9D1FF210D48FFF7EBFFDD
:1022A00000BF40210A48FFF719FF0128F9D1FF219B
:1022B0000748FFF7E0FF00BF40210548FFF70EFF8A
:1022C0000128F9D1FF210248FFF7D5FF10BD00001A
:1022D0000044004000BFFEE710B586B0044601216F
:1022E0000420FFF72BF901218803FFF727F94FF4AA
:1022F0000070ADF8140018208DF8170003208DF839
:10230000160005A91C48FEF7D7FE4FF48060ADF813
:10231000140004208DF8170005A91748FEF7CCFE1D
:1023200001940020ADF80800ADF80A00ADF80C00EB
:102330000C20ADF80E000020ADF8100001A90F48E8
:10234000FFF728FF01210D48FFF76DFE012240F243
:1023500025510A48FFF7F9FE25208DF800000020DE
:102360008DF8010001208DF802008DF80300684609
:10237000FEF790FF06B010BD000801400038014094
:1023800070B504460D4629462046FFF774FF00BF8E
:1023900080212046FFF7A2FE0028F9D070BD000082
:1023A00010B586B0044601214804FFF7A7F80121C3
:1023B0000420FFF7C3F80420ADF8140003208DF8C3
:1023C000160018208DF8170005A91C48FEF774FEAA
:1023D0000820ADF8140004208DF8170005A917484F
:1023E000FEF76AFE26208DF8000000208DF801001F
:1023F00002208DF8020001208DF803006846FEF7E8
:1024000049FF01940020ADF80800ADF80A00ADF8CE
:102410000C00ADF810000C20ADF80E0001A9084822
:10242000FFF7B8FE012240F225510548FFF78DFE67
:1024300001210348FFF7F7FD06B010BD0008014079
:102440000044004010B586B0044601210820FFF783
:1024500075F801218804FFF751F82A48FFF7F0FDCD
:102460004FF48060ADF8100003208DF812001820A2
:102470008DF8130004A92448FEF71EFE4FF40060F7
:10248000ADF8100004208DF8130004A91E48FEF7D3
:1024900013FE00940020ADF80400ADF80600ADF87E
:1024A0000800ADF80C000C20ADF80A00694615488C
:1024B000FFF770FE01211348FFF7B5FD012240F23E
:1024C00025511048FFF741FE27208DF81400012008
:1024D0008DF8150000208DF8160001208DF81700EA
:1024E00005A8FEF7D7FE41F61F416320FFF7C2FBA8
:1024F00000200649088000210548FFF742FC06B08D
:1025000010BD000000480040000C014066000020A3
:102510000004004070B50025FEF722FD25E0FEF71F
:102520001FFD13A0FFF7DCFC0D211448FFF728FF67
:102530000A211248FFF724FFFA2000F0F1FD0024E1
:1025400010E00F48005D3A280AD10D49201D085CB3
:10255000312803D0201D085C352801D1012503E076
:10256000601CC4B2642CECDB00BF002DD7D070BD62
:1025700041542B435245473F0000000000380140C2
:102580005004002010B500240CE0224618A11B487E
:1025900000F036F91948FFF773FE642000F0C0FD23
:1025A000601CC4B2502CF0DBFFF7B4FFFFF7D2FA87
:1025B00050240CE022460EA1104800F021F90F48EB
:1025C000FFF75EFE642000F0ABFD601CC4B2642C1B
:1025D000F0DB0BA0FFF754FE04200C4948700020EC
:1025E0000B49087064210B48FDF703FE10BD000085
:1025F0006A302E76616C3D25640000001C010020CD
:1026000070616765204D61696E0000002B0000203D
:1026100072000020B404002000B589B0242168466F
:10262000FDF7E7FD8820ADF800006B480078ADF8B5
:10263000020069484078BDF8021040EA012080B2EB
:10264000ADF802006448007AADF804006248407AB0
:10265000BDF8041040EA012080B2ADF804005E48E5
:10266000007CADF806005C48407CBDF8061040EAEE
:10267000012080B2ADF806005748007EADF8080092
:102680005548407EBDF8081040EA012080B2ADF800
:10269000080051488078ADF80A004F48C078BDF86E
:1026A0000A1040EA012080B2ADF80A004A480079D9
:1026B000ADF80C0048484079BDF80C1040EA012004
:1026C00080B2ADF80C0044488079ADF80E00424865
:1026D000C079BDF80E1040EA012080B2ADF80E00BE
:1026E0003D48807AADF810003B48C07ABDF8101024
:1026F00040EA012080B2ADF810003748007BADF809
:1027000012003548407BBDF8121040EA012080B22B
:10271000ADF812003048807BADF814002E48C07B25
:10272000BDF8141040EA012080B2ADF814002A4828
:10273000807CADF816002848C07CBDF8161040EA31
:10274000012080B2ADF816002348007DADF81800D6
:102750002148407DBDF8181040EA012080B2ADF854
:1027600018001D48807DADF81A001B48C07DBDF8DB
:102770001A1040EA012080B2ADF81A001648807E97
:10278000ADF81C001448C07EBDF81C1040EA0120C2
:1027900080B2ADF81C001048007FADF81E000E4856
:1027A000407FBDF81E1040EA012080B2ADF81E0047
:1027B0000948807FADF820000748C07FBDF8201091
:1027C00040EA012080B2ADF820001122694603489A
:1027D000FFF70EF809B000BD2F000020007F0008B1
:1027E0000FB4054B10B503A9044A029800F0EEF8A7
:1027F00010BC5DF814FB00006D31000818010020CA
:102800000FB4084B10B504A902AA039800F0DEF833
:10281000044602A9002000F05CFC204610BC5DF8D4
:1028200014FB0000D330000802E008C8121F08C1E2
:10283000002AFAD170477047002001E001C1121F41
:10284000002AFBD1704700002DE9FF5F82B0002114
:10285000DDE90430020DDDF840B0034318D044F642
:102860001050A2F2FF3242431514119801281FD0D4
:10287000A5EB0B00401C5FEA000A4FF000064E4F2C
:10288000DFF83891B046504615D5CAF1000413E080
:10289000119801244AA3012801D16FEA0B01029883
:1028A000119AC0E90031C0E9024206B0BDE8F09FCC
:1028B000CBF10000DFE704460021404A491842EB13
:1028C0000450CDE9001012E0E00707D032463B4645
:1028D00040464946FDF7B9FD8046894632463B46AB
:1028E00010461946FDF7B1FD06460F466410002C50
:1028F000EAD1DDE90401DDE90023BAF1000F06DACF
:10290000FDF7A3FD42464B46FDF79FFD05E0FDF7B1
:102910000EFE42464B46FDF70AFE04460E460022D6
:10292000284BFDF78BFE03D84FF0FF30014607E040
:102930000022254B20463146FDF7E0FCFDF766FE00
:10294000102409E0002C0ADB0A220023FDF7A5FC75
:10295000039B30321A55641E50EA0102F2D1641C06
:10296000039AC4F111031444119A012A03D00122DD
:1029700008430DD10AE0084304D000204FF0110BAA
:10298000119072E7A3EB0B056D1E0DE05B4504DDB6
:102990004FF0000205F1010504E003DA4FF00002F8
:1029A000A5F10105002AECD002981199C0E9023185
:1029B000C0E9004579E70000000014400000F03F46
:1029C000300000000000F0430000E03F2DE9FF4F21
:1029D00095B09A46884606460025EEE1252877D12F
:1029E00000242746F94A0121039400E0044316F825
:1029F000013F203B01FA03F01042F7D130782A283A
:102A000011D06FF02F033078A0F13002092A16D8C8
:102A1000039A44F0020402EB820203EB42021044E8
:102A2000761C0390EFE758F8042B0392002A03DA90
:102A3000504244F40054039044F00204761C307871
:102A40002E2816D116F8010F44F004042A280DD0C0
:102A50006FF02F023078A0F13003092B09D807EB73
:102A6000870302EB4303C718761CF3E758F8047B8F
:102A7000761C30786C280FD006DC4C2817D06828DC
:102A80000DD06A2814D104E0742810D07A280FD110
:102A90000DE044F400140AE044F4801401E044F42E
:102AA00040147278824202D104F58014761C761CA0
:102AB000307866280BD013DC582877D009DC002842
:102AC00075D04528F6D04628F4D047281AD193E18E
:102AD00018E0632835D0642879D0652812D18BE1BD
:102AE000702873D008DC6728F1D069286FD06E2871
:102AF0000DD06F2806D1ACE073282CD0752874D087
:102B0000782853D05246179990476D1C54E1C4F36E
:102B10000250022809D003280DD0D8F8001004284C
:102B20000DD00D6008F1040846E1D8F80010EA174E
:102B3000C1E90052F6E7D8F800100D80F2E70D70F9
:102B4000F0E718F8041B8DF8001000208DF8010044
:102B5000EB46012003E058F804BB4FF0FF3061075B
:102B60004FF0000102D40DE009F101018946B9429C
:102B70000FDA8145F8DB1BF809100029F4D108E0D1
:102B800009F1010189468142FADB1BF8091000298D
:102B9000F6D103985346A0EB090721463846179A09
:102BA00000F080FA284400EB090507E044E008E162
:102BB0000DE01BF8010B524617999047B9F1010936
:102BC000F7D2534621463846179AF2E039E00A21F7
:102BD000C4F302524FF0000B0091022A06D058F8BD
:102BE000040BC117032A09D00AE023E008F107000B
:102BF00020F00702F2E80201904605E000B2C1179A
:102C0000042A01D140B2C117002906DA0A46002180
:102C1000404261EB02012D2202E0220504D52B2265
:102C20008DF80420012203E0E20701D02022F7E71B
:102C3000914657E00A2100E010214FF0000B00916F
:102C40000BE010214FF0000B44F004040827009122
:102C500003E008204FF0000B0090C4F30252022A58
:102C600005D058F8040B0021032A08D008E008F129
:102C7000070020F00702F2E80201904603E080B26C
:102C8000042A00D1C0B24FF0000922072AD53278B9
:102C9000702A07D0DDF800C08CF0100C5CEA0B0C39
:102CA00005D00EE040228DF80420012208E050EA11
:102CB000010306D030238DF804308DF80520022260
:102CC0009146009B83F0080353EA0B030AD150EAB4
:102CD000010201D1620705D530228DF804204FF0A2
:102CE00001097F1E3278582A04D039A20C920CAA0E
:102CF00002920BE03BA2F9E75B46009AFDF7CDFAA2
:102D00000C9B9B5C029A521E0292137050EA0102C5
:102D1000F2D1029804A9081A00F1200B600702D52D
:102D200024F4803400E001275F4502DDA7EB0B00AF
:102D300000E0002000EB0B01009003984944401A8A
:102D40000390E00306D453462146179A039800F0F7
:102D5000A9F90544002706E001A85246C05D17996D
:102D600090476D1C7F1C4F45F6DBE0030CD55346A6
:102D70002146179A039800F095F9054404E03020A5
:102D80005246179990476D1C0099481E00900029E3
:102D9000F5DC08E00298029952460078491C02913D
:102DA000179990476D1CBBF10001ABF1010BF1DCF1
:102DB0005BE100F065F90544761C307800287FF46B
:102DC0000DAE19B02846BDE8F08F000009280100BB
:102DD0003031323334353637383961626364656691
:102DE0000000000030313233343536373839414253
:102DF0004344454600000000600700D4062708F160
:102E0000070020F00700F0E80223804603F0004CA2
:102E10005FEA0C0001D097A009E0200501D596A03B
:102E200005E0E00701D095A001E0AFF24C0013905F
:102E3000307823F0004365280CD006DC452809D003
:102E400046281DD047287FD13BE0662818D0672848
:102E50007AD136E00021112F01DB112000E0781C2F
:102E6000CDE9000104A90CA8FFF7EEFCDDE90D0196
:102E70000C9A4FF0000B07F10109109200914EE0FF
:102E80004FF000400097CDE9011004A90CA8FFF70E
:102E9000DBFCDDE90D020C9B0F994FF0000B914616
:102EA0001093009211B9791C00EB0109B7EB0900EE
:102EB00003D4C0F1FF3B07F10109A9EB0700019022
:102EC00042E0012F00DA01270021112F01DD11203E
:102ED00000E03846CDE9000104A90CA8FFF7B4FCD6
:102EE000DDE90D010C9A00914FF0000BB9461092EC
:102EF00021070FD4009A4A4503DA914601E0A9F16F
:102F00000109B9F1010F05DD109AA9F10101515C28
:102F10003029F4D0B84202DA10F1040F03DA0121AB
:102F2000CDE9011010E0002803DC8344A9EB000187
:102F300002E0411C494500DD8946A0EB0B00401C26
:102F400001904FF000400290200705D401984845B9
:102F500002DB4FF0FF30019000208DF84B0002980B
:102F60000DF14B07B0F1004F25D002200C902B2023
:102F70000D90029800280CDA404202902D200D900E
:102F800007E00A210298FDF772F93031029007F844
:102F9000011D0C99481E0C900029F2DC02980028B3
:102FA000EFD1791E0D980870307800F0200040F0C5
:102FB000450007F8020D11A8C01BC01D0290139810
:102FC000007800B1012000EB0901019801EBE071EC
:102FD000029801440398401A401E0390E00306D46F
:102FE00053462146179A039800F05CF8054413985D
:102FF000007818B15246179990476D1CE00323D50D
:1030000053462146179A039800F04CF805441BE0FC
:10301000BBF1000F07DB0098584504DD10981799A5
:1030200010F80B0001E017993020524690470198A4
:103030000BF1010B401E05F10105019004D12E207A
:103040005246179990476D1CB9F10001A9F1010989
:10305000DEDC05E017F8010B5246179990476D1C0E
:103060000299481E02900029F4DC53462146179A23
:1030700003989EE62D0000002B00000020000000B9
:103080002DE9F041044600251E461746880404D465
:1030900005E039462020B0476D1C641EF9D528464E
:1030A000BDE8F0812DE9F041044600251E4690461A
:1030B000C80301D5302700E02027880404D505E0A7
:1030C00041463846B0476D1C641EF9D52846BDE818
:1030D000F0810A68531C0B601070704710B56FF0D8
:1030E0000400FEF761FD0A4800680A49B0FBF1F0F0
:1030F000094908700846007800EB4001C1EBC01098
:103100004FF6FF7101EAC0000449088010BD0000BD
:103110001400002000127A006200002064000020E9
:103120000146114A12884A434FF0E0235A610022B7
:103130009A611A46126942F001021A6100BF4FF00B
:10314000E022106900F001021AB100F48032002A76
:10315000F5D04FF0E022126922F001024FF0E02397
:103160001A6100229A6170476400002070B504461D
:103170000D46E1B20548FFF77EF800BF8021034805
:10318000FEF7ACFF0028F9D0204670BD00380140A2
:10319000FDF7CCFE17E00121002000F0BFF9012867
:1031A00001D1FDF7FBFB0521012000F0B7F9012853
:1031B00001D1FDF7FBFA0A21012000F0AFF9012847
:1031C00001D1FDF7DBFBE6E738B5FEF7C8F80446AA
:1031D000002C79D10120FEF79FF80446002C7AD10B
:1031E0006B46632200210120FEF7D6F80446002C2E
:1031F00071D1BDF80000012802D0022865D12FE06E
:1032000035A0FFF73DF839480078012803D138A0F0
:10321000FFF736F802E03AA0FFF732F83348007AB9
:10322000012803D13AA0FFF72BF802E03CA0FFF7FA
:1032300027F82E48007C012803D13DA0FFF720F895
:1032400002E03FA0FFF71CF82848007E012803D1C8
:103250003FA0FFF715F802E041A0FFF711F835E0B5
:1032600043A0FFF70DF82148427846A14848FFF7F0
:10327000C7FA4748FFF704F80A20FFF751FF1B4839
:10328000427A44A14248FFF7BBFA4148FEF7F8FFF3
:103290000A20FFF745FF1548427C41A13C48FFF753
:1032A000AFFA3B48FEF7ECFF0A20FFF739FF0F4863
:1032B000427E3EA13648FFF7A3FA3548FEF7E0FF0D
:1032C0000A20FFF72DFF01E005E000BF00BF42F23A
:1032D0001070FFF725FF38BD70616765204B4459BA
:1032E0005F496E7465726661636500002F0000209F
:1032F00074322E7478743D22D2D1D3C322000000E0
:1033000074322E7478743D22CEB4D3C322000000F0
:1033100074332E7478743D22D2D1D3C322000000BE
:1033200074332E7478743D22CEB4D3C322000000CF
:1033300074342E7478743D22D2D1D3C3220000009D
:1033400074342E7478743D22CEB4D3C322000000AE
:1033500074352E7478743D22D2D1D3C3220000007C
:1033600074352E7478743D22CEB4D3C3220000008D
:10337000706167652041646D696E496E746572663F
:103380006163650074342E7478743D2225642200D4
:103390001C01002074352E7478743D2225642200AF
:1033A00074372E7478743D222564220074392E748B
:1033B00078743D22256422000A490968096809B920
:1033C000012100E0002121B14FF0FF31064A1160D8
:1033D00006E004490968C968C868034A4168116081
:1033E00070470000E00000200C01002070B5054689
:1033F00000240CE000BF40210848FEF76FFE0128C2
:10340000F9D1295D0548FEF736FF601C84B2285DBE
:103410000028EFD1601C84B270BD00000044004061
:1034200001460A69D1E901309860D1E90103586089
:103430005068884201D18868506000200861106897
:10344000401E10601068704742684A6093688B6045
:10345000936859609160086103685B1C0360704762
:1034600010B51B48006818B101201A4908602DE00A
:1034700000201849086018480068B0FA80F0C0F1D0
:103480001F0404EB8400154951F8200008B1012005
:1034900000E0002028B940F6F62211A11AA0FFF79B
:1034A0009FF904EB84010D4A02EB810041684968F1
:1034B000416000F1080142688A4202D141684968CE
:1034C00041604168C968144A116000BF10BD000026
:1034D0001401002000010020F40000201809002041
:1034E0002E2E5C2E2E5C322ECAB9D3C34672656571
:1034F00052544F535C52544F535C7372635C74610B
:10350000736B732E630000004572726F723A2573FD
:103510002C25640D0A000000DC000020024600207B
:10352000034B9B5C13B9024B995401207047000078
:103530002800002010B500BF502080F31188BFF391
:103540004F8FBFF36F8F00BF00F01EF818B14FF020
:1035500080500449086000BF002080F3118800BF3C
:1035600010BD000004ED00E00549096809B901201B
:1035700005E00449096809B9022000E0002070470D
:10358000F8000020140100202DE9F0414FF0000860
:1035900042480068002873D141480068451C4048F3
:1035A0000560002D1DD13F480068006808B9012062
:1035B00000E0002028B940F6D9123BA144A0FFF753
:1035C0000FF938480768464800683649086044489B
:1035D000076044480068401C42490860FFF7ECFE61
:1035E00000BF4148006885423CD300BF2D480068B9
:1035F000006808B9012000E0002020B14FF0FF3042
:10360000394908602DE027480068C068C4686668CA
:10361000B54202D23448066023E0201DFFF700FFC8
:10362000A06A18B104F11800FFF7FAFE94F82C1004
:10363000012088402D49096808432C490860E16A47
:1036400001EB81012A4A02EB8100211DFFF7FCFEFC
:103650002849E06A0968C96A8842C7D34FF001085F
:10366000C4E700BF23480068C06A00EB800020491F
:1036700051F82000012801D94FF0010805E0FFE7CB
:103680001D480068401C1C4908601C48006808B1BF
:103690004FF001084046BDE8F08100001401002011
:1036A000F0000020E00000202E2E5C2E2E5C322E3A
:1036B000CAB9D3C34672656552544F535C52544FD6
:1036C000535C7372635C7461736B732E63000000F0
:1036D0004572726F723A25732C25640D0A00000042
:1036E000E4000020040100200C010020F400002070
:1036F00018090020DC000020FC0000200001002050
:1037000041542B434D47533D000000000000000092
:1037100000000000000000000000000000000000A9
:103720000000000000000000000000000000000099
:1037300000000000596F757220636F7572696572C1
:1037400020686173206E6F74206265656E207069F9
:10375000636B656420757020666F72206D6F726593
:10376000207468616E20323420686F7572732C206B
:10377000706C65617365207069636B206974207576
:103780007020617320736F6F6E20617320706F7390
:103790007369626C65000000B83700080000002003
:1037A0001C01000028280008D43800081C01002053
:1037B000A40D0000382800080000000001020304E6
:1037C00001020304060708090204060800A24A04CD
:1037D00000000000000000000102030406070809C1
:1037E00000000000000000000036353433323100A4
:1037F000003635343332310000363534333231005F
:103800000036353433323130303030303000000063
:1038100000000000000000000000000000000000A8
:10382000FFFFFFFF00000000000000313539383392
:103830003637343735300031353938333637343769
:10384000353000313539383336373437353000319B
:10385000353938333637343735300063652073688F
:1038600069000000000000000000000000000000EF
:103870000000000000000000000000000000000048
:103880000000000000000000000000000000000038
:103890000000000000000000000000000000000028
:1038A0000000000000000000000000000000000018
:1038B0000000000000000000000000000000000008
:1038C00000000000000000000000000000000000F8
:0438D00000000000F4
:04000005080000ED02
:00000001FF
