:020000040800F2
:10000000903B00209D010008F90D0008E70C000856
:10001000910D0008810B0008F12600080000000087
:1000200000000000000000000000000005010008C2
:10003000A90B000800000000490100089514000801
:10004000B7010008B7010008B7010008B7010008B0
:10005000B7010008B7010008B7010008B7010008A0
:10006000B7010008B7010008B7010008B701000890
:10007000B7010008B7010008B7010008B701000880
:10008000B7010008B7010008B7010008B701000870
:10009000B7010008B7010008B7010008B701000860
:1000A000B7010008B7010008B7010008B701000850
:1000B000B701000805150008B7010008B7010008DE
:1000C000B7010008B7010008B7010008B701000830
:1000D000B70100082923000875230008B52300088C
:1000E000B7010008B7010008B7010008DFF810D019
:1000F00000F0BCFA0048004751330008AFF300801D
:10010000903B0020224B19680868B0E8F00F80F39C
:100110000988BFF36F8F4FF0000080F311884EF015
:100120000D0E70470000000006480068006880F36C
:10013000088862B661B6BFF34F8FBFF36F8F00DFE1
:1001400000BF00BF08ED00E0EFF30980BFF36F8F41
:100150000F4B1A6820E9F00F106008B54FF05000FF
:1001600080F31188BFF34F8FBFF36F8F04F0E2FA73
:100170004FF0000080F31188BDE808401968086856
:10018000B0E8F00F80F30988BFF36F8F704700BFAE
:10019000F0000020EFF3058070470000064880471C
:1001A00006480047FEE7FEE7FEE7FEE7FEE7FEE75C
:1001B000FEE7FEE7FEE7FEE7A5140008ED000008F5
:1001C00040EA01039B0703D009E008C9121F08C0D9
:1001D000042AFAD203E011F8013B00F8013B521E59
:1001E000F9D27047D2B201E000F8012B491EFBD2D0
:1001F00070470022F6E710B513460A460446194632
:10020000FFF7F0FF204610BD421E12F8013F002B01
:10021000FBD111F8013B02F8013B002BF9D17047EB
:1002200030B505462A460B4612F8010B13F8014B70
:1002300008B1A042F8D01CB1002802D06D1CF1E733
:10024000284630BD10B5044604E00B7800F8013BA9
:1002500003B1491C521EF8D2204610BD034611F8C6
:10026000012B00F8012B002AF9D11846704730B550
:100270000B46014600202022012409E021FA02F564
:100280009D4205D303FA02F5491B04FA02F52844FE
:10029000151EA2F10102F1DC30BD2DE9F05F05462B
:1002A000002092469B4688460646814640241BE035
:1002B000284641464746224600F0F9F953465A4639
:1002C000C01A914110D311461846224600F0E0F9B9
:1002D0002D1A67EB01084F4622460120002100F04D
:1002E000D7F917EB00094E41201EA4F10104DFDC11
:1002F000484631462A464346BDE8F09F2DE9FE4F69
:10030000804681EA0300C00F0C46009021F00041B6
:1003100023F00045B8EB0200A94105D24046214632
:1003200090461C460B46024623F00040104347D03F
:10033000270DC7F30A00C3F30A510290401A019037
:1003400040286BDAC3F3130040F4801B00989246F8
:1003500020B10023D2EB030A63EB0B0B0198594643
:10036000C0F14002504600F093F906460D46504653
:100370005946019A00F0ABF910EB080061410024E6
:1003800087EA115284EAE7731A4340D0009A62B3B5
:10039000019A012A4FEA075215DC001B61EB0201AA
:1003A0004FF0004202EA0752CDE90042001C41F53D
:1003B000801132462B4600F0ABF903B0BDE8F08F58
:1003C00040462146F9E7001B61EB0201001C41F5A4
:1003D000801300185B412018A2F5001747EB0301BA
:1003E00040EAD570B6196D4111E06D084FEA360646
:1003F00045EAC0754FEA0752001B61EB0201001C81
:1004000041F5801149084FEA300000195141324648
:100410002B4603B0BDE8F04F00F06BB90098012205
:1004200040000023D0EB020263EBE073009821460A
:100430004FEAE074B8EB000061EB0401E9E783F0F8
:1004400000435BE781F0004158E72DE9FE4F81EA68
:10045000030404F0004421F0004100944FF0000B2D
:1004600023F0004350EA01045ED052EA03045BD05B
:10047000C3F30A54C1F30A552C44A4F2F334019493
:10048000A0FB0254C1F3130141F48011C3F3130321
:1004900043F4801301FB024400FB034E840A970AD5
:1004A00044EA815447EA8357A4FB076802958D0A02
:1004B00005FB07854FEA932C04FB0C542705029D8E
:1004C0004FEA065847EA1637B5EB08056EEB070CFE
:1004D000870E920E47EA811742EA8312A7FB0201B8
:1004E000B6EB0B0164EB00042B0D43EA0C335E18F2
:1004F00044EB1C50DA465146E7FB0201C5F31304F6
:100500004FEA0B3343EA14534FEA0432019C43EAA7
:100510000603A4F10C040294009CCDE900B400F0A1
:10052000F7F803B0BDE8F08F00200146F9E72DE9A8
:10053000F04D81EA030404F0004B21F0004514461D
:100540004FF0000A23F0004150EA050220D054EA9F
:1005500001021DD0C5F30A570246C5F31303C1F3C8
:100560001300C1F30A5640F4801543F48013A7EB3F
:100570000608101BD64608F2FD3873EB050002D3BF
:1005800008F1010801E092185B41B8F1000F03DAAD
:1005900000200146BDE8F08D00204FF48011064692
:1005A00084460EE0171B73EB050705D3121B63EBA4
:1005B000050306434CEA010C49084FEA3000921843
:1005C0005B4150EA0107EDD152EA030012D082EA02
:1005D000040083EA0501084305D0101BAB4106D295
:1005E0000122002306E000224FF0004302E06FF0FA
:1005F000010253101AEB06004CEB085110EB0A00F5
:1006000041EB0B01BDE8F04D00F073B8C1F30A52A5
:10061000C1F3130140F2FF3341F480119A4202DA30
:1006200000200146704740F233439A42A2F233421F
:1006300002DC524200F03BB800F02AB830B5041E8C
:1006400071F1000404DB4FF00044404264EB01010F
:10065000141E73F1000405DB1C464FF000435242A8
:1006600063EB0403994208BF904230BD064C074D2E
:1006700006E0E06840F0010394E807009847103472
:10068000AC42F6D3FFF736FDA4590008C459000860
:10069000202A04DB203A00FA02F100207047914042
:1006A000C2F1200320FA03F3194390407047202A37
:1006B00004DB203A21FA02F00021704721FA02F30C
:1006C000D040C2F120029140084319467047202AC9
:1006D00006DBCB17203A41FA02F043EAE07306E06A
:1006E00041FA02F3D040C2F120029140084319467A
:1006F000704710B5141E73F1000408DA401C41F174
:10070000000192185B411A4301D120F0010010BD95
:100710002DE9F04D92469B4611B1B1FA81F202E00B
:10072000B0FA80F220329046FFF7B2FF04460F463F
:1007300040EA0A0041EA0B0153465A46084313D0E7
:10074000114653EA010019D0C8F140025046FFF7A4
:10075000AEFF05460E46504659464246FFF798FF03
:10076000084305D0012004E020463946BDE8F08D5D
:100770000020054346EAE0762C4337430A98630598
:10078000E40AA0EB08000022FD0A44EA47540A30BC
:1007900002D500200146E9E7010510196941DDE9AC
:1007A000084500196941BDE8F04DA2E770B58C1805
:1007B00010F8015B15F0070301D110F8013B2A1175
:1007C00006D110F8012B03E010F8016B01F8016B62
:1007D0005B1EF9D12B0705D40023521E0DD401F85E
:1007E000013BFAE710F8013BCB1A921C03E013F827
:1007F000015B01F8015B521EF9D5A142D8D300205C
:1008000070BD000000254EE0052D47D2DFE805F061
:10081000030E1924320000F05CFB04462CB90120C1
:1008200000F034FB044604B9012537E000F051FB29
:1008300004462CB9022000F029FB044604B9022525
:100840002CE000F0ABFB04460CB9032500E00025CA
:10085000642003F08FFD21E0642003F08BFD00F0A5
:10086000BAFB04460CB9042500E00025C82003F0BB
:1008700081FD13E00221084600F0CAFB044634B9AA
:1008800009A001F00BFF0CA001F008FF06E006A094
:1008900001F004FF0DA001F001FF00BF00BF002523
:1008A000C82003F067FDAFE770616765204C525FB9
:1008B000535543434553530074302E7478743D228E
:1008C000C2BCC8EBB3C9B9A6A3A1220074302E7470
:1008D00078743D22CCEDBCD3CAA7B0DCA3ACD2D196
:1008E000D3D0D6B8CEC6A3A12200000000254EE08A
:1008F000052D47D2DFE805F0030E1924320000F081
:10090000E8FA04462CB9012000F0C0FA044604B904
:10091000012537E000F0DDFA04462CB9022000F092
:10092000B5FA044604B902252CE000F037FB044672
:100930000CB9032500E00025642003F01BFD21E035
:10094000642003F017FD00F046FB04460CB90425B3
:1009500000E00025C82003F00DFD13E00121022076
:1009600000F056FB044634B909A001F097FE0CA034
:1009700001F094FE06E006A001F090FE0DA001F04B
:100980008DFE00BF00BF0025C82003F0F3FCAFE7D9
:1009900070616765204C525F535543434553530084
:1009A00074302E7478743D22C2BCC8EBB3C9B9A6AA
:1009B000A3A1220074302E7478743D22CCEDBCD3F8
:1009C000CAA7B0DCA3ACD2D1D3D0D6B8CEC6A3A12F
:1009D000220000001CB5044603F068FB032200213E
:1009E000012004F0CDF83549086000220B210120D8
:1009F00004F0C6F83249086000220121084604F0DC
:100A0000BFF83049086000220121084604F0B8F818
:100A10002D49086000220121084604F0B1F82B4955
:100A2000086000220121084604F0AAF8284908605D
:100A300000220621012004F0A3F8264908600022C4
:100A40000421012004F09CF82349086003F000FF12
:100A50002249086003F0FCFE214908602148032177
:100A600000234FF40072CDE900101FA1244804F0C8
:100A700091FB2448022100234A02CDE9001022A163
:100A8000264804F087FB2648012100238A02CDE98D
:100A9000001024A1284804F07DFB284801210023F0
:100AA0008A02CDE9001026A12A4804F073FB2A48E7
:100AB000006803F099FC03F039FB1CBD40000020E6
:100AC0005800002044000020480000204C00002076
:100AD00050000020540000205C0000206000002036
:100AE000640000203400002057616974696E675FFC
:100AF0004E6574776F726B437265617465000000B8
:100B0000692200082C0000205573617274536372CF
:100B100065656E437265617465000000511C0008D4
:100B20003000002046696E6765727072696E4372AC
:100B3000656174650000000095160008380000200B
:100B40004D6573736167655461736B43726561745E
:100B500065000000791900082800002010B500F099
:100B60004CF902F09BFB4FF4165001F0C3FD4FF41B
:100B7000E13001F023FE4FF4614001F071FE10BD41
:100B800000BFFEE7002004E00021054A1154411C8B
:100B900088B26428F8DB0021024A11707047000017
:100BA000A7040020E90000207047000010B50446AB
:100BB00021460448FFF734FB08B1012010BD002096
:100BC000FCE70000A70400202DE9F04102460025C3
:100BD0000026002000230024002791F803C00CF019
:100BE0000F0591F803C00CF0100CBCF1000F03D0FE
:100BF00091F802C04CEA050591F800C0BCF1000F65
:100C000031D0146800202BE04FF0010C0CFA00F3F7
:100C1000B1F800C00CEA03069E4220D183004FF0D9
:100C20000F0C0CFA03F7BC4305FA03FC4CEA04046E
:100C300091F803C0BCF1280F06D14FF0010C0CFA5B
:100C400000FCC2F814C00AE091F803C0BCF1480FE0
:100C500005D14FF0010C0CFA00FCC2F810C0401C8A
:100C60000828D1D31460B1F800C0BCF1FF0F34DD07
:100C7000546800202EE000F1080C4FF0010808FA3B
:100C80000CF3B1F800C00CEA03069E4221D18300A8
:100C90004FF00F0C0CFA03F7BC4305FA03FC4CEAC7
:100CA000040491F803C0BCF1280F05D100F1080C31
:100CB00008FA0CF8C2F8148091F803C0BCF1480F90
:100CC00007D100F1080C4FF0010808FA0CF8C2F83F
:100CD0001080401C0828CED35460BDE8F0814161EB
:100CE00070470161704700BFFEE700007CB5054614
:100CF000EF208DF8000001208DF801001A480068EF
:100D0000000E8DF8020018480068000C8DF80300F2
:100D100015480088000A8DF80400134800788DF803
:100D2000050007208DF8060000208DF807000F4908
:100D3000088012E0012002F0D3FA0C48008800F489
:100D4000004050B100200949088069460848FFF773
:100D500067FA04460CB120467CBD681E80B2051EB1
:100D6000E8D100BFF8E70000AC000020AA00002096
:100D70008701002000BF0549098801F040010029D2
:100D8000F9D00249091D0880704700000048004062
:100D900000BFFEE738B505460124002003460246A1
:100DA0000F2100901048006803F0D4FD0446012C88
:100DB00015D10E480078401CC0B20C4908703C2880
:100DC00010DB002008700A480078401C08490870B1
:100DD00000231A460748006804F03AF802E00020B1
:100DE0000249087038BD000060000020A300002008
:100DF000A40000205C000020704710B54FF4A060F4
:100E000000F03AF810BD000070B5002100230F2259
:100E1000C47804B3154C246804F4E064C4F5E064B9
:100E2000210AC1F10403CA40447804FA03F184782A
:100E30001440214309010E4C0678A155047804F0B2
:100E40001F050124AC4005786D11AD0005F1E025CA
:100E5000C5F8004109E0047804F01F050124AC4006
:100E6000044D0678761145F8264070BD0CED00E083
:100E700000E400E080E100E002490143024A116021
:100E8000704700000000FA050CED00E02DE9F0418C
:100E9000054600F0FEF900F0D3F9012000F0F3F967
:100EA000042000F0FEF9022000F03CFA2846FFF78B
:100EB00061FFEF1D384600F0DDF94FF4FA60FFF7EF
:100EC00015FF06460EB1747A00E0FF242046BDE807
:100ED000F08170B500F0DDF900F0B2F9012000F00A
:100EE000D2F9032000F0DDF9012000F01BFA0526FD
:100EF000304600F0BFF94FF4FA60FFF7F7FE054601
:100F00000DB16C7A00E0FF24204670BD2DE9F0475A
:100F100081460D4616461F4600F0BBF900F090F9D9
:100F2000012000F0B0F9082000F0BBF91B2000F010
:100F3000F9F94846FFF71EFF2812FFF71BFFE8B23A
:100F4000FFF718FF3012FFF715FFF0B2FFF712FF9F
:100F500009F1240000EB2520E9B2084400EB26202B
:100F6000F1B200EB010A504600F084F94FF4FA6048
:100F7000FFF7BCFE044664B194F80980E07AA17AD8
:100F800000EB01203880607B217B00EB0120788022
:100F900001E04FF0FF084046BDE8F08770B500F073
:100FA00078F900F04DF9012000F06DF9032000F010
:100FB00078F9032000F0B6F90726304600F05AF918
:100FC0004FF4FA60FFF792FE05460DB16C7A00E02F
:100FD000FF24204670BD70B500F05BF900F030F9D9
:100FE000012000F050F9032000F05BF9052000F02B
:100FF00099F90926304600F03DF94FF4FA60FFF701
:1010000075FE05460DB16C7A00E0FF24204670BDE8
:101010002DE9F04106460C4600F03BF900F010F9CE
:10102000012000F030F9062000F03BF9062000F026
:1010300079F93046FFF79EFE2012FFF79BFEE0B2E3
:10104000FFF798FE06F10D0000EB2420E1B200EB63
:101050000108404600F00EF94FF4FA60FFF746FE33
:1010600007460FB17D7A00E0FF252846BDE8F081F4
:1010700029B1064AD2690243044BDA6104E0034A0B
:10108000D2698243014BDA617047000000100240D0
:1010900029B1064A12690243044B1A6104E0034A6B
:1010A00012698243014B1A61704700000010024030
:1010B00029B1064A92690243044B9A6104E0034A4B
:1010C00092698243014B9A61704700000010024010
:1010D00029B1064AD2680243044BDA6004E0034AAD
:1010E000D2688243014BDA60704700000010024072
:1010F00030B500210022002400232D4D6D6805F03D
:101100000C0121B1042905D0082923D105E0294D7E
:10111000056022E0274D05601FE0254D6D6805F450
:101120007012234D6D6805F48034022505EB924260
:101130001CB9214D554305600BE01D4D6D6805F44C
:1011400000351DB11C4D5543056002E0194D554356
:10115000056002E0174D056000BF00BF144D6D68CB
:1011600005F0F0010909154D6B5C0568DD4045602F
:101170000F4D6D6805F4E061090A104D6B5C456820
:10118000DD4085600A4D6D6805F46051C90A0B4D5C
:101190006B5C4568DD40C560054D6D6805F44041F8
:1011A000890B074D6B5CC568B5FBF3F5056130BD78
:1011B0000010024000127A0000093D0000000020EB
:1011C000100000202DE9F04104460D461646A046C9
:1011D000FFF7D8FC002725E02846FFF7E7FCE8B931
:1011E00013480078F0B9444604E02178114801F032
:1011F000D5FA641C20780028F7D10D210D4801F0A4
:10120000CDFA0A210B4801F0C9FA00200A490870FA
:101210000A48067001200649087003E001270020F3
:1012200003490870002FD7D0FFF7ACFCBDE8F08170
:10123000EA00002000380140EB000020EC00002014
:1012400010B50B490968080EFFF794FD08480068BF
:10125000C0F30740FFF78EFD05480088C0F3072064
:10126000FFF788FD02490878FFF784FD10BD0000F4
:10127000AC00002010B504462012FFF77BFDE0B261
:10128000FFF778FD10BD10B504462046FFF772FD4C
:1012900010BD10B5EF20FFF76DFD0120FFF76AFDCF
:1012A00010BD10B50446C4F30720FFF763FDE0B29C
:1012B000FFF760FD10BD000030B591B00546002479
:1012C000342214496846FEF77BFF22208DF8340053
:1012D00000BF04E0295D0DAA601C1154C4B20B2CA0
:1012E000F8DB22208DF8400000208DF841000DA988
:1012F0006846FEF789FF032207A16846FFF762FFF1
:10130000064800F0FBFF1A21054801F047FA11B02A
:1013100030BD00000C5900083E000000B70000205E
:101320000038014010B504462046FFF723FD10BDEC
:1013300010B500F001F810BD0CB500200190009030
:101340003348006840F480303149086000BF3048BD
:10135000006800F4003000900198401C0190009853
:1013600018B90198B0F5A06FF1D12948006800F4D0
:10137000003010B10120009001E0002000900098A2
:10138000012843D12348006840F01000214908603B
:101390000846006820F0030008600846006840F036
:1013A000020008601A4840681949486008464068C9
:1013B00048600846406840F48060486008464068DD
:1013C00020F47C1048600846406840F4E81048600B
:1013D0000846006840F08070086000BF0C48006854
:1013E00000F000700028F9D00948406820F00300A0
:1013F000074948600846406840F00200486000BF66
:101400000348406800F00C000828F9D10CBD00002A
:10141000001002400020024010B5032207A108A0DE
:10142000FFF7D0FE032205A107A0FFF7CBFE0322A2
:1014300002A108A0FFF7C6FE10BD00004F4B000040
:10144000415445300000000041542B434D47463D78
:101450003100000041542B43504D533D22534D2247
:101460002C22534D222C22534D220000042808D157
:101470004FF0E021096941F004014FF0E0221161D1
:1014800007E04FF0E021096921F004014FF0E0226C
:101490001161704710B503F037FF012801D003F048
:1014A00055FB10BD10B51348006840F0010011490C
:1014B000086008464068104908400E4948600846E0
:1014C00000680E4908400B4908600846006820F48F
:1014D000802008600846406820F4FE0048604FF411
:1014E0001F008860FFF724FF4FF000600449086088
:1014F00010BD0000001002400000FFF8FFFFF6FEE4
:1015000008ED00E010B50121094800F054F868B179
:101510000848008840F4004006490880012104483A
:1015200000F03AF80021024800F039F810BD000040
:1015300000040040AA0000207FB505460C460121AA
:101540000220FFF795FDADF80450ADF800400020F3
:10155000ADF80600ADF8020069460E4800F048F804
:10156000012211460B4800F037F80121094800F02C
:1015700016F81D208DF80C0000208DF80D000320BA
:101580008DF80E0001208DF80F0003A8FFF73CFC3A
:101590007FBD000000040040CA430282704721B1B1
:1015A000028842F00102028004E002884FF6FE73D6
:1015B0001A400280704730B5024600200023002404
:1015C000158A05EA0103958905EA010413B10CB1F6
:1015D000012000E0002030BD1AB183890B438381D4
:1015E00002E083898B4383817047818470470000C8
:1015F000002202881D4B98420ED01D4B98420BD002
:10160000B0F1804F08D01B4B984205D01A4B98423E
:1016100002D01A4B984204D14FF68F731A404B8870
:101620001A43174B984207D0164B984204D04FF6F6
:10163000FF431A40CB881A4302808B8883850B882E
:1016400003850A4B98420BD0094B984208D00E4BA9
:10165000984205D00D4B984202D00D4B984201D1D3
:101660000B7A03860123838270470000002C01401F
:10167000003401400004004000080040000C00401D
:1016800000100040001400400040014000440140B0
:101690000048014070B588B006460125002007903B
:1016A000E4E000231A4619467248006803F0A2FAE3
:1016B0000546012D14D1002307AA811E184603F008
:1016C000E9FE0546012D04D10798012802D1FFF754
:1016D0000DF9C8E007980228FBD1FFF793F8C2E0A4
:1016E000FFF7F7FB0446002CF3D10120FFF7CEFBF8
:1016F0000446002CEDD102AB632200210120FFF74C
:1017000005FC0446002CE4D1BDF80800012802D0F5
:1017100002287CD15BE058A000F0C0FF0020034607
:101720000246012100905948006803F013F9584916
:1017300008600020034602460121009053480068DB
:1017400003F008F9534908600020034602460121CE
:1017500000904E48006803F0FDF84F4908600020F3
:1017600003460246012100904848006803F0F2F861
:101770004A49086046480068012803D148A000F0A3
:101780008DFF02E04AA000F089FF4248006802286D
:1017900003D14BA000F082FF02E04DA000F07EFFDD
:1017A0003D480068042803D14DA000F077FF02E017
:1017B0004FA000F073FF39480068082803D150A0FB
:1017C00000F06CFF02E052A000F068FF46E054A079
:1017D00000F064FF00231A4606A95648006803F08B
:1017E00009FA00231A4605A95348006803F002FAD3
:1017F00000231A4604A95148006803F0FBF90023AE
:101800001A4603A94E48006803F0F4F900E024E00A
:101810009DF818204BA14E4801F0D2F84C4800F03A
:101820003DFF9DF814204BA1494801F0C9F84848F4
:1018300000F034FF9DF8102049A1454801F0C0F8A0
:10184000434800F02BFF9DF80C2048A1404801F0D0
:10185000B7F83F4800F022FF00E000BF00BF1420AF
:1018600002F088FD03E01E2002F084FD19E700BFAE
:1018700008B070BD4000002070616765204B44597E
:101880005F496E74657266616365000060000020E8
:10189000680000206C000020700000207400002010
:1018A00074322E7478743D22D2D1D3C3220000004A
:1018B00074322E7478743D22CEB4D3C3220000005B
:1018C00074332E7478743D22D2D1D3C32200000029
:1018D00074332E7478743D22CEB4D3C3220000003A
:1018E00074342E7478743D22D2D1D3C32200000008
:1018F00074342E7478743D22CEB4D3C32200000019
:1019000074352E7478743D22D2D1D3C322000000E6
:1019100074352E7478743D22CEB4D3C322000000F7
:10192000706167652041646D696E496E74657266A9
:101930006163650044000020480000204C00002046
:101940005000002074342E7478743D2225642200E7
:101950006801002074352E7478743D2225642200BD
:1019600074372E7478743D222564220074392E74E5
:1019700078743D222564220090B0012430E14FF0BC
:10198000FF3000231A460F2100909648006802F0AD
:10199000E1FF0546012D2BD10023821E0DA992489F
:1019A000006803F027F90446012C20D10023821E91
:1019B00002A98E48006803F01DF90446012CF4D1F9
:1019C00040218B48FFF78DF902AA8AA1924800F0C6
:1019D000F7FF0DA8FFF770FC4FF47A7001F080FC60
:1019E00040218348FFF77BF98CA000F057FE88E088
:1019F000022D2BD100235A1E0AA97B48006803F050
:101A0000F9F80446012C7CD10023821E02A97748F4
:101A1000006803F0EFF80446012C72D1802174486D
:101A2000FFF75FF902AA73A17B4800F0C9FF0AA87B
:101A3000FFF742FC4FF47A7001F052FC80216C48B1
:101A4000FFF74DF975A000F029FE5AE0042D2BD1C7
:101A500000235A1E07A96448006803F0CBF8044627
:101A6000012C4ED10023821E02A96048006803F0B9
:101A7000C1F80446012C44D101025D48FFF731F959
:101A800002AA5CA1644800F09BFF07A8FFF714FCC2
:101A90004FF47A7001F024FC21025548FFF71FF93A
:101AA0005EA000F0FBFD2CE0082D2AD100235A1E79
:101AB00004A94D48006803F09DF80446012C20D18C
:101AC0000023821E02A94948006803F093F80446E7
:101AD000012C16D141024648FFF703F902AA45A19D
:101AE0004D4800F06DFF04A8FFF7E6FB4FF47A7055
:101AF00001F0F6FB61023E48FFF7F1F847A000F065
:101B0000CDFD00231A464A494A48006803F072F89E
:101B1000474800780A2860DB00200346024601217E
:101B200000904548006802F015FF44490860002015
:101B300003460246012100903F48006802F00AFF78
:101B40003F490860002003460246012100903A48C0
:101B5000006802F0FFFE3B49086000200346024691
:101B6000012100903448006802F0F4FE3649086014
:101B700032480068012806D134492748FEF76EFB39
:101B80000DA8FFF799FB2E480068022806D12F49BF
:101B90002148FEF763FB0AA8FFF78EFB294800687F
:101BA000042806D129491C48FEF758FB07A8FFF76F
:101BB00083FB25480068082806D124491648FEF70B
:101BC0004DFB04A8FFF778FB00201949087000239B
:101BD0001A461848006803F03BF93C2002F0CAFBA3
:101BE000CDE60000640000205800002054000020D2
:101BF000000C0140506C65617365207069636B2057
:101C00007570207061636B61676520776974682007
:101C1000636F646520257300B700002074362E744E
:101C200078743D22CDB6B5DDB3C9B9A62200000057
:101C3000A20000205C00002060000020680000205E
:101C40006C00002070000020740000204059000843
:101C500008B5DCE2F7A1F848FEF7E2FA00287DD0EB
:101C6000F6A1F548FEF7DCFA70B100231A461946D2
:101C7000F448006803F0ECF8002301221146F24812
:101C8000006803F0B7FAB8E2F0A1EB48FEF7C8FA33
:101C900070B100231A461946EA48006803F0D8F8E4
:101CA000002301220221E848006803F0A3FAA4E21D
:101CB000E8A1E148FEF7B4FA00283DD0E7A1DE48EC
:101CC000FEF7AEFAE6490860E2A1DB48FEF7A8FAA3
:101CD000E44908600B2208460168091DE248FEF746
:101CE000B1FA0622DE480168C91CE048FEF7AAFAEC
:101CF00000231A46DC49DE48006803F0A9F80023F7
:101D00001A46DA49DB48006803F0A2F80121DA48F4
:101D1000006802F0ABFDD9480078401CD749087034
:101D200000231A46D648006803F092F80121D548EE
:101D3000006802F09BFD60E2D3A1BF48FEF770FA95
:101D400000283FD0C5A1BC48FEF76AFAC449086024
:101D5000CDA1B948FEF764FAC24900E054E2086038
:101D60000B2208460168091DBF48FEF76BFA0622E0
:101D7000BB480168C91CC648FEF764FA00231A462E
:101D8000B949BB48006803F063F800231A46C0490C
:101D9000B848006803F05CF80221B748006802F018
:101DA00065FDBC480078401CBA49087000231A46FB
:101DB000B948006803F04CF80221B248006802F00C
:101DC00055FD1AE2B5A19C48FEF72AFA00283DD03D
:101DD000A2A19948FEF724FAA1490860AFA196484C
:101DE000FEF71EFA9F4908600B2208460168091D8C
:101DF0009D48FEF727FA062299480168C91CA948A0
:101E0000FEF720FA00231A4697499948006803F024
:101E10001FF800231A46A3499648006803F018F8F3
:101E200004219548006802F021FD9F480078401C7D
:101E30009D49087000231A469C48006803F008F882
:101E400004219048006802F011FDD6E198A17A487B
:101E5000FEF7E6F900283DD080A17748FEF7E0F9CB
:101E60007F49086092A17448FEF7DAF97D4908605D
:101E70000B2208460168091D7B48FEF7E3F906229C
:101E800077480168C91C8C48FEF7DCF900231A4624
:101E900075497748006802F0DBFF00231A4686493F
:101EA0007448006802F0D4FF08217348006802F00B
:101EB000DDFC82480078401C8049087000231A46E7
:101EC0007F48006802F0C4FF08216E48006802F0F5
:101ED000CDFC92E17BA15848FEF7A2F900285AD028
:101EE00078A15548FEF79CF95D490860062208462E
:101EF0000168891C7448FEF7A5F95C497248FEF731
:101F00008FF960B140217148FEF7EBFE70A000F040
:101F1000C5FB01215848006802F060FC6DE15C4996
:101F20006948FEF77DF960B180216848FEF7D9FE67
:101F30006FA000F0B3FB02214F48006802F04EFC96
:101F40005BE158496048FEF76BF968B14FF4807166
:101F50005E48FEF7C6FE6EA000F0A0FB04214648D6
:101F6000006802F03BFC48E153495748FEF758F936
:101F700068B14FF400715548FEF7B3FE6CA000F055
:101F80008DFB08213C48006802F028FC35E170A078
:101F900000F084FB31E174A12748FEF741F90028E5
:101FA00046D00020034602460121009032480068D6
:101FB00002F0D0FC6E490860002003460246012171
:101FC00000902D48006802F0C5FC6A4908600020B6
:101FD00003460246012100902748006802F0BAFC3F
:101FE000654908600020034602460121009022480E
:101FF000006802F0AFFC614908605D480068012894
:1020000003D15FA000F04AFB02E061A000F046FBB4
:1020100058480068022803D161A000F03FFB02E0AD
:1020200063A000F03BFB54480068042801D1C7E0DE
:10203000D9E0C9E0454E44000B0500205A434B440B
:102040005900000040000020300000205A43474C57
:10205000590000003148544400000000514A4D002E
:10206000780000207C0000207C01002084000020FB
:102070005800002054000020600000208000002054
:102080004400002064000020324854440000000056
:102090008A0000208100002048000020334854447A
:1020A0000000000090000020820000204C00002072
:1020B00034485444000000009600002083000020B3
:1020C00050000020514A00009C000020000C0140FC
:1020D00074362E7478743D22C7EBB5BD31BAC5B9DC
:1020E000F1C8A1B3F6BFECB5DDA3A122000000004A
:1020F00074362E7478743D22C7EBB5BD32BAC5B9BB
:10210000F1C8A1B3F6BFECB5DDA3A1220000000029
:1021100074362E7478743D22C7EBB5BD33BAC5B999
:10212000F1C8A1B3F6BFECB5DDA3A1220000000009
:1021300074362E7478743D22C7EBB5BD34BAC5B978
:10214000F1C8A1B3F6BFECB5DDA3A12200000000E9
:1021500074362E7478743D22C8A1BCFEC2EBB4ED77
:10216000CEF3A3A1220000004A585444000000000E
:10217000680000206C000020700000207400002027
:1021800074322E7478743D22D2D1D3C32200000061
:1021900074322E7478743D22CEB4D3C32200000072
:1021A00074332E7478743D22D2D1D3C32200000040
:1021B00074332E7478743D22CEB4D3C32200000051
:1021C00013A000F06BFA02E015A000F067FA1848BF
:1021D0000068082803D117A000F060FA0DE019A0EC
:1021E00000F05CFA09E01BA11C48FEF719F820B1C9
:1021F0004FF470711A48FEF772FD002019490870FB
:1022000064211648FDF7F5FF642002F0B3F821E5DC
:1022100074342E7478743D22D2D1D3C322000000CE
:1022200074342E7478743D22CEB4D3C322000000DF
:102230007400002074352E7478743D22D2D1D3C33B
:102240002200000074352E7478743D22CEB4D3C3BE
:10225000220000005951434B440000000B050020B0
:10226000000C0140B600002033E000240CE02246C0
:1022700018A11B4800F0A4FB194800F00FFA6420D5
:1022800001F02EF8601CC4B2502CF0DB00F050FBC3
:10229000FFF7C2F850240CE022460EA1104800F0CF
:1022A0008FFB0F4800F0FAF9642001F019F8601C68
:1022B000C4B2642CF0DB0BA000F0F0F900200C4954
:1022C000087064210B48FDF794FF0B48006802F08A
:1022D0008BF8CAE76A302E76616C3D2564000000F9
:1022E0006801002070616765204D61696E00000023
:1022F000B60000200B0500203400002010B5044675
:102300000BE000BF4021074800F0F6F80028F9D0A4
:1023100014F8011B034800F0BCF920780028F0D124
:1023200010BD00000038014010B540F225510E48A4
:1023300000F0EFF8012816D10B4800F0A5F90B4981
:102340000B4A127888540A480078401C08490870E3
:1023500008460078642801DD0020087040F225510D
:10236000014800F05FF810BD00380140A7040020CC
:10237000E900002010B540F225510B4800F0C9F8E3
:1023800088B1094800F080F90849094A1278885450
:1023900007480078401C0649087008460078642801
:1023A00001DD0020087010BD004400400B05002036
:1023B000B600002010B540F22551164800F0A9F8EB
:1023C000F8B1144800F060F9C4B21348008800F472
:1023D0000040B0B910480088B0F5C87F12DA00217B
:1023E0000E48FFF702F90C48008818B901210B4884
:1023F000FFF7D5F808490888411C074A11800849A9
:102400000C5405E00448008840F40040024908806C
:1024100010BD000000480040AA0000200004004059
:102420008701002010B50022002340F66A14A14263
:1024300000D100BF0A1201249440A3B2DC430480FF
:1024400010BD21B1828942F40052828104E0828968
:102450004DF6FF731A4082817047000010B50446A4
:102460002048844209D101218803FEF731FE002172
:102470004FF48040FEF72CFE32E01B48844209D125
:1024800001214804FEF704FE00214FF40030FEF75E
:10249000FFFD25E01548844209D101218804FEF79B
:1024A000F7FD00214FF48020FEF7F2FD18E0104800
:1024B000844209D10121C804FEF7EAFD00214FF44E
:1024C0000020FEF7E5FD0BE00A48844208D1012117
:1024D0000805FEF7DDFD00214FF48010FEF7D8FD62
:1024E00010BD00000038014000440040004800409A
:1024F000004C00400050004002460020B1F5007F33
:1025000000D100BF13880B400BB1012000E0002078
:10251000704770B50246002400230025002040F6D5
:102520006A16B14200D100BFC1F3421501F01F038A
:10253000012606FA03F3012D02D19689334006E005
:10254000022D02D1168A334001E0968A33400C12E4
:10255000012606FA04F41688344013B10CB10120A8
:1025600000E0002070BDF0B50346002400260025E1
:10257000002040F66A17B94200D100BF1846C1F3E7
:10258000421401F01F06012707FA06F5012C01D1BC
:102590000C3004E0022C01D1103000E014301AB1EC
:1025A00007682F43076002E00768AF430760F0BD8C
:1025B0002DE9F04786B005460E460024A24600BF2E
:1025C000A1460027B08900B100BF2F462C8A4CF6E7
:1025D000FF700440F08804432C82AC894EF6F3105F
:1025E0000440B08831890843718908430443AC81B1
:1025F000AC8A4FF6FF400440B0890443AC8201A886
:10260000FEF776FD1F48874202D1DDF810A001E0F9
:10261000DDF80CA0A88900F4004040B10AEBCA0024
:1026200000EB0A1031684900B0FBF1F807E00AEB53
:10263000CA0000EB0A1031688900B0FBF1F8642091
:10264000B8FBF0F004012009642101FB1089A8897E
:1026500000F4004040B1322000EBC900B0FBF1F0C3
:1026600000F00700044308E0322000EB0910642169
:10267000B0FBF1F000F00F0004432C8106B0BDE880
:10268000F08700000038014001468888C0F3080048
:102690007047C1F3080282807047000010B50446FD
:1026A000204601F091FC00BF40211048FFF724FFB5
:1026B0000128F9D1FF210D48FFF7EBFF00BF4021B2
:1026C0000A48FFF719FF0128F9D1FF210748FFF752
:1026D000E0FF00BF40210548FFF70EFF0128F9D1B8
:1026E000FF210248FFF7D5FF10BD00000044004065
:1026F00000BFFEE710B586B0044601210420FEF7B6
:10270000D7FC01218803FEF7D3FC4FF40070ADF82D
:10271000140018208DF8170003208DF8160005A965
:102720001C48FEF751FA4FF48060ADF81400042005
:102730008DF8170005A91748FEF746FA0194002006
:10274000ADF80800ADF80A00ADF80C000C20ADF8AB
:102750000E000020ADF8100001A90F48FFF728FF78
:1027600001210D48FFF76DFE012240F225510A4874
:10277000FFF7F9FE25208DF8000000208DF80100FC
:1027800001208DF802008DF803006846FEF73CFB3F
:1027900006B010BD000801400038014070B5044685
:1027A0000D4629462046FFF774FF00BF80212046D2
:1027B000FFF7A2FE0028F9D070BD000010B586B06A
:1027C000044601214804FEF753FC01210420FEF7D2
:1027D0006FFC0420ADF8140003208DF816001820BB
:1027E0008DF8170005A91C48FEF7EEF90820ADF892
:1027F000140004208DF8170005A91748FEF7E4F926
:1028000026208DF8000000208DF8010002208DF8B0
:10281000020001208DF803006846FEF7F5FA0194E6
:102820000020ADF80800ADF80A00ADF80C00ADF8D6
:1028300010000C20ADF80E0001A90848FFF7B8FE03
:10284000012240F225510548FFF78DFE0121034882
:10285000FFF7F7FD06B010BD00080140004400403E
:1028600010B586B0044601210820FEF721FC0121A5
:102870008804FEF7FDFB2A48FFF7F0FD4FF4806067
:10288000ADF8100003208DF8120018208DF8130009
:1028900004A92448FEF798F94FF40060ADF8100041
:1028A00004208DF8130004A91E48FEF78DF900944A
:1028B0000020ADF80400ADF80600ADF80800ADF852
:1028C0000C000C20ADF80A0069461548FFF770FEB1
:1028D00001211348FFF7B5FD012240F225511048B0
:1028E000FFF741FE27208DF8140001208DF8150018
:1028F00000208DF8160001208DF8170005A8FEF7BE
:1029000083FA41F61F416320FEF716FE00200649B8
:10291000088000210548FEF742FE06B010BD000009
:1029200000480040000C0140AA00002000040040C4
:1029300070B50025FEF726F925E0FEF723F913A070
:10294000FFF7DCFC0D211448FFF728FF0A2112488D
:10295000FFF724FFFA2000F0C3FC002410E00F482A
:10296000005D3A280AD10D49201D085C312803D0AA
:10297000201D085C352801D1012503E0601CC4B28C
:10298000642CECDB00BF002DD7D070BD41542B432D
:102990005245473F0000000000380140A7040020D6
:1029A0000FB4054B10B503A9044A029800F0EEF8E5
:1029B00010BC5DF814FB00002D33000864010020FA
:1029C0000FB4084B10B504A902AA039800F0DEF872
:1029D000044602A9002000F05CFC204610BC5DF813
:1029E00014FB00009332000802E008C8121F08C15F
:1029F000002AFAD170477047002001E001C1121F80
:102A0000002AFBD1704700002DE9FF5F82B0002152
:102A1000DDE90430020DDDF840B0034318D044F680
:102A20001050A2F2FF3242431514119801281FD012
:102A3000A5EB0B00401C5FEA000A4FF000064E4F6A
:102A4000DFF83891B046504615D5CAF1000413E0BE
:102A5000119801244AA3012801D16FEA0B010298C1
:102A6000119AC0E90031C0E9024206B0BDE8F09F0A
:102A7000CBF10000DFE704460021404A491842EB51
:102A80000450CDE9001012E0E00707D032463B4683
:102A900040464946FDF7D9FC8046894632463B46CA
:102AA00010461946FDF7D1FC06460F466410002C6F
:102AB000EAD1DDE90401DDE90023BAF1000F06DA0D
:102AC000FDF7C3FC42464B46FDF7BFFC05E0FDF7B2
:102AD0002EFD42464B46FDF72AFD04460E460022D7
:102AE000284BFDF7ABFD03D84FF0FF30014607E060
:102AF0000022254B20463146FDF700FCFDF786FD00
:102B0000102409E0002C0ADB0A220023FDF7C5FB94
:102B1000039B30321A55641E50EA0102F2D1641C44
:102B2000039AC4F111031444119A012A03D001221B
:102B300008430DD10AE0084304D000204FF0110BE8
:102B4000119072E7A3EB0B056D1E0DE05B4504DDF4
:102B50004FF0000205F1010504E003DA4FF0000236
:102B6000A5F10105002AECD002981199C0E90231C3
:102B7000C0E9004579E70000000014400000F03F84
:102B8000300000000000F0430000E03F2DE9FF4F5F
:102B900095B09A46884606460025EEE1252877D16D
:102BA00000242746F94A0121039400E0044316F863
:102BB000013F203B01FA03F01042F7D130782A2878
:102BC00011D06FF02F033078A0F13002092A16D807
:102BD000039A44F0020402EB820203EB4202104427
:102BE000761C0390EFE758F8042B0392002A03DACF
:102BF000504244F40054039044F00204761C3078B0
:102C00002E2816D116F8010F44F004042A280DD0FE
:102C10006FF02F023078A0F13003092B09D807EBB1
:102C2000870302EB4303C718761CF3E758F8047BCD
:102C3000761C30786C280FD006DC4C2817D068281A
:102C40000DD06A2814D104E0742810D07A280FD14E
:102C50000DE044F400140AE044F4801401E044F46C
:102C600040147278824202D104F58014761C761CDE
:102C7000307866280BD013DC582877D009DC002880
:102C800075D04528F6D04628F4D047281AD193E1CC
:102C900018E0632835D0642879D0652812D18BE1FB
:102CA000702873D008DC6728F1D069286FD06E28AF
:102CB0000DD06F2806D1ACE073282CD0752874D0C5
:102CC000782853D05246179990476D1C54E1C4F3AD
:102CD0000250022809D003280DD0D8F8001004288B
:102CE0000DD00D6008F1040846E1D8F80010EA178D
:102CF000C1E90052F6E7D8F800100D80F2E70D7038
:102D0000F0E718F8041B8DF8001000208DF8010082
:102D1000EB46012003E058F804BB4FF0FF30610799
:102D20004FF0000102D40DE009F101018946B942DA
:102D30000FDA8145F8DB1BF809100029F4D108E00F
:102D400009F1010189468142FADB1BF809100029CB
:102D5000F6D103985346A0EB090721463846179A47
:102D600000F080FA284400EB090507E044E008E1A0
:102D70000DE01BF8010B524617999047B9F1010974
:102D8000F7D2534621463846179AF2E039E00A2135
:102D9000C4F302524FF0000B0091022A06D058F8FB
:102DA000040BC117032A09D00AE023E008F1070049
:102DB00020F00702F2E80201904605E000B2C117D8
:102DC000042A01D140B2C117002906DA0A460021BF
:102DD000404261EB02012D2202E0220504D52B22A4
:102DE0008DF80420012203E0E20701D02022F7E75A
:102DF000914657E00A2100E010214FF0000B0091AE
:102E00000BE010214FF0000B44F004040827009160
:102E100003E008204FF0000B0090C4F30252022A96
:102E200005D058F8040B0021032A08D008E008F167
:102E3000070020F00702F2E80201904603E080B2AA
:102E4000042A00D1C0B24FF0000922072AD53278F7
:102E5000702A07D0DDF800C08CF0100C5CEA0B0C77
:102E600005D00EE040228DF80420012208E050EA4F
:102E7000010306D030238DF804308DF8052002229E
:102E80009146009B83F0080353EA0B030AD150EAF2
:102E9000010201D1620705D530228DF804204FF0E0
:102EA00001097F1E3278582A04D039A20C920CAA4C
:102EB00002920BE03BA2F9E75B46009AFDF7EDF9C1
:102EC0000C9B9B5C029A521E0292137050EA010204
:102ED000F2D1029804A9081A00F1200B600702D56C
:102EE00024F4803400E001275F4502DDA7EB0B00EE
:102EF00000E0002000EB0B01009003984944401AC9
:102F00000390E00306D453462146179A039800F035
:102F1000A9F90544002706E001A85246C05D1799AB
:102F200090476D1C7F1C4F45F6DBE0030CD55346E4
:102F30002146179A039800F095F9054404E03020E3
:102F40005246179990476D1C0099481E0090002921
:102F5000F5DC08E00298029952460078491C02917B
:102F6000179990476D1CBBF10001ABF1010BF1DC2F
:102F70005BE100F065F90544761C307800287FF4A9
:102F80000DAE19B02846BDE8F08F000009280100F9
:102F900030313233343536373839616263646566CF
:102FA0000000000030313233343536373839414291
:102FB0004344454600000000600700D4062708F19E
:102FC000070020F00700F0E80223804603F0004CE1
:102FD0005FEA0C0001D097A009E0200501D596A07A
:102FE00005E0E00701D095A001E0AFF24C0013909E
:102FF000307823F0004365280CD006DC452809D042
:1030000046281DD047287FD13BE0662818D0672886
:103010007AD136E00021112F01DB112000E0781C6D
:10302000CDE9000104A90CA8FFF7EEFCDDE90D01D4
:103030000C9A4FF0000B07F10109109200914EE03D
:103040004FF000400097CDE9011004A90CA8FFF74C
:10305000DBFCDDE90D020C9B0F994FF0000B914654
:103060001093009211B9791C00EB0109B7EB09002C
:1030700003D4C0F1FF3B07F10109A9EB0700019060
:1030800042E0012F00DA01270021112F01DD11207C
:1030900000E03846CDE9000104A90CA8FFF7B4FC14
:1030A000DDE90D010C9A00914FF0000BB94610922A
:1030B00021070FD4009A4A4503DA914601E0A9F1AD
:1030C0000109B9F1010F05DD109AA9F10101515C67
:1030D0003029F4D0B84202DA10F1040F03DA0121EA
:1030E000CDE9011010E0002803DC8344A9EB0001C6
:1030F00002E0411C494500DD8946A0EB0B00401C65
:1031000001904FF000400290200705D401984845F7
:1031100002DB4FF0FF30019000208DF84B00029849
:103120000DF14B07B0F1004F25D002200C902B2061
:103130000D90029800280CDA404202902D200D904C
:1031400007E00A210298FDF792F83031029007F863
:10315000011D0C99481E0C900029F2DC02980028F1
:10316000EFD1791E0D980870307800F0200040F003
:10317000450007F8020D11A8C01BC01D029013984E
:10318000007800B1012000EB0901019801EBE0712A
:10319000029801440398401A401E0390E00306D4AD
:1031A00053462146179A039800F05CF8054413989B
:1031B000007818B15246179990476D1CE00323D54B
:1031C00053462146179A039800F04CF805441BE03B
:1031D000BBF1000F07DB0098584504DD10981799E4
:1031E00010F80B0001E017993020524690470198E3
:1031F0000BF1010B401E05F10105019004D12E20B9
:103200005246179990476D1CB9F10001A9F10109C7
:10321000DEDC05E017F8010B5246179990476D1C4C
:103220000299481E02900029F4DC53462146179A61
:1032300003989EE62D0000002B00000020000000F7
:103240002DE9F041044600251E461746880404D4A3
:1032500005E039462020B0476D1C641EF9D528468C
:10326000BDE8F0812DE9F041044600251E46904658
:10327000C80301D5302700E02027880404D505E0E5
:1032800041463846B0476D1C641EF9D52846BDE856
:10329000F0810A68531C0B601070704710B56FF016
:1032A0000400FEF7E3F80A4800680A49B0FBF1F0B1
:1032B000094908700846007800EB4001C1EBC010D6
:1032C0004FF6FF7101EAC0000449088010BD0000FC
:1032D0001400002000127A00A6000020A8000020A0
:1032E0000146114A12884A434FF0E0235A610022F6
:1032F0009A611A46126942F001021A6100BF4FF04A
:10330000E022106900F001021AB100F48032002AB4
:10331000F5D04FF0E022126922F001024FF0E023D5
:103320001A6100229A617047A800002070B5044617
:103330000D46E1B20548FFF7ACF900BF8021034814
:10334000FFF7DAF80028F9D0204670BD00380140B8
:103350007CB50124FDF702FC1748012100234A0235
:10336000CDE9001015A1194801F014FF04461848D2
:10337000002301224FF47A71009016A002F024FA83
:10338000164908600846006858B101F0CDFF0546AF
:10339000002003462A46012100901048006802F0F0
:1033A00065FA012C02D101F067F902E04FF0FF301D
:1033B0007CBD00BFFEE70000280000204170705473
:1033C00061736B437265617465000000D509000884
:1033D000950D00086D7974696D6572003C000020E0
:1033E0002DE9F04105460E461C4807681C48006858
:1033F000001D00F003FE50B91948006890F82C1029
:103400000120884017490968814316480160681CFB
:1034100038B936B112480168091D134800F03AFE68
:103420001AE07C190E4800684460BC4207D20C4880
:103430000168091D0D48006800F012FE0CE0084804
:103440000168091D0A48006800F00AFE0948006882
:10345000844201D207480460BDE8F08104010020E5
:10346000F00000200801002050070020F800002094
:10347000F40000202001002010B5044600F016FEE4
:1034800023480068401C224908602248006840B96F
:10349000204804600846006801280DD100F00EFAAB
:1034A0000AE01D48006838B91A480068C06AE16A35
:1034B000884201D81748046018480068401C174922
:1034C000086094F82C1001208840154909680843C9
:1034D00013490860E16A01EB8101124A02EB8100A5
:1034E000211D00F0D7FD00F021FE0B48006868B1F7
:1034F00008480068C06AE16A884207D24FF08050ED
:1035000009490860BFF34F8FBFF36F8F10BD0000F4
:1035100000010020F00000200C0100201C01002010
:1035200008010020C005002004ED00E010B500F007
:10353000BDFD10480068D0B90F4800F081FD0F486C
:1035400000F07EFD0C480E4908600C480D490860EB
:1035500000220C210A2001F013FB064908600846EE
:10356000006820B108A10348006800F0C7FE00F021
:10357000DDFD10BD34010020640700207807002025
:103580002C01002030010020546D72510000000019
:1035900070B523E001F0C6F81348006808B90120AF
:1035A00000E00020054602F07FF8BDB900F07EFD86
:1035B0000D48C068C468201D00F020FD0B4800685D
:1035C000401E0A4908600A480068401E0849086011
:1035D00000F0ACFD204600F057F800BF044800683A
:1035E0000028D7D170BD00003C070020000100205A
:1035F000FC00002070B504460D46206C70B1216CB3
:10360000E0680844E0606168E068884201D32068AF
:10361000E0602846226CE168FCF7D2FD70BD2DE920
:10362000F04104460F4615464FF00008A66B206C8B
:1036300028B37DB93946226CA068FCF7C1FD216C26
:10364000A0680844A060D4E90110884217D320681C
:10365000A06014E03946226CE068FCF7B1FD216CF3
:10366000E068401AE0602168E068884203D2216C7B
:103670006068401AE060022D01D106B1761E701C10
:10368000A0634046BDE8F08110B50446206B00F011
:1036900081FD204600F07EFD10BD00000146084A75
:1036A000126812680AB9012200E000220A600A6862
:1036B00022B9034A1268D268106800E000207047FF
:1036C0002C01002030B54FF44053174800F0070498
:1036D0002CB1C01D20F00700134C041B1B1B02461D
:1036E000124C22600024114D6C60D018083820F074
:1036F00007000F4C206000240D4D2D686C600C4DB0
:103700002D682C601146441A4C60094C24680C60EA
:10371000084D4C682C60084D4C682C604FF00044FC
:10372000064D2C6030BD00008C07002040010020B9
:1037300048010020500100204C01002054010020CD
:1037400000BFFFF725FF064800680128F9D94FF0B0
:10375000805004490860BFF34F8FBFF36F8FF0E7CD
:10376000C005002004ED00E02DE9F04106460D46BD
:1037700017469846069C0DB9246000E02760E66372
:1037800025640121204601F00BFBBDE8F08100001B
:103790002DE9FF5F81460E469246DDE90E7B109CC7
:1037A000AAF10100216B01EB800828F0070808F05E
:1037B000070008B9012000E0002028B940F22B32B0
:1037C0001AA11FA0FFF7ECF8002507E0715D04F1D6
:1037D00034004155705D00B902E06D1C102DF5D329
:1037E00000BF002143200155102F00D30F27E762AF
:1037F000201D00F032FC04F1180000F02EFC2461C2
:10380000C7F11000A06164620020606484F8480081
:1038100049464046039A00F0C5FB2060BBF1000F0B
:1038200001D0CBF80040BDE8FF9F00002E2E5C5277
:10383000544F535C7372635C7461736B732E6300DB
:103840004572726F723A25732C25640D0A000000D0
:103850002DE9F04706460D4617469846DDE90894DF
:103860000DB1012000E0002028B94FF4C67209A173
:103870000EA0FFF795F85CB1FFF758FE2660A56132
:10388000E761C4F82080C4F82490201D00F0E5FB17
:10389000BDE8F0872E2E5C52544F535C7372635C0C
:1038A00074696D6572732E63000000004572726F5B
:1038B000723A25732C25640D0A00000010B500240F
:1038C00007E004EB84010F4A02EB810000F0B8FB33
:1038D000641C102CF5D30C4800F0B2FB0B4800F030
:1038E000AFFB0B4800F0ACFB0A4800F0A9FB0A480C
:1038F00000F0A6FB0448094908600448084908602C
:1039000010BD0000C00500200007002014070020A3
:10391000280700203C07002050070020F40000206A
:10392000F800002010B50146164800E00068036862
:103930008B42FBD30246436813448B4204D1436855
:103940004C682344436001460A464B6813440468AC
:10395000A34211D10C4C03682468A34208D04B68E1
:103960000468646823444B6003681B680B6005E0CF
:10397000054B1B680B6001E003680B60884200D0B8
:10398000016010BD40010020480100202DE9F041F8
:1039900004460D4616461F464FF000086560246138
:1039A000B5420CD8F01BA169884202D34FF0010840
:1039B00011E0211D0948006800F052FB0BE0BE42F7
:1039C00004D2BD4202D34FF0010804E0211D044897
:1039D000006800F045FB4046BDE8F0813001002062
:1039E0002C01002070B5054600F060FBA86B08B9FB
:1039F000012400E0002400F099FB204670BD70B562
:103A0000054600F053FBA86BE96B884201D1012405
:103A100000E0002400F08AFB204670BDF8B50546A2
:103A20000F4613480068C068C468201D00F0E6FA1D
:103A3000E069012818D1A06941192B463A46204671
:103A4000FFF7A4FF80B1002003462A4601460090FC
:103A5000204601F00BFF06462EB94FF4027205A175
:103A60000AA0FEF79DFF00BF2046616A8847F8BDA7
:103A70002C0100202E2E5C52544F535C7372635CF9
:103A800074696D6572732E63000000004572726F79
:103A9000723A25732C25640D0A00000070B586B0BB
:103AA00060E0039800285DDB059C606908B901208F
:103AB00000E0002010B9201D00F0A0FA02A800F0DC
:103AC000C7F8054603980A284AD2DFE800F009053E
:103AD000072C2E4506082D2F00BF00BF00BF00BFDA
:103AE0000498A269811803462A462046FFF74EFF34
:103AF000C0B12046616A8847E069012812D10020E0
:103B000000900498A169421800231946204601F04C
:103B1000ADFE06462EB940F2213218A11DA0FEF7D7
:103B20003FFF00BF1DE000BF1BE000BF0498A06185
:103B3000A06908B1012000E0002028B94FF44E72BE
:103B40000EA114A0FEF72CFFA06941192B462A46AE
:103B50002046FFF71BFF04E0204600F01BFB00E0BF
:103B600000BF00BF00231A4603A90E48006801F0F9
:103B700041F8002895D106B070BD00002E2E5C5291
:103B8000544F535C7372635C74696D6572732E631A
:103B9000000000004572726F723A25732C25640D87
:103BA0000A00000034010020F8B505460C4600F07C
:103BB000B9FD684600F04CF80646009820BB44B9B1
:103BC000B54206D801F070FD31462846FFF726FFC2
:103BD0001CE03CB10E480068006808B9012000E014
:103BE00000200446A91B22460A48006800F09CFBFE
:103BF00001F05AFD50B94FF0805007490860BFF3FB
:103C00004F8FBFF36F8F01E001F04EFDF8BD000054
:103C1000300100203401002004ED00E00A49096869
:103C2000096809B9012100E0002121B14FF0FF31FD
:103C3000064A116006E004490968C968C868034A71
:103C40004168116070470000F4000020200100204E
:103C500070B5044601F068FB0546074800688542D8
:103C600004D200F00BF80120206001E00020206069
:103C700001480560284670BD3C0100202DE9F8434D
:103C80002DE021480068C06805681F480068C068CA
:103C9000C468201D00F0B2F92046616A8847E069D7
:103CA00001281CD1A0694619AE4207D9666024617B
:103CB000211D1548006800F0D3F910E000200346EC
:103CC0002A4601460090204601F0D0FD07462FB954
:103CD00040F292320DA113A0FEF762FE00BF0A4827
:103CE0000068006808B9012000E000200028C8D062
:103CF0000548D0F800800F480068034908600D4867
:103D0000C0F80080BDE8F8832C0100202E2E5C5204
:103D1000544F535C7372635C74696D6572732E6388
:103D2000000000004572726F723A25732C25640DF5
:103D30000A000000300100200B480068401C08B950
:103D4000012000E0002020B9F42208A110A0FEF715
:103D500027FE00BF502080F31188BFF34F8FBFF3C1
:103D60006F8F00BF00BFFEE7580100202E2E5C526F
:103D7000544F535C706F72745C525644535C4152A2
:103D80004D5F434D335C706F72742E630000000012
:103D90004572726F723A25732C25640D0A0000007B
:103DA00010B50346002022B903EA010434B1012012
:103DB00004E003EA01048C4200D1012010BD08B5E3
:103DC00000BF6846FFF76AFC044620460099FFF7EB
:103DD000EBFEFFF763FEF4E770B5044600F066F90A
:103DE00094F9455010E0606A08B9012000E0002015
:103DF00038B904F1240001F09DFB18B100F07AFB02
:103E000000E003E0681E45B2002DECDC00BFFF209F
:103E100084F8450000F08AF900F048F994F944501C
:103E200010E0206908B9012000E0002048B904F141
:103E3000100001F07FFB08B100F05CFB681E45B28A
:103E400000E001E0002DECDC00BFFF2084F844001E
:103E500000F06CF970BD00002DE9F04104464FF010
:103E6000000800F05FFC3E48006808B9FFF72AFC34
:103E70003C480068204000285FD1A4B1083404F019
:103E8000070080B104F00700C0F10800044404F00A
:103E9000070008B9012000E0002020B9BF2232A1AC
:103EA00039A0FEF77DFD002C47D03B4800688442D6
:103EB00043D83A4E3046056801E02E462D686868C2
:103EC000A04202D228680028F7D125480068854220
:103ED00033D0306800F10808286830606868001B3B
:103EE000102813D92F1907F0070008B9012000E0A6
:103EF000002020B9EC221CA123A0FEF751FD686828
:103F0000001B78606C603846FFF70CFD224968683A
:103F10000968081A204908600846006820490968AD
:103F2000884203D21C4800681D4908600D49686832
:103F30000968084368600020286001F0B5FB08F0BC
:103F4000070008B9012000E0002028B94FF496725C
:103F500005A10DA0FEF724FD4046BDE8F08100005C
:103F600048010020540100202E2E5C52544F535C17
:103F7000706F72745C4D656D4D616E675C686561F4
:103F8000705F342E630000004572726F723A2573C1
:103F90002C25640D0A0000004C0100204001002087
:103FA00050010020001F4FF080730360001F21F0BC
:103FB00001030360001F034B0360143802602038C4
:103FC00070470000393D000870B5054600240CE03C
:103FD00000BF40210848FEF78FFA0128F9D1295D7A
:103FE0000548FEF756FB601C84B2285D0028EFD11F
:103FF000601C84B270BD00000044004001460A69A4
:10400000D1E901309860D1E90103586050688842D5
:1040100001D188685060002008611068401E10605F
:104020001068704705490968886904490968C96AC0
:10403000C1F11001014A126891617047F00000203F
:1040400000F1080141604FF0FF31816000F108018B
:10405000C16001610021016070470021016170476A
:1040600010B502460B685C1C0CB9106907E002F140
:10407000080000E04068446824689C42FAD944681B
:104080004C604C68A160886041600A611468641CDF
:10409000146010BD42684A6093688B6093685960F1
:1040A0009160086103685B1C0360704710B500BF36
:1040B000502080F31188BFF34F8FBFF36F8F00BF85
:1040C0000B480068401C0A4908600846006801283F
:1040D0000DD108480068C0B208B9012000E00020F6
:1040E00028B94FF4BD7204A10CA0FEF759FC10BD15
:1040F0005801002004ED00E02E2E5C52544F535C1A
:10410000706F72745C525644535C41524D5F434D24
:10411000335C706F72742E63000000004572726F22
:10412000723A25732C25640D0A00000010B50B4867
:10413000006828B940F2811209A112A0FEF730FCF4
:1041400006480068401E054908600846006820B916
:10415000002080F3118800BF00BF10BD580100206F
:104160002E2E5C52544F535C706F72745C525644E6
:10417000535C41524D5F434D335C706F72742E63DC
:10418000000000004572726F723A25732C25640D91
:104190000A00000070B506463546002E35D0083DB1
:1041A0002C461A4960680968084008B1012000E0FF
:1041B000002028B94FF4A07215A11DA0FEF7F0FB56
:1041C000206808B9012000E0002028B940F241121F
:1041D0000FA117A0FEF7E4FB0C49606809680840CE
:1041E00098B1206888B909496068096888436060A7
:1041F00000F098FA1249606809680844104908609C
:104200002046FFF78FFB01F04FFA70BD54010020EC
:104210002E2E5C52544F535C706F72745C4D656D02
:104220004D616E675C686561705F342E63000000ED
:104230004572726F723A25732C25640D0A000000D6
:104240004C010020064800684FF47A71B0FBF1F091
:10425000401E4FF0E02148610720086170470000D0
:104260001400002070B5FBF795FF0546102D11D303
:1042700005F1E02090F8F04310480078844201DB1B
:10428000012000E0002028B94FF42A720CA115A0EB
:10429000FEF786FB1748006800F4E06016490968DD
:1042A000884201D8012000E0002028B94FF42E7286
:1042B00003A10CA0FEF774FB70BD00005C010020A0
:1042C0002E2E5C52544F535C706F72745C52564485
:1042D000535C41524D5F434D335C706F72742E637B
:1042E000000000004572726F723A25732C25640D30
:1042F0000A0000000CED00E06001002002460020F2
:104300000BE0084B53F8303033B9064B43F830100C
:1043100003EBC0035A6002E0401C0A28F1D300BF3F
:1043200070470000700500202DE9F04105460E465B
:1043300017462C46FFF7BAFE94F94400401C10B90A
:10434000002084F8440094F94500401C10B9002076
:1043500084F84500FFF7EAFEA06B28B93A463146DB
:1043600004F1240000F0F6F82046FFF735FDBDE823
:10437000F081000070B504460025ACB10F4800681C
:1043800008B9012000E0002028B940F2CF420CA17A
:1043900010A0FEF705FB00F0C5F900212046FFF74D
:1043A0001FF801F081F905463DB94FF080500D49E5
:1043B0000860BFF34F8FBFF36F8F70BD28010020DF
:1043C0002E2E5C52544F535C7372635C7461736B3A
:1043D000732E63004572726F723A25732C25640D3B
:1043E0000A00000004ED00E070B50546FFF75EFE30
:1043F00015B92D48006800E028460446201DFFF747
:10440000FDFD78B9E06A00EB8000284951F82000F2
:1044100040B994F82C10012088402549096881434F
:1044200023480160A06A18B104F11800FFF7E6FD07
:1044300020480068401C1F4908601B4800688442EF
:1044400009D1211D1C48FFF725FE1C480068401CAF
:104450001A49086009E01A480068401E18490860B7
:104460002046FFF711F9FFF7D9FBFFF75FFE15486C
:104470000068C0B10C480068844214D1124800683A
:1044800008B9012000E0002028B940F265420FA1E0
:1044900013A0FEF785FA4FF0805015490860BFF36E
:1044A0004F8FBFF36F8F70BDF0000020C00500205C
:1044B000080100201C0100203C070020FC00002017
:1044C000000100200C010020280100202E2E5C524B
:1044D000544F535C7372635C7461736B732E63002F
:1044E0004572726F723A25732C25640D0A00000024
:1044F00004ED00E00120014908607047140100202C
:1045000070B504460D462CB940F6063207A10CA042
:10451000FEF746FA0E48016818312046FFF7A0FD65
:1045200001212846FEF75CFF70BD00002E2E5C5274
:10453000544F535C7372635C7461736B732E6300CE
:104540004572726F723A25732C25640D0A000000C3
:10455000F000002070B505460E4614462DB940F611
:10456000313209A10DA0FEF71BFA1048016818317D
:104570002846FFF78FFD0CB14FF0FF36214630463D
:10458000FEF72EFF70BD00002E2E5C52544F535C80
:104590007372635C7461736B732E63004572726F28
:1045A000723A25732C25640D0A000000F0000020EB
:1045B00070B504460D4616462CB940F6173210A1C8
:1045C00014A0FEF7EDF91748006808B1012000E0DB
:1045D000002028B940F61B3209A10EA0FEF7E0F931
:1045E00045F000401049096888610F48016818319A
:1045F0002046FFF74FFD01213046FEF7F1FE70BD6A
:104600002E2E5C52544F535C7372635C7461736BF7
:10461000732E63004572726F723A25732C25640DF8
:104620000A00000028010020F000002010B5044618
:104630002CB940F6C13205A109A0FEF7B1F90C482A
:10464000006820600B480068606010BD2E2E5C5230
:10465000544F535C7372635C7461736B732E6300AD
:104660004572726F723A25732C25640D0A000000A2
:1046700018010020040100201CB51A4800210B4637
:104680008022CDE9001018A1194800F083FD0446EE
:10469000012C02D101F0B0F80446012C15D100BF65
:1046A000502080F31188BFF34F8FBFF36F8F00BF8F
:1046B0004FF0FF300F49086001200F4908600020CB
:1046C0000E49086000F0F2F90BE0601C08B101200F
:1046D00000E0002028B940F2847209A10DA0FEF785
:1046E0005FF91CBD2401002049444C450000000036
:1046F00041370008200100200C01002004010020A7
:104700002E2E5C52544F535C7372635C7461736BF6
:10471000732E63004572726F723A25732C25640DF7
:104720000A00000002480068401C01490860704708
:104730002801002010B51B48006818B101201A4953
:1047400008602DE000201849086018480068B0FA99
:1047500080F0C0F11F0404EB8400154951F82000DB
:1047600008B1012000E0002028B940F6F62211A18E
:1047700015A0FEF715F904EB84010D4A02EB810048
:1047800041684968416000F1080142688A4202D1EB
:104790004168496841604168C9680F4A116000BFBB
:1047A00010BD000028010020140100200801002095
:1047B000C00500202E2E5C52544F535C7372635C14
:1047C0007461736B732E63004572726F723A257356
:1047D0002C25640D0A000000F00000202DE9F041B6
:1047E00005460E462C462DB940F2DF120DA114A04D
:1047F000FEF7D6F806F07F4008B9012000E000205F
:1048000028B94FF4F07207A10DA0FEF7C9F8FFF721
:104810004DFC27682068B0432060FFF787FC3846CE
:10482000BDE8F0812E2E5C52544F535C7372635C72
:104830006576656E745F67726F7570732E630000C6
:104840004572726F723A25732C25640D0A000000C0
:1048500010B51820FFF700FB044624B100202060AB
:10486000201DFFF7EDFB204610BD00002DE9FE4F97
:1048700007468846002001903C4600902FB940F240
:104880001D2229A12FA0FEF78BF808F07F4008B960
:10489000012000E0002028B940F21E2222A129A018
:1048A000FEF77EF804F1040909F108000290FFF711
:1048B00039FFD9F80C60206840EA0800206026E043
:1048C000D6F804B035680020009005F07F4A25F046
:1048D0007F450AF0806028B92068284040B1012057
:1048E000009005E020682840A84201D101200090F6
:1048F000009858B10AF0807010B1019828430190D7
:10490000206840F00071304600F06EFE5E4602986E
:104910008642D5D1206801998843206000F0C4FE0A
:104920002068BDE8FE8F00002E2E5C52544F535C71
:104930007372635C6576656E745F67726F757073B2
:104940002E6300004572726F723A25732C25640D38
:104950000A0000002DE9FF4F83B081460D4617463F
:10496000DDF840804C464FF0000A00200190B9F17C
:10497000000F05D140F24D1240A147A0FEF710F8FC
:1049800005F07F4008B9012000E0002028B94FF46D
:10499000A7723AA140A0FEF703F80DB1012000E094
:1049A000002028B940F24F1234A13BA0FDF7F8FFD8
:1049B00000F0AAFC10B9B8F1000F01D1012000E00D
:1049C000002028B94FF4A9722CA133A0FDF7E8FF0D
:1049D000FFF7A8FE206800902946069A0098FFF786
:1049E000DFF90290029838B1009E4FF00008B7B18D
:1049F0002068A843206012E0B8F1000F01D1009EAA
:104A00000DE00FB14AF0807A069808B14AF0806A4A
:104A100045EA0A014246201DFFF7CAFD002600F0C4
:104A200043FE8346B8F1000F23D0BBF1000F07D13E
:104A30004FF080501C490860BFF34F8FBFF36F8F5A
:104A4000FFF7F0FA064606F0007080B9FFF72EFB7C
:104A5000266829463046069AFFF7A2F918B117B121
:104A60002068A8432060FFF761FB0020019026F03A
:104A70007F46304607B0BDE8F08F00002E2E5C5216
:104A8000544F535C7372635C6576656E745F6772D6
:104A90006F7570732E6300004572726F723A2573E2
:104AA0002C25640D0A00000004ED00E01CB522482E
:104AB000014609780191FF210246117001460978EB
:104AC00000919DF8001001F050011C4A117007215F
:104AD0001B4A116009E01A490968491E184A116009
:104AE0009DF800104906090E00919DF8001001F094
:104AF00080018029EFD0124909680902104A11602B
:104B00001146098801F4E06111600B4A01991170A6
:104B10000C48006840F470000A49086008460068C4
:104B200040F070400860FFF78DFB002006490860E8
:104B3000FBF7FAFA00201CBD00E400E05C01002055
:104B40006001002020ED00E05801002010B500BFFA
:104B5000502080F31188BFF34F8FBFF36F8F00BFDA
:104B600000F0E8FB18B14FF080500449086000BF26
:104B7000002080F3118800BF10BD000004ED00E0AC
:104B80002DE9F84305460E4690460DB1012000E0A0
:104B9000002028B94FF4C4720DA112A0FDF700FF48
:104BA0000EB9002701E005FB06F707F14800FFF703
:104BB00053F9044644B104F1480943464A46314694
:104BC00028460094FEF7D0FD2046BDE8F88300009B
:104BD0002E2E5C52544F535C7372635C7175657515
:104BE000652E63004572726F723A25732C25640D31
:104BF0000A0000002DE9FF4782B005460E461F4619
:104C00004FF0000A2C462CB940F2DC425AA15FA0BA
:104C1000FDF7C6FE0EB9206C08B9012000E00020A7
:104C200028B940F2DD4254A158A0FDF7B9FE00F0CA
:104C30006BFB08B9049808B9012000E0002028B9EE
:104C40004FF49C624CA151A0FDF7AAFE00BFFFF7F4
:104C50002DFAD4F83890B9F1000F38D0D4F80C8080
:104C600031462046FEF7C6FCB7B9A9F10100A063A2
:104C7000206908B9012000E0002010BB04F11000F9
:104C800000F058FCE8B14FF0805044490860BFF391
:104C90004F8FBFF36F8F14E0C4F80C80606A08B9BF
:104CA000012000E0002060B904F1240000F042FC83
:104CB00038B14FF0805039490860BFF34F8FBFF3D0
:104CC0006F8FFFF733FA012006B0BDE8F087049834
:104CD00018B9FFF72BFA0020F6E7BAF1000F04D15C
:104CE0006846FFF7A3FC4FF0010AFFF71FFAFFF732
:104CF00019FDFFF7DBF994F94400401C10B90020BE
:104D000084F8440094F94500401C10B9002084F850
:104D10004500FFF70BFA04A9684600F0EBF9F0B97B
:104D20002046FEF75FFEA0B104F124000499FFF7CE
:104D3000E7FB2046FFF750F800F0B6FC002886D1CC
:104D40004FF0805015490860BFF34F8FBFF36F8F4E
:104D50007DE72046FFF740F800F0A6FC77E7204605
:104D6000FFF73AF800F0A0FC2046FEF73BFE0028D3
:104D7000EED00020A8E700002E2E5C52544F535C6A
:104D80007372635C71756575652E63004572726F31
:104D9000723A25732C25640D0A00000004ED00E032
:104DA00070B505460E462C462CB940F21B121EA1CA
:104DB00022A0FDF7F5FDFFF779F9D4E90F1220687D
:104DC00001FB020060600020A0632068A060E06B2F
:104DD000401E226C216800FB0210E060FF2084F876
:104DE000440084F845009EB9206908B9012000E01C
:104DF0000020A8B904F1100000F09CFB80B14FF036
:104E0000805012490860BFF34F8FBFF36F8F07E0E8
:104E100004F11000FFF714F904F12400FFF710F972
:104E2000FFF784F9012070BD2E2E5C52544F535C65
:104E30007372635C71756575652E63004572726F80
:104E4000723A25732C25640D0A00000004ED00E081
:104E50002DE9FF4383B0064688461D464FF0000902
:104E600034462CB940F2D92258A15DA0FDF798FD37
:104E7000B8F1000F01D1206C08B9012000E000203A
:104E800028B940F2DA2251A155A0FDF789FD022D83
:104E900002D1E06B012801D1012000E0002028B9F7
:104EA00040F2DB2249A14EA0FDF77AFD00F02CFA7A
:104EB00008B9059808B9012000E0002028B940F29F
:104EC000DE2242A146A0FDF76BFD00BFFFF7EEF822
:104ED000A06BE16B884201D3022D28D12A464146BE
:104EE0002046FEF79CFB0746606A08B9012000E0F7
:104EF000002068B904F1240000F01CFB88B14FF0D9
:104F000080503B490860BFF34F8FBFF36F8F08E0BD
:104F10003FB14FF0805036490860BFF34F8FBFF369
:104F20006F8FFFF703F9012007B0BDE8F083059804
:104F300018B9FFF7FBF80020F6E7B9F1000F04D12C
:104F400001A8FFF773FB4FF00109FFF7EFF8FFF738
:104F5000E9FBFFF7ABF894F94400401C10B90020BE
:104F600084F8440094F94500401C10B9002084F8EE
:104F70004500FFF7DBF805A901A800F0BBF8F0B980
:104F80002046FEF73CFDA0B104F110000599FFF7A3
:104F9000B7FA2046FEF720FF00F086FB002895D1E7
:104FA0004FF0805012490860BFF34F8FBFF36F8FEF
:104FB0008CE72046FEF710FF00F076FB86E72046E0
:104FC000FEF70AFF00F070FB0020ADE72E2E5C52CA
:104FD000544F535C7372635C71756575652E630025
:104FE0004572726F723A25732C25640D0A00000019
:104FF00004ED00E02DE9F05F07468A4690461E4624
:105000003C462CB940F29F3231A136A0FDF7C8FCD6
:10501000BAF1000F01D1206C08B9012000E0002096
:1050200028B94FF468722AA12EA0FDF7B9FC022E10
:1050300002D1E06B012801D1012000E0002028B955
:1050400040F2A13222A127A0FDF7AAFCFFF70AF93E
:1050500000BF5021EFF3118081F31188BFF34F8F10
:10506000BFF36F8F00BF0546A06BE16B884201D391
:10507000022E23D194F945B0324651462046FEF720
:10508000CEFA0BF1010088B9606A08B9012000E08E
:10509000002080B904F1240000F04CFA58B1B8F1B6
:1050A000000F08D00120C8F8000004E00BF1010057
:1050B00040B284F845004FF0010901E04FF00009CB
:1050C00000BF85F3118800BF4846BDE8F09F00008F
:1050D0002E2E5C52544F535C7372635C7175657510
:1050E000652E63004572726F723A25732C25640D2C
:1050F0000A0000002DE9F04104460D462CB940F6A7
:10510000CB3219A11DA0FDF74BFC2DB940F6CC32D6
:1051100015A11AA0FDF744FCFEF7C8FF1B4807685D
:105120002868401C08B9002619E019492068096858
:10513000884204D06068B84201D801260FE0606858
:10514000381A2968884209D228686168791A401A91
:1051500028602046FFF76AFA002600E00126FEF7E5
:10516000E5FF3046BDE8F0812E2E5C52544F535C73
:105170007372635C7461736B732E63004572726F3C
:10518000723A25732C25640D0A00000004010020EA
:10519000180100202DE9FF4F85B08046894617464B
:1051A000DDE912ABB800FEF757FE064656B14C20BB
:1051B000FEF752FE04460CB1266304E03046FEF7CB
:1051C000E9FF00E000247CB10020CDE900ABCDE98F
:1051D00002403A4649464046089BFEF7D9FA204627
:1051E000FEF74AF9012501E04FF0FF35284609B0E6
:1051F000BDE8F08F2DE9F04706460D461746984664
:105200004FF0010A2EB941F2FD0232A136A0FDF79E
:10521000C7FB3446FEF74AFFB8F1000F02D0606CBE
:10522000C8F8000094F84890022084F84800052F40
:1052300017D2DFE807F01503070B0D00606C284359
:1052400060640EE0606C401C60640AE0656408E025
:10525000B9F1020F01D0656401E04FF0000A00E0EF
:1052600000BF00BFB9F1010F2ED1201DFEF7C6FE11
:1052700094F82C10012088401F49096808431E49F2
:105280000860E16A01EB81011C4A02EB8100211DEB
:10529000FEF700FFA06A08B9012000E0002028B94D
:1052A00041F235120BA110A0FDF77AFB1449E06A18
:1052B0000968C96A884207D94FF0805011490860CF
:1052C000BFF34F8FBFF36F8FFEF730FF5046BDE83F
:1052D000F08700002E2E5C52544F535C7372635C57
:1052E0007461736B732E63004572726F723A25732B
:1052F0002C25640D0A00000008010020C0050020D4
:10530000F000002004ED00E00549096809B901201A
:1053100005E00449096809B9022000E0002070474F
:105320000C01002028010020014908687047000096
:10533000040100202DE9F0414FF0000841480068C9
:10534000002872D140480068451C3F480560EDB90F
:105350003E480068006808B9012000E0002028B934
:1053600040F6D9123AA13FA0FDF71AFB374807686B
:1053700040480068354908603E4807603E4800687C
:10538000401C3D490860FEF749FC00BF3B480068EF
:1053900085423CD300BF2D480068006808B9012051
:1053A00000E0002020B14FF0FF30344908602DE0CC
:1053B00026480068C068C4686668B54202D22F48B3
:1053C000066023E0201DFEF719FEA06A18B104F163
:1053D0001800FEF713FE94F82C100120884028498D
:1053E0000968084326490860E16A01EB8101254A02
:1053F00002EB8100211DFEF74DFE2349E06A09689A
:10540000C96A8842C7D34FF00108C4E700BF1E48ED
:105410000068C06A00EB80001A4951F8200001289A
:1054200001D94FF0010805E0FFE718480068401C6B
:10543000164908601648006808B14FF00108404658
:10544000BDE8F0812801002004010020F4000020C4
:105450002E2E5C52544F535C7372635C7461736B99
:10546000732E63004572726F723A25732C25640D9A
:105470000A000000F8000020180100202001002090
:1054800008010020C0050020F000002010010020CD
:10549000140100202DE9F0410746884614461D46B8
:1054A000FEF704FE2148006890F84800022818D052
:1054B0001E49096801F14400496CB94301600120AB
:1054C0001A49096881F848005DB101212846FDF7B5
:1054D00087FF4FF0805016490860BFF34F8FBFF32E
:1054E0006F8FFEF723FEFEF7E1FD1CB10F48006849
:1054F000406C20600D48006890F84800012801D1F8
:10550000002608E00949096801F14400496C21EAD4
:1055100008010160012600200449096881F848005B
:10552000FEF704FE3046BDE8F0810000F0000020E8
:1055300004ED00E070B50646F068C4682CB940F68A
:1055400061321AA11EA0FDF72BFA04F11800FEF734
:1055500055FD1F480068A8B9201DFEF74FFD94F8BF
:105560002C10012088401B4909680843194908602C
:10557000E16A01EB8101184A02EB8100211DFEF76F
:1055800089FD04E004F118011448FEF783FD144975
:10559000E06A0968C96A884204D9012501201149D5
:1055A000086000E00025284670BD00002E2E5C52E9
:1055B000544F535C7372635C7461736B732E63003E
:1055C0004572726F723A25732C25640D0A00000033
:1055D0002801002008010020C00500202807002025
:1055E000F0000020140100202DE9F04105460F468F
:1055F0001F48006808B1012000E0002028B940F6EB
:1056000099321CA120A0FDF7CBF947F0004028609B
:10561000EC682CB940F6A13216A11BA0FDF7C0F929
:105620002846FEF7EBFC201DFEF7E8FC94F82C1052
:105630000120884018490968084317490860E16A51
:1056400001EB8101154A02EB8100211DFEF722FDCD
:105650001349E06A0968C96A884204D90126012011
:105660001049086000E000263046BDE8F0810000E7
:10567000280100202E2E5C52544F535C7372635CE1
:105680007461736B732E63004572726F723A257387
:105690002C25640D0A00000008010020C005002030
:1056A000F00000201401002070B5002400263448CA
:1056B000006828B94FF4FD6232A137A0FDF770F9F8
:1056C000FEF7F4FC2E480068401E2D49086008468D
:1056D000006800284FD13448006800284BD024E0EF
:1056E0003248C068C46804F11800FEF787FC201D2A
:1056F000FEF784FC94F82C10012088402C4909689E
:1057000008432B490860E16A01EB8101294A02EB59
:105710008100211DFEF7BEFC2749E06A0968C96ABD
:10572000884202D30120254908602048006808B952
:10573000012000E000200028D2D00CB1FEF76EFA64
:105740001F48056865B100BFFFF7F4FD10B10120E7
:105750001A4908606D1E002DF6D100201849086016
:105760001648006838B10126300716490860BFF3B3
:105770004F8FBFF36F8FFEF7D9FC304670BD00002E
:10578000280100202E2E5C52544F535C7372635CD0
:105790007461736B732E63004572726F723A257376
:1057A0002C25640D0A0000000001002028070020BD
:1057B00008010020C0050020F00000201401002096
:1057C0001001002004ED00E02DE9FC4705460E46DF
:1057D00017469846DDF828902820FEF73DFB044642
:1057E0003CB143463A4631462846CDE90094FEF79F
:1057F0002FF82046BDE8FC871CB50024FDF796FE77
:105800000B48006858B10B480F2100234FF48072F9
:10581000CDE9001008A10A48FFF7BCFC04462CB9EA
:1058200040F2331207A10DA0FDF7BAF820461CBDC7
:105830003401002038010020546D7220537663003B
:10584000BF3D00082E2E5C52544F535C7372635C54
:1058500074696D6572732E63000000004572726F8B
:10586000723A25732C25640D0A0000002DE9FE43D1
:1058700004460D4616461F46DDF828804FF0000905
:105880002CB94FF4D37216A11BA0FDF789F81E485E
:10589000006810B3009501960294062D15DAFFF703
:1058A00033FD022808D100234246694616480068A5
:1058B000FFF7CEFA814610E000231A4669461248E7
:1058C0000068FFF7C5FA814607E000233A466946BB
:1058D0000D480068FFF78EFB81464846BDE8FE8311
:1058E0002E2E5C52544F535C7372635C74696D6509
:1058F00072732E63000000004572726F723A257356
:105900002C25640D0A0000003401002041542B4373
:105910004D47533D00000000000000000000000063
:105920000000000000000000000000000000000077
:105930000000000000000000000000000000000067
:10594000596F757220636F75726965722068617333
:10595000206E6F74206265656E207069636B65648C
:1059600020757020666F72206D6F7265207468619B
:105970006E20323420686F7572732C20706C6561F4
:105980007365207069636B20697420757020617382
:1059900020736F6F6E20617320706F737369626C18
:1059A00065000000C45900080000002068010000E4
:1059B000AC070008F059000868010020283A0000F0
:1059C000F8290008412D0102030404100906070804
:1059D000090204060884A24A04691801841AFF0116
:1059E00071079B6365207368691AAA01C1000000F2
:04000005080000ED02
:00000001FF
