:020000040800F2
:10000000700F0020050100085D1300084F0D000867
:10001000D1100008AD0900088B2E00080000000078
:100020000000000000000000000000008126000821
:10003000210A000800000000252300081D01000817
:100040001F0100081F0100081F0100081F01000810
:100050001F0100081F0100081F0100081F01000800
:100060001F0100081F0100081F0100081F010008F0
:100070001F0100081F0100081F0100081F010008E0
:100080001F0100081F0100081F0100081F010008D0
:100090001F0100081F0100081F0100081F010008C0
:1000A0001F0100081F0100081F0100081F010008B0
:1000B0001F010008E92800087D2900081F01000829
:1000C0001F0100081F0100081F0100081F01000890
:1000D0001F0100083D2B00081F010008A52B000888
:1000E0001F0100081F0100081F010008DFF810D0E1
:1000F00000F0BAFA00480047553B0008AFF3008013
:10010000700F00200648804706480047FEE7FEE7DC
:10011000FEE7FEE7FEE7FEE7FEE7FEE7FEE7FEE7B7
:1001200089280008ED00000830B505462A460B4630
:1001300012F8010B13F8014B08B1A042F8D01CB122
:10014000002802D06D1CF1E7284630BD2DE9FE4F96
:10015000804681EA0300C00F0C46009021F0004168
:1001600023F00045B8EB0200A94105D240462146E4
:1001700090461C460B46024623F00040104347D0F1
:10018000270DC7F30A00C3F30A510290401A0190E9
:1001900040286BDAC3F3130040F4801B00989246AA
:1001A00020B10023D2EB030A63EB0B0B01985946F5
:1001B000C0F14002504600F029F906460D4650466F
:1001C0005946019A00F041F910EB08006141002402
:1001D00087EA115284EAE7731A4340D0009A62B367
:1001E000019A012A4FEA075215DC001B61EB02015C
:1001F0004FF0004202EA0752CDE90042001C41F5EF
:10020000801132462B4600F041F903B0BDE8F08F73
:1002100040462146F9E7001B61EB0201001C41F555
:10022000801300185B412018A2F5001747EB03016B
:1002300040EAD570B6196D4111E06D084FEA3606F7
:1002400045EAC0754FEA0752001B61EB0201001C32
:1002500041F5801149084FEA3000001951413246FA
:100260002B4603B0BDE8F04F00F001B90098012221
:1002700040000023D0EB020263EBE07300982146BC
:100280004FEAE074B8EB000061EB0401E9E783F0AA
:1002900000435BE781F0004158E72DE9FE4F81EA1A
:1002A000030404F0004421F0004100944FF0000BDF
:1002B00023F0004350EA01045ED052EA03045BD00D
:1002C000C3F30A54C1F30A552C44A4F2F334019445
:1002D000A0FB0254C1F3130141F48011C3F31303D3
:1002E00043F4801301FB024400FB034E840A970A87
:1002F00044EA815447EA8357A4FB076802958D0AB4
:1003000005FB07854FEA932C04FB0C542705029D3F
:100310004FEA065847EA1637B5EB08056EEB070CAF
:10032000870E920E47EA811742EA8312A7FB020169
:10033000B6EB0B0164EB00042B0D43EA0C335E18A3
:1003400044EB1C50DA465146E7FB0201C5F31304A7
:100350004FEA0B3343EA14534FEA0432019C43EA59
:100360000603A4F10C040294009CCDE900B400F053
:100370008DF803B0BDE8F08F00200146F9E730B5F5
:100380000B46014600202022012409E021FA02F553
:100390009D4205D303FA02F5491B04FA02F52844ED
:1003A000151EA2F10102F1DC30BD2DE9F05F05461A
:1003B000002092469B4688460646814640241BE024
:1003C000284641464746224600F02FF853465A46F3
:1003D000C01A914110D311461846224600F016F873
:1003E0002D1A67EB01084F4622460120002100F03C
:1003F0000DF817EB00094E41201EA4F10104DFDCCB
:10040000484631462A464346BDE8F09F202A04DB91
:10041000203A00FA02F1002070479140C2F1200317
:1004200020FA03F3194390407047202A04DB203A56
:1004300021FA02F00021704721FA02F3D040C2F104
:1004400020029140084319467047202A06DBCB174B
:10045000203A41FA02F043EAE07306E041FA02F37F
:10046000D040C2F12002914008431946704710B5B0
:10047000141E73F1000408DA401C41F100019218C7
:100480005B411A4301D120F0010010BD2DE9F04D70
:1004900092469B4611B1B1FA81F202E0B0FA80F2C5
:1004A00020329046FFF7B2FF04460F4640EA0A00AA
:1004B00041EA0B0153465A46084313D0114653EA0A
:1004C000010019D0C8F140025046FFF7AEFF0546C3
:1004D0000E46504659464246FFF798FF084305D05E
:1004E000012004E020463946BDE8F08D0020054398
:1004F00046EAE0762C4337430A986305E40AA0EB0A
:1005000008000022FD0A44EA47540A3002D50020C0
:100510000146E9E7010510196941DDE908450019BF
:100520006941BDE8F04DA2E72DE9F04D81EA0304F1
:1005300004F0004B21F0004514464FF0000A23F070
:10054000004150EA050220D054EA01021DD0C5F353
:100550000A570246C5F31303C1F31300C1F30A5649
:1005600040F4801543F48013A7EB0608101BD64611
:1005700008F2FD3873EB050002D308F1010801E031
:1005800092185B41B8F1000F03DA00200146BDE884
:10059000F08D00204FF48011064684460EE0171BB4
:1005A00073EB050705D3121B63EB050306434CEA07
:1005B000010C49084FEA300092185B4150EA0107EC
:1005C000EDD152EA030012D082EA040083EA050169
:1005D000084305D0101BAB4106D20122002306E0E0
:1005E00000224FF0004302E06FF0010253101AEBBB
:1005F00006004CEB085110EB0A0041EB0B01BDE883
:10060000F04DFFF734BFC1F30A52C1F3130140F2BA
:10061000FF3341F480119A4202DA0020014670470C
:1006200040F233439A42A2F2334202DC5242FFF7D5
:10063000FCBEFFF7EBBE000030B5041E71F10004F4
:1006400004DB4FF00044404264EB0101141E73F1DF
:10065000000405DB1C464FF00043524263EB0403E9
:10066000994208BF904230BD064C074D06E0E06855
:1006700040F0010394E8070098471034AC42F6D3E9
:10068000FFF738FD445600086456000870B58C1812
:1006900010F8015B15F0070301D110F8013B2A1196
:1006A00006D110F8012B03E010F8016B01F8016B83
:1006B0005B1EF9D12B0705D40023521E0DD401F87F
:1006C000013BFAE710F8013BCB1A921C03E013F848
:1006D000015B01F8015B521EF9D5A142D8D300207D
:1006E00070BD0000F8B500270025ADE0052F19D238
:1006F000DFE807F0031927344C00701CC6B2102342
:1007000053A21E21002001F0B7F800F077FF01F09E
:1007100067FB044634B9012001F03FFB04460CB9E5
:100720000026012788E0701CC6B201F059FB044680
:1007300034B9022001F031FB04460CB9002602272F
:100740007AE001F0B2FB04460CB9032701E0002671
:1007500000274FF4FA7003F0F7F86DE04FF4FA70E9
:1007600003F0F2F801F0BEFB04464CB910233CA2A2
:100770001E21002001F080F800F040FF042700E077
:1007800000274FF47A7003F0DFF855E00020384975
:1007900048702EE003F080F93549487008464078EB
:1007A000092805D100204870002D01DD681EC5B262
:1007B0002F4840780C2806D100202D494870632D21
:1007C00001DA681CC5B20C232AA21221002001F014
:1007D00053F810232DA21E21002001F04DF8102007
:1007E00002232A461E210090502001F00BF800F051
:1007F00005FF1F4840781028CCD100201C494870C4
:100800002946022001F08BFB04468CB9102323A259
:100810001E21002001F030F800F0F0FE40F2DC5024
:1008200003F092F800F0DEFD02201149C870F8BD17
:1008300000F0D8FD002700BF00BF4FF4C87003F0E0
:1008400083F80A2E00D100E050E700BF00BFEEE7BA
:100850002020506C656173655072657373000000F1
:1008600020205375636365737366756C6C000000BC
:100870002B000020202053392D6A69616E202053FF
:1008800031322D4A49412020000000002020202044
:10089000204944203D2020202000000020416464A5
:1008A00020612073756363657373200010B514486D
:1008B000807D012814D11248C07D88B900201049DC
:1008C0008875C87502200F49C87000200C498874CB
:1008D00000F088FD4FF480510B4800F031FA0DE034
:1008E0000748C07D012809D1002005498875C875D1
:1008F00088744FF48051044800F020FA10BD0000C5
:10090000AC0300202B000020000C014010B5002497
:100910002548007D01280FD12348807C052808DC6C
:100920002148C17C827C807C401C1F4B9874981DA0
:10093000815400201C4908751B48007E012814D1F1
:1009400000201949887400F04DFD002408E00022C1
:100950002046611CCCB21449891D0A54601CC4B2E3
:10096000062CF4DB0020104908760F48407D012852
:1009700018D100200C49487500240FE00A480C30BB
:10098000015D801F005D814203D001200649C875CA
:1009900002E0012004498875601CC4B2062CEDDB1E
:1009A000FFF784FF10BD0000AC03002000BFFEE78E
:1009B00070B505460C46284601F0D2FD064626EAEB
:1009C0000401284602F020FB70BD000010B512485B
:1009D000807830B1012814D0022815D0032819D10D
:1009E00015E04FF480410D4800F0AAF94FF4005192
:1009F0000A4800F0A3F94FF48051084800F0A0F92C
:100A000008E001F0F7FA05E000F0E6F802E000F097
:100A100061FB00BF00BF10BD2B000020000C014097
:100A20007047000038B5002400F0DCFC0020354998
:100A300048704AE003F030F8324948700846407880
:100A4000092805D100204870002C01DD601E84B209
:100A50002C4840780C2806D100202A494870632C85
:100A600001DA601C84B2274840780D2805D10020A7
:100A70002449487001F074F905460C2322A2002194
:100A8000084600F0F9FE0C2323A21946002000F0CE
:100A9000F3FE0C2326A21821002000F0EDFE0C230B
:100AA00028A22421002000F0E7FE0C232BA23021F5
:100AB000002000F0E1FE0C200223224618210090C5
:100AC0004B2000F09FFE00F099FD0E484078102862
:100AD000B0D10121204601F00DF905468DB90C2356
:100AE00024A21821002000F0C7FE00F087FD40F28C
:100AF000DC5002F029FF00F075FC0020014948702D
:100B0000C87038BD2B0000202044656C6574652DCD
:100B100046696E6765722000202053392D6A69612D
:100B20006E20205331322D4A494120200000000020
:100B300020202020202020204944203D202020204B
:100B4000202020005331332D436C656172416C6C61
:100B50007A686977656E2020000000005331362DD9
:100B6000436F6E6669726D416E6452657475726E24
:100B700000000000202044656C657465202020532F
:100B80007563636573732020000000000146114AFD
:100B900012784A434FF0E0235A6100229A611A46C4
:100BA000126942F001021A6100BF4FF0E0221069A1
:100BB00000F001021AB100F48032002AF5D04FF0A3
:100BC000E022126922F001024FF0E0231A610022B4
:100BD0009A6170473000002010B50D48C07810B9F8
:100BE00003F058F813E00A48C078012802D1FFF753
:100BF0008DFE0CE00648C078032802D1FFF772FD95
:100C000005E00348C078042801D1FFF70BFF10BDB1
:100C10002B0000202DE9F04102460025002600208F
:100C200000230024002791F803C00CF00F0591F871
:100C300003C00CF0100CBCF1000F03D091F802C0FF
:100C40004CEA050591F800C0BCF1000F31D01468E2
:100C500000202BE04FF0010C0CFA00F3B1F800C0BB
:100C60000CEA03069E4220D183004FF00F0C0CFAD1
:100C700003F7BC4305FA03FC4CEA040491F803C0F3
:100C8000BCF1280F06D14FF0010C0CFA00FCC2F8A1
:100C900014C00AE091F803C0BCF1480F05D14FF031
:100CA000010C0CFA00FCC2F810C0401C0828D1D37B
:100CB0001460B1F800C0BCF1FF0F34DD54680020AF
:100CC0002EE000F1080C4FF0010808FA0CF3B1F81F
:100CD00000C00CEA03069E4221D183004FF00F0CA6
:100CE0000CFA03F7BC4305FA03FC4CEA040491F840
:100CF00003C0BCF1280F05D100F1080C08FA0CF86C
:100D0000C2F8148091F803C0BCF1480F07D100F17C
:100D1000080C4FF0010808FA0CF8C2F81080401CCB
:100D20000828CED35460BDE8F081024600209368C5
:100D30000B400BB1012000E000207047416170477B
:100D4000016170470AB1016100E04161704700BF75
:100D5000FEE7000010B54FF400710948FFF7F0FFFF
:100D60004FF480710648FFF7EBFF4FF40071044821
:100D7000FFF7E4FF4FF480710148FFF7DFFF10BD7C
:100D8000000C014010B54FF480710748FFF7D8FF01
:100D90004FF400710448FFF7D1FF4FF4007102488F
:100DA000FFF7CEFF10BD0000000C014010B54FF45E
:100DB00080710448FFF7C4FF4FF480710148FFF7CA
:100DC000BDFF10BD000C01407CB50546EF208DF83D
:100DD000000001208DF801001A480068000E8DF80F
:100DE000020018480068000C8DF8030015480088C0
:100DF000000A8DF80400134800788DF805000720DC
:100E00008DF8060000208DF807000F49088012E0D9
:100E1000012002F099FD0C48008800F4004050B118
:100E200000200949088069460848FFF77DF9044613
:100E30000CB120467CBD681E80B2051EE8D100BF03
:100E4000F8E700009C030020980300204F080020D2
:100E500010B502F021FE804948700846407800280D
:100E60006FD00846407811286CD2DFE800F0F00916
:100E7000162432404E5C6C7A8896ADC1CAD6E70023
:100E800075488078012803D07348C078012803D1C1
:100E900001207249C8740875DAE06F48807801282B
:100EA00003D06D48C078012804D102206B49C87472
:100EB00001200875CCE068488078012803D0664896
:100EC000C078012804D103206449C8740120087542
:100ED000BEE061488078012803D05F48C0780128CF
:100EE00004D104205D49C87401200875B0E05A4857
:100EF0008078012803D05848C078012804D1052003
:100F00005649C87401200875A2E05348807801282A
:100F100003D05148C078012804D106204F49C87435
:100F20000120087594E04C488078012803D04A4895
:100F3000C078012804D107204849C87401200875E9
:100F400086E086E083E044488078012803D0424868
:100F5000C078012804D108204049C87401200875D0
:100F600076E03D488078012803D03B48C0780128CE
:100F700004D109203949C8740120087568E0364851
:100F80008078012803D03448C078012804D100209B
:100F90003249C874012008755AE02F48807801282A
:100FA00003D02D48C078012804D101202B490876B0
:100FB000002088742848C078022804D103202649DC
:100FC000C87000F00FFA43E023488078012803D06E
:100FD0002148C078012803D101202049487506E046
:100FE0001D48C078022802D104201B49C8702FE098
:100FF0001948807820B901201749887000F0F2F96B
:1010000026E01548807810B9022013498870002026
:101010001149C87000F0E6F91AE00F48807818B955
:1010200003200D49887006E00B488078022802D121
:1010300001200949C87000F0D5F909E000200649EF
:101040008870C8700549887400F0CCF900E000BFD2
:1010500000E010BD00BFFCE72B000020AC03002027
:1010600010B50446412C24D108210846FFF7A0FC06
:101070003D21112001F0C8FF8621172001F0C4FF97
:101080007F21262001F0C0FF1E212D2001F0BCFF92
:1010900000212C2001F0B8FF8D212A2001F0B4FF9F
:1010A0003E212B2001F0B0FF0220FFF76FFD00F082
:1010B000EFFF10BD00BF0549098801F0400100297C
:1010C000F9D00249091D088070470000004800401F
:1010D00000BFFEE77CB501A9522001F0B8F8054633
:1010E000262D0AD010237DA22021002000F0C4FB71
:1010F00001A9522001F0ABF80546262D34D101A8F4
:1011000000F0D3FF05469DF8040001282DD19DF87D
:1011100005003D2829D19DF80600522825D19DF8CB
:101120000700262821D10024102370A220210020AE
:1011300000F0A2FB102001232246202100904E2027
:1011400000F060FB6DA001F077FF4FF480416F4825
:10115000FFF7F4FD4FF400516C48FFF7F1FD4FF439
:1011600080516A48FFF7ECFDB7E09DF804000328C2
:101170002AD19DF805001F2826D19DF80600642875
:1011800022D19DF80700A7281ED10124102357A2C1
:101190002021002000F070FB102001232246202196
:1011A00000904E2000F02EFB59A001F045FFA10356
:1011B0005648FFF7C3FD61035448FFF7C1FD210303
:1011C0005248FFF7BDFD88E09DF8040063282AD14E
:1011D0009DF805009D2826D19DF80600DE2822D125
:1011E0009DF80700A7281ED1022410233FA220212A
:1011F000002000F041FB1020012322462021009016
:101200004E2000F0FFFA46A001F016FF61033F48B0
:10121000FFF794FD21033D48FFF792FDE1023B48B3
:10122000FFF78EFD59E09DF80400B3282DD19DF8FD
:1012300005009C2829D19DF80600A82825D19DF8F5
:101240000700A72821D10324102328A22021002051
:1012500000F012FB102001232246202100904E2096
:1012600000F0D0FA32A001F0E7FE4FF480412748A9
:10127000FFF764FD4FF400512448FFF761FD4FF480
:1012800080512248FFF75CFD27E09DF804003128DB
:1012900023D19DF8050045281FD19DF80600C928D7
:1012A0001BD19DF807001D2817D1102324A220214F
:1012B000002000F0E1FA26A001F0BEFE4FF48041CC
:1012C0001248FFF73DFD4FF400511048FFF736FD7F
:1012D0004FF480510D48FFF731FD7CBD20202020C8
:1012E000202020202020202020202000202020201E
:1012F000204944203D20202020202000D5C5C8FDC5
:10130000B4F2BFA8B3C9B9A60D0A0000000C014091
:10131000C0EECBC4B4F2BFA8B3C9B9A60D0A000091
:10132000CDF5CEE5B4F2BFA8B3C9B9A60D0A000049
:10133000D5D4C1F9B4F2BFA8B3C9B9A60D0A00004B
:1013400020202020204552524F52202020202000D3
:10135000CEB4D6AAC8CBD4B10D0A000070470000A5
:1013600070B5002100230F22C47804B3154C246803
:1013700004F4E064C4F5E064210AC1F10403CA4046
:10138000447804FA03F184781440214309010E4C97
:101390000678A155047804F01F050124AC400578B7
:1013A0006D11AD0005F1E025C5F8004109E00478B4
:1013B00004F01F050124AC40044D0678761145F871
:1013C000264070BD0CED00E000E400E080E100E0AC
:1013D00002490143024A1160704700000000FA050B
:1013E0000CED00E070B500240CE0002506E00020C4
:1013F000074901EBC5010855681CC5B2802DF6DB15
:10140000601CC4B2082CF0DB00F0F8F870BD0000DE
:10141000CF03002070B50B46CE1701EB5676C6F30E
:10142000C702CE1701EB5676F610A1EBC606F4B252
:101430000123A340DDB20E4B03EBC0039B5CDB43F7
:101440000B4E06EBC006B354094B03EBC0039B5C89
:101450002B43074E06EBC006B354054B03EBC0030A
:101460009B5CDB43024E06EBC006B35470BD00002C
:10147000CF03002070B50A46CE1701EB5676C6F3AF
:10148000C703CE1701EB5676F610A1EBC606F4B2F1
:101490000122A240D5B2054A02EBC002D25C2A4327
:1014A000024E06EBC006F25470BD0000CF030020D0
:1014B00008B50121082000F0C9FF4FF48070ADF895
:1014C000000010208DF8030003208DF8020069460B
:1014D0004348FFF79FFB4FF40070ADF800006946EA
:1014E0003F48FFF797FB4FF400713D48FFF728FC9A
:1014F0004FF480713A48FFF723FC0021AE2000F042
:10150000DCF90021084600F0D8F90021102000F095
:10151000D4F90021402000F0D0F90021812000F012
:10152000CCF90021CF2000F0C8F90021A12000F063
:10153000C4F90021C82000F0C0F90021A62000F065
:10154000BCF90021A82000F0B8F900213F2000F0EC
:10155000B4F90021D32000F0B0F90021084600F0D2
:10156000ACF90021D52000F0A8F90021802000F07E
:10157000A4F90021D92000F0A0F90021F12000F009
:101580009CF90021DA2000F098F90021122000F0E7
:1015900094F90021DB2000F090F90021402000F0B8
:1015A0008CF90021202000F088F90021022000F0B1
:1015B00084F900218D2000F080F90021142000F032
:1015C0007CF90021A42000F078F90021A62000F089
:1015D00074F90021AF2000F070F9FFF703FF08BD98
:1015E000000C014010B50246012000E050430B1EE4
:1015F000A1F10104E1B2F9D110BD000070B50024E1
:101600001CE004F1B001C8B2002100F056F900213D
:10161000084600F052F90021102000F04EF9002594
:1016200008E0084901EBC501085D012100F045F91A
:10163000681CC5B2802DF4DB601CC4B2082CE0DB52
:1016400070BD0000CF0300202DE9FF4F81B0804620
:101650000E461C4600962046E31704EB5373DB103E
:1016600021464FEAE47C04EB5C7C4FEAEC0CA4EBF3
:10167000CC0CBCF1000F02D04FF0010C01E04FF098
:10168000000C6344224604EBD27C4FEA6C0C03FB53
:101690000CF303F0FF0B03982038C7B2002547E096
:1016A0000C2C07D107EB4700234901EB800010F811
:1016B00005A014E0102C05D1204800EB071010F80D
:1016C00005A00CE0182C07D107EBC7001C4901EB63
:1016D000800010F805A002E005B0BDE8F08F4FF0E3
:1016E00000091FE00AF0800020B131464046FFF7B4
:1016F000C1FE03E031464046FFF78CFE4FEA4A60E8
:101700004FEA106A701CC6B20098301AA04205D188
:10171000009E08F1010000F0FF0806E009F1010059
:1017200000F0FF09B9F1080FDCDB00BF681CC5B28F
:101730005D45B5DB00BFCFE7843E0008F8420008F6
:10174000E84800082DE9FF4F05460E4690461C4626
:101750004FF0000A029501962046E11704EB517103
:10176000C1F3C701009143E008FB04F0C11700EB8F
:1017700051710AEBE101C9B203910AF1010000F0D5
:10178000FF0A002732E0102C06D11D49039801EB17
:10179000001010F807B001E0BDE8FF8F4FF000091E
:1017A00013E00BF0010020B131462846FFF762FE3E
:1017B00003E031462846FFF72DFE4FEA6B0B701C05
:1017C000C6B209F1010000F0FF09B9F1080FE8DB2A
:1017D000681CC5B20298281AA04204D1029D019843
:1017E0000830C0B20190019E781CC7B2A742CADB84
:1017F0000098411EC9B200910028B5D100BFCBE7C7
:10180000370000202DE9F04F06468A4691461F46D4
:10181000099C00252CE0781B401EC1B20A20FFF76E
:10182000E1FEB9FBF0F00A21B0FBF1F201FB120876
:10183000B8F1000F0CD1A34604EBDB71491001FB9A
:101840000561C8B2234630225146FFF7FDFE0DE088
:10185000A34604EBDB71491001FB0561C8B208F136
:101860003001CAB223465146FFF7EEFE681CC5B2EE
:10187000BD42D0DBBDE8F08FF0B506460F461446FA
:101880001D4613E022782B4639463046FFF7DCFE32
:10189000284605EBD07106EB6101CEB2C5F18000A0
:1018A000B04202DA0026B81CC7B2641C2078202897
:1018B00002DB20787E28E5DDF0BD70B505460C46DC
:1018C000FFF748FA782000F019FFFFF76FFA1CB114
:1018D000402000F013FF02E0002000F00FFFFFF7B0
:1018E00065FA284600F00AFFFFF760FAFFF74AFAA8
:1018F00070BD10B5002002F05BF9012002F058F92C
:10190000022002F055F9032002F052F9FFF776FEAB
:1019100010BD000010B58748807810B9FFF7E9FFC7
:1019200007E184488078012851D18348807C0728CA
:1019300036D2DFE800F0040B121920272E000C230A
:101940007EA200210846FFF797FF2AE00C237FA222
:1019500010210020FFF790FF23E00C237EA210212E
:101960000020FFF789FF1CE00C237EA2102100203D
:10197000FFF782FF15E00C237DA210210020FFF766
:101980007BFF0EE00C237DA210210020FFF774FFE7
:1019900007E00C237DA210210020FFF76DFF00E07F
:1019A00000BF00BF0C237DA21C210020FFF764FFB5
:1019B0000C237FA228210020FFF75EFF0C2381A2C9
:1019C00034210020FFF758FFFFF718FEB1E0594817
:1019D000807802287BD15748C07890B910237EA226
:1019E00000210846FFF748FF102380A22021002095
:1019F000FFF742FF102382A230210020FFF73CFFB7
:101A000082E04C48C07801284FD14B48807C0728A1
:101A100036D2DFE800F0040B121920272E000C2329
:101A20007CA200210846FFF727FF2AE00C2347A2EB
:101A300010210020FFF720FF23E00C2346A21021F5
:101A40000020FFF719FF1CE00C2346A21021002004
:101A5000FFF712FF15E00C2345A210210020FFF72D
:101A60000BFF0EE00C2345A210210020FFF704FF1E
:101A700007E00C2345A210210020FFF7FDFE00E047
:101A800000BF00BF0C2345A21C210020FFF7F4FE7D
:101A90000C2347A228210020FFF7EEFE0C2349A2C9
:101AA00034210020FFF7E8FE2EE02248C07802280B
:101AB0001AD10C235CA200210846FFF7DDFE0C239F
:101AC0005CA218210020FFF7D7FE0C2300E01EE0E7
:101AD0005DA224210020FFF7CFFE0C235FA230215E
:101AE0000020FFF7C9FE0FE01248C07803280BD191
:101AF00010235DA200210846FFF7BEFE0C235EA264
:101B000030210020FFF7B8FEFFF778FD11E009480B
:101B1000807803280DD110235DA200210846FFF72D
:101B2000ABFE10235EA230210020FFF7A5FEFFF7D9
:101B300065FD10BD2B000020AC03002057616974C7
:101B4000696E67466F72496E7075740020202020A0
:101B50002020202A00000000202020202020202AF1
:101B60002A000000202020202020202A2A2A0000ED
:101B7000202020202020202A2A2A2A00202020205D
:101B80002020202A2A2A2A2A0000000020202020A3
:101B90002020202A2A2A2A2A2A0000005331312D07
:101BA000436C65617220202020202020200000004E
:101BB0002020205331322D436F6E6672696D2020D4
:101BC000200000002020202020205331362D526597
:101BD0007475726E200000002020506C6561736582
:101BE00020436C69636B20202000000020202053DC
:101BF00031352D41646D696E2020202020200000A9
:101C00002020205331362D52657475726E202020AD
:101C100020200000496E70757441646D696E5061DA
:101C20007373776F7264000053657446696E6765FD
:101C3000720000005331312D5469616E6A69617A16
:101C4000686977656E0000005331322D7368616EEC
:101C50006368757A686977656E0000005331362DC8
:101C600052657475726E000020416464696E672D60
:101C700046696E67657220005331362D436F6E667C
:101C800069726D416E6452657475726E0000000079
:101C9000506C6163655F526669645F4361726400A2
:101CA0002020205331362D52657475726E0000006D
:101CB00000200E49887006200D49087005204870E4
:101CC000042088700320C870022008710120487128
:101CD0000873032106484173052181730721C173ED
:101CE0000921017400214174704700002B0000207D
:101CF000AC0300202DE9F04104460D4600F0EBFC5A
:101D000000F0C0FC012000F0E0FC072000F0EBFC3C
:101D10000C2000F01DFD2012FFF7CCF9E0B2FFF718
:101D2000C9F92812FFF7C6F9E8B2FFF7C3F9142082
:101D300000EB2420E1B2084400EB2520E9B200EBDF
:101D40000108404600F0B8FC4FF4FA60FFF73CF899
:101D500007460FB17E7A00E0FF263046BDE8F081ED
:101D600070B500F0B8FC00F08DFC012000F0ADFC77
:101D7000032000F0B8FC0D2000F0EAFC11263046EC
:101D800000F09AFC4FF4FA60FFF71EF805460DB11B
:101D90006C7A00E0FF24204670BD2DE9F041054635
:101DA00000F099FC00F06EFC012000F08EFC042095
:101DB00000F099FC022000F0CBFC2846FFF77AF9EE
:101DC000EF1D384600F078FC4FF4FA60FEF7FCFF98
:101DD00006460EB1747A00E0FF242046BDE8F0818B
:101DE00070B500F078FC00F04DFC012000F06DFCB7
:101DF000032000F078FC012000F0AAFC0526304604
:101E000000F05AFC4FF4FA60FEF7DEFF05460DB114
:101E10006C7A00E0FF24204670BD2DE9F047814632
:101E20000D4616461F4600F056FC00F02BFC012024
:101E300000F04BFC082000F056FC1B2000F088FC52
:101E40004846FFF737F92812FFF734F9E8B2FFF7F1
:101E500031F93012FFF72EF9F0B2FFF72BF909F143
:101E6000240000EB2520E9B2084400EB2620F1B263
:101E700000EB010A504600F01FFC4FF4FA60FEF739
:101E8000A3FF044664B194F80980E07AA17A00EBDC
:101E900001203880607B217B00EB0120788001E00D
:101EA0004FF0FF084046BDE8F08770B500F013FC26
:101EB00000F0E8FB012000F008FC032000F013FC18
:101EC000032000F045FC0726304600F0F5FB4FF4F8
:101ED000FA60FEF779FF05460DB16C7A00E0FF2449
:101EE000204670BD70B500F0F6FB00F0CBFB012082
:101EF00000F0EBFB032000F0F6FB052000F028FCCF
:101F00000926304600F0D8FB4FF4FA60FEF75CFF7C
:101F100005460DB16C7A00E0FF24204670BD2DE926
:101F2000F04106460C4600F0D6FB00F0ABFB01206A
:101F300000F0CBFB062000F0D6FB062000F008FCEA
:101F40003046FFF7B7F82012FFF7B4F8E0B2FFF71A
:101F5000B1F806F10D0000EB2420E1B200EB01081E
:101F6000404600F0A9FB4FF4FA60FEF72DFF07464C
:101F70000FB17D7A00E0FF252846BDE8F081000022
:101F800010B51A48807D012817D11848C07DA0B926
:101F9000002016498875C87588744FF4804114482C
:101FA000FEF7CCFE4FF400511148FEF7C9FE4FF486
:101FB00080510F48FEF7C4FE17E00C48C07D012891
:101FC00013D1002009498875C87588744FF4804181
:101FD0000748FEF7B5FE4FF400510548FEF7AEFE88
:101FE0004FF480510248FEF7A9FE10BDAC0300205B
:101FF000000C014010B500242448007D01280FD1B9
:102000002248807C052808DC2048C17C827C807CBA
:10201000401C1E4B9874981D815400201B49087564
:102020001A48007E012814D1002018498874FFF74F
:10203000D9F9002408E000222046611CCCB21349E3
:10204000891D0A54601CC4B2062CF4DB00200F4921
:1020500008760E48407D012817D100200B494875AD
:1020600000240EE00948015D801D005D814203D01F
:1020700001200649C87502E0012004498875601CEA
:10208000C4B2062CEEDBFFF77BFF10BDAC030020D3
:1020900010B5142000F064FA044604F0030018B9E7
:1020A0000321142000F05AFB10BDF0B587B005469F
:1020B000002708210846FEF77BFC00210D2000F0D8
:1020C000A3FF80210E20FEF773FC93208DF80800FB
:1020D00020208DF8090001A802AB022202A900907D
:1020E0000C2000F01BF80646262E10D1002407E035
:1020F00002A8005D285502A8005D4740601CC4B2DC
:10210000042CF5DB02A8005DB84200D0BB2680217C
:102110000E2000F023FB304607B0F0BD2DE9FE4F46
:102120000646884691469A46DDF830B0BB200290BC
:102130000020019000900C2E06D00E2E09D1122006
:1021400001901020009005E0772001903020009051
:1021500000E000BF00BF019840F08001022000F0C5
:1021600053FF80210420FEF723FC0021012000F012
:102170004BFF80210A2000F0F1FA002505E018F855
:102180000510092000F040FF6D1C4D45F7D3314686
:10219000012000F039FF0C2E03D180210D2000F02A
:1021A000DDFA4FF47A7500BF042000F0D9F9044637
:1021B0006D1E35B104F0010018B9009820400028C8
:1021C000F2D080210D20FEF7F3FB95B3062000F03E
:1021D000C7F900F01B0068BB262002900198204040
:1021E00000F0010008B1CC2002900C2E24D10A206E
:1021F00000F0B6F904460C2000F0B2F900F0070731
:102200002FB1601E07EBC000CBF8000002E0E00039
:10221000CBF8000004B90124122C00DD12240025A3
:1022200005E0092000F09CF90AF805006D1CA542A4
:10223000F7D301E0BB20029080210C2000F08EFA41
:102240000021012000F0E0FE0298BDE8FE8F70B58D
:1022500088B005460C4608210846FEF7A9FB072171
:102260000D2000F0D1FE0321142000F077FA8DF844
:102270000C5002A803AB012203A900900C20FFF729
:102280004DFF0646262E09D10298102806D19DF84A
:102290000C0020709DF80D00607000E0BB263046F9
:1022A00008B070BD10B501211D48FEF749FD0120A1
:1022B000FEF76CFC01211A48FEF740FD0120FEF7F5
:1022C00065FC01211648FEF73BFD0120FEF75EFC90
:1022D0000F21012000F098FE00BF012000F040F91E
:1022E00000F010000028F8D10120FEF74FFC3D213E
:1022F000112000F089FE1E212D2000F085FE002116
:102300002C2000F081FE8D212A2000F07DFE3E2150
:102310002B2000F079FE4021152000F075FE10BD45
:10232000000C01407047000010B500F017F80121C3
:102330000348FEF705FD10210248FEF701FD10BD20
:10234000000C01400008014010B5FFF7EDFFFFF75A
:10235000A9FF4120FEF784FE10BD000008B5012151
:10236000042000F073F81020ADF8000003208DF871
:10237000020010208DF8030069462248FEF74AFC4F
:102380000121042000F062F82020ADF800000320B5
:102390008DF8020010208DF8030069461948FEF7F9
:1023A00039FC0121042000F051F88020ADF8000034
:1023B00003208DF8020010208DF8030069461148B3
:1023C000FEF728FC0121042000F040F84020ADF881
:1023D000000004208DF8030069460A48FEF71AFC45
:1023E0000121082000F032F80120ADF800000320A0
:1023F0008DF8020010208DF8030069460248FEF7B0
:1024000009FC08BD00080140000C014029B1064A42
:10241000D2690243044BDA6104E0034AD269824381
:10242000014BDA61704700000010024029B1064AF2
:1024300012690243044B1A6104E0034A12698243A1
:10244000014B1A61704700000010024029B1064A92
:1024500092690243044B9A6104E0034A9269824301
:10246000014B9A61704700000010024029B1064AF2
:10247000D2680243044BDA6004E0034AD268824324
:10248000014BDA60704700000010024030B50021B7
:102490000022002400232D4D6D6805F00C0121B1B0
:1024A000042905D0082923D105E0294D056022E043
:1024B000274D05601FE0254D6D6805F47012234D12
:1024C0006D6805F48034022505EB92421CB9214D5C
:1024D000554305600BE01D4D6D6805F400351DB1D9
:1024E0001C4D5543056002E0194D5543056002E05F
:1024F000174D056000BF00BF144D6D6805F0F00179
:102500000909154D6B5C0568DD4045600F4D6D6830
:1025100005F4E061090A104D6B5C4568DD4085609B
:102520000A4D6D6805F46051C90A0B4D6B5C456836
:10253000DD40C560054D6D6805F44041890B074DD0
:102540006B5CC568B5FBF3F5056130BD001002405A
:1025500000127A0000093D00000000201000002059
:1025600070B504467E2000EA440040F0800510214A
:102570000748FEF7E3FB284600F058F800F030F873
:10258000064610210248FEF7DBFB304670BD000016
:102590000008014008B501210820FFF757FF4FF45C
:1025A000E040ADF8000003208DF8020010208DF807
:1025B000030069460948FEF72DFB4FF480410748A8
:1025C000FEF7BEFB4FF400510448FEF7B7FB4FF493
:1025D00080510248FEF7B4FB08BD0000000C01402A
:1025E00070B500251CE06006040E20210E48FEF7A1
:1025F000A5FBC820FEF7CAFA40210B48FEF795FB61
:10260000012801D144F00104C820FEF7BFFA2021BF
:102610000548FEF795FBC820FEF7B8FA681CC5B25E
:10262000082DE0DB204670BD0008014070B504466F
:10263000002520E004F0800020B180210F48FEF743
:102640007FFB03E080210D48FEF778FBC820FEF7F2
:102650009DFA20210948FEF771FBC820FEF796FA83
:1026600020210648FEF76CFBC820FEF78FFA6006B3
:10267000040E681CC5B2082DDCDB70BD00080140EB
:102680007047000010B50B490968080EFEF712FDEF
:1026900008480068C0F30740FEF70CFD05480088B5
:1026A000C0F30720FEF706FD02490878FEF702FD99
:1026B00010BD00009C03002010B504462012FEF758
:1026C000F9FCE0B2FEF7F6FC10BD10B5044620465A
:1026D000FEF7F0FC10BD10B5EF20FEF7EBFC01207B
:1026E000FEF7E8FC10BD10B50446C4F30720FEF762
:1026F000E1FCE0B2FEF7DEFC10BD000070B5044660
:10270000002520E04FF480711048FEF717FB04F01D
:10271000800028B14FF400710C48FEF711FB04E073
:102720004FF400710948FEF709FB4FF48071074828
:10273000FEF706FB4FF480710448FEF7FFFA6006CF
:10274000040E681CC5B2082DDCDB70BD000C014016
:1027500010B504462046FEF7ADFC10BD70B5054629
:102760000C462846FFF7FCFE064646EA04012846CA
:1027700000F04AFC70BD10B500F002F810BD00007A
:102780000CB50020019000903348006840F4803080
:102790003149086000BF3048006800F40030009004
:1027A0000198401C0190009818B90198B0F5A06FED
:1027B000F1D12948006800F4003010B101200090E8
:1027C00001E0002000900098012843D123480068D0
:1027D00040F01000214908600846006820F003001E
:1027E00008600846006840F0020008601A48406827
:1027F000194948600846406848600846406840F407
:10280000806048600846406820F47C1048600846B4
:10281000406840F4E81048600846006840F0807066
:10282000086000BF0C48006800F000700028F9D074
:102830000948406820F0030007494860084640689E
:1028400040F00200486000BF0348406800F00C0000
:102850000828F9D10CBD0000001002400020024001
:10286000042808D14FF0E021096941F004014FF03C
:10287000E022116107E04FF0E021096921F0040135
:102880004FF0E0221161704710B51348006840F026
:1028900001001149086008464068104908400E4987
:1028A0004860084600680E4908400B490860084621
:1028B000006820F4802008600846406820F4FE008C
:1028C00048604FF41F008860FFF755FF4FF000602D
:1028D0000449086010BD0000001002400000FFF82D
:1028E000FFFFF6FE08ED00E010B50121094800F0F9
:1028F00082F868B10848008840F400400649088022
:102900000121044800F068F80021024800F067F84F
:1029100010BD000000040040980300207FB505466C
:102920000C4601210220FFF771FDADF80450ADF80F
:1029300000400020ADF80600ADF8020069460E48E0
:1029400000F078F8012211460B4800F065F80121EB
:10295000094800F044F81D208DF80C0000208DF887
:102960000D0002208DF80E0001208DF80F0003A845
:10297000FEF7F6FC7FBD00000004004010B5012109
:10298000124800F038F801281FD101210F4800F04B
:1029900023F800200E49087013E00E480C4909780E
:1029A000405C002808DD0B4809490978405C401E5E
:1029B0000849074A1278885405480078401C0449A1
:1029C0000870034800780328E7DB10BD00080040CA
:1029D0002F00002028000020CA430282704721B146
:1029E000028842F00102028004E002884FF6FE7382
:1029F0001A400280704730B50246002000230024B0
:102A0000158A05EA0103958905EA010413B10CB1A1
:102A1000012000E0002030BD1AB183890B4383817F
:102A200002E083898B4383817047018582827047EE
:102A300081847047002202881D4B98420ED01D4BA6
:102A400098420BD0B0F1804F08D01B4B984205D074
:102A50001A4B984202D01A4B984204D14FF68F730A
:102A60001A404B881A43174B984207D0164B98428E
:102A700004D04FF6FF431A40CB881A4302808B885C
:102A800083850B8803850A4B98420BD0094B9842EB
:102A900008D00E4B984205D00D4B984202D00D4BFA
:102AA000984201D10B7A038601238382704700008C
:102AB000002C0140003401400004004000080040A8
:102AC000000C004000100040001400400040014095
:102AD00000440140004801401FB501210420FFF7D8
:102AE00095FC1E208DF80C0003208DF80D000120B0
:102AF0008DF80E008DF80F0003A8FEF731FC42F2AE
:102B00000F70ADF804000020ADF80000ADF8020031
:102B100069460948FFF78EFF012247210648FFF763
:102B200084FF012211460448FFF776FF0121024885
:102B3000FFF755FF1FBD00000008004010B540F230
:102B40002551124800F0DDF801281ED181031048FC
:102B5000FEF7F4F80D4800F08FF90E4908700846AA
:102B600001780D4802780078401C0B4B18700B4818
:102B70008154084800780D2802D1012008490870C6
:102B800040F22551014800F045F810BD00380140E1
:102B9000000C01403400002035000020C503002057
:102BA0003600002010B540F22551164800F0A9F873
:102BB000F8B1144800F060F9C4B21348008800F47A
:102BC0000040B0B910480088B0F5C87F12DA002183
:102BD0000E48FFF72DFF0C48008818B901210B485B
:102BE000FFF7FDFE08490888411C074A1180084983
:102BF0000C5405E00448008840F400400249088075
:102C000010BD000000480040980300200004004070
:102C10004F08002010B50022002340F66A14A1429C
:102C200000D100BF0A1201249440A3B2DC43048007
:102C300010BD21B1828942F40052828104E0828970
:102C40004DF6FF731A4082817047000010B50446AC
:102C50002048844209D101218803FFF707FC0021A5
:102C60004FF48040FFF702FC32E01B48844209D158
:102C700001214804FFF7DAFB00214FF40030FFF791
:102C8000D5FB25E01548844209D101218804FFF7CE
:102C9000CDFB00214FF48020FFF7C8FB18E010485F
:102CA000844209D10121C804FFF7C0FB00214FF481
:102CB0000020FFF7BBFB0BE00A48844208D101214A
:102CC0000805FFF7B3FB00214FF48010FFF7AEFBC0
:102CD00010BD0000003801400044004000480040A2
:102CE000004C00400050004002460020B1F5007F3B
:102CF00000D100BF13880B400BB1012000E0002081
:102D0000704770B50246002400230025002040F6DD
:102D10006A16B14200D100BFC1F3421501F01F0392
:102D2000012606FA03F3012D02D19689334006E00D
:102D3000022D02D1168A334001E0968A33400C12EC
:102D4000012606FA04F41688344013B10CB10120B0
:102D500000E0002070BDF0B50346002400260025E9
:102D6000002040F66A17B94200D100BF1846C1F3EF
:102D7000421401F01F06012707FA06F5012C01D1C4
:102D80000C3004E0022C01D1103000E014301AB1F4
:102D900007682F43076002E00768AF430760F0BD94
:102DA0002DE9F04786B005460E460024A24600BF36
:102DB000A1460027B08900B100BF2F462C8A4CF6EF
:102DC000FF700440F08804432C82AC894EF6F31067
:102DD0000440B08831890843718908430443AC81B9
:102DE000AC8A4FF6FF400440B0890443AC8201A88E
:102DF000FFF74CFB1F48874202D1DDF810A001E02D
:102E0000DDF80CA0A88900F4004040B10AEBCA002C
:102E100000EB0A1031684900B0FBF1F807E00AEB5B
:102E2000CA0000EB0A1031688900B0FBF1F8642099
:102E3000B8FBF0F004012009642101FB1089A88986
:102E400000F4004040B1322000EBC900B0FBF1F0CB
:102E500000F00700044308E0322000EB0910642171
:102E6000B0FBF1F000F00F0004432C8106B0BDE888
:102E7000F08700000038014001468888C0F3080050
:102E80007047C1F308028280704700BFFEE7000070
:102E900010B586B0044601210420FFF7D7FA0121BE
:102EA0008803FFF7D3FA4FF40070ADF81400182030
:102EB0008DF8170003208DF8160005A91C48FDF7B2
:102EC000A9FE4FF48060ADF8140004208DF81700BF
:102ED00005A91748FDF79EFE01940020ADF80800F3
:102EE000ADF80A00ADF80C000C20ADF80E00002083
:102EF000ADF8100001A90F48FFF752FF01210D485E
:102F0000FFF797FE012240F225510A48FFF723FF01
:102F100025208DF8000000208DF801008DF80200BA
:102F200001208DF803006846FEF71AFA06B010BDBE
:102F3000000801400038014010B586B00446012168
:102F40000820FFF783FA01218804FFF75FFA2A4877
:102F5000FFF77CFE4FF48060ADF8100003208DF881
:102F6000120018208DF8130004A92448FDF752FE22
:102F70004FF40060ADF8100004208DF8130004A990
:102F80001E48FDF747FE00940020ADF80400ADF8A0
:102F90000600ADF80800ADF80C000C20ADF80A00F2
:102FA00069461548FFF7FCFE01211348FFF741FE73
:102FB000012240F225511048FFF7CDFE27208DF861
:102FC000140002208DF8150003208DF81600012052
:102FD0008DF8170005A8FEF7C3F941F61F416320DD
:102FE000FFF79CFC00200649088000210548FFF7F8
:102FF000F6FC06B010BD000000480040000C014087
:10300000980300200004004070B504460D467E2061
:1030100000EA440610210748FDF790FE3046FFF70E
:1030200005FB2846FFF702FB10210248FDF788FE4A
:1030300070BD0000000801400FB4054B10B503A996
:10304000044A029800F0DAF810BC5DF814FB0000A6
:1030500095390008A803002002E008C8121F08C123
:10306000002AFAD170477047002001E001C1121F09
:10307000002AFBD1704700002DE9FF5F82B00021DC
:10308000DDE90430020DDDF840B0034318D044F60A
:103090001050A2F2FF3242431514119801281FD09C
:1030A000A5EB0B00401C5FEA000A4FF000064E4FF4
:1030B000DFF83891B046504615D5CAF1000413E048
:1030C000119801244AA3012801D16FEA0B0102984B
:1030D000119AC0E90031C0E9024206B0BDE8F09F94
:1030E000CBF10000DFE704460021404A491842EBDB
:1030F0000450CDE9001012E0E00707D032463B460D
:1031000040464946FDF7C9F88046894632463B4667
:1031100010461946FDF7C1F806460F466410002C0C
:10312000EAD1DDE90401DDE90023BAF1000F06DA96
:10313000FDF7B3F842464B46FDF7AFF805E0FDF763
:10314000F3F942464B46FDF7EFF904460E460022DE
:10315000284BFDF771FA03D84FF0FF30014607E026
:103160000022254B20463146FCF7F0FFFDF74BFAD5
:10317000102409E0002C0ADB0A220023FDF715F9D0
:10318000039B30321A55641E50EA0102F2D1641CCE
:10319000039AC4F111031444119A012A03D00122A5
:1031A00008430DD10AE0084304D000204FF0110B72
:1031B000119072E7A3EB0B056D1E0DE05B4504DD7E
:1031C0004FF0000205F1010504E003DA4FF00002C0
:1031D000A5F10105002AECD002981199C0E902314D
:1031E000C0E9004579E70000000014400000F03F0E
:1031F000300000000000F0430000E03F2DE9FF4FE9
:1032000095B09A46884606460025EEE1252877D1F6
:1032100000242746F94A0121039400E0044316F8EC
:10322000013F203B01FA03F01042F7D130782A2801
:1032300011D06FF02F033078A0F13002092A16D890
:10324000039A44F0020402EB820203EB42021044B0
:10325000761C0390EFE758F8042B0392002A03DA58
:10326000504244F40054039044F00204761C307839
:103270002E2816D116F8010F44F004042A280DD088
:103280006FF02F023078A0F13003092B09D807EB3B
:10329000870302EB4303C718761CF3E758F8047B57
:1032A000761C30786C280FD006DC4C2817D06828A4
:1032B0000DD06A2814D104E0742810D07A280FD1D8
:1032C0000DE044F400140AE044F4801401E044F4F6
:1032D00040147278824202D104F58014761C761C68
:1032E000307866280BD013DC582877D009DC00280A
:1032F00075D04528F6D04628F4D047281AD193E156
:1033000018E0632835D0642879D0652812D18BE184
:10331000702873D008DC6728F1D069286FD06E2838
:103320000DD06F2806D1ACE073282CD0752874D04E
:10333000782853D05246179990476D1C54E1C4F336
:103340000250022809D003280DD0D8F80010042814
:103350000DD00D6008F1040846E1D8F80010EA1716
:10336000C1E90052F6E7D8F800100D80F2E70D70C1
:10337000F0E718F8041B8DF8001000208DF801000C
:10338000EB46012003E058F804BB4FF0FF30610723
:103390004FF0000102D40DE009F101018946B94264
:1033A0000FDA8145F8DB1BF809100029F4D108E099
:1033B00009F1010189468142FADB1BF80910002955
:1033C000F6D103985346A0EB090721463846179AD1
:1033D00000F080FA284400EB090507E044E008E12A
:1033E0000DE01BF8010B524617999047B9F10109FE
:1033F000F7D2534621463846179AF2E039E00A21BF
:10340000C4F302524FF0000B0091022A06D058F884
:10341000040BC117032A09D00AE023E008F10700D2
:1034200020F00702F2E80201904605E000B2C11761
:10343000042A01D140B2C117002906DA0A46002148
:10344000404261EB02012D2202E0220504D52B222D
:103450008DF80420012203E0E20701D02022F7E7E3
:10346000914657E00A2100E010214FF0000B009137
:103470000BE010214FF0000B44F0040408270091EA
:1034800003E008204FF0000B0090C4F30252022A20
:1034900005D058F8040B0021032A08D008E008F1F1
:1034A000070020F00702F2E80201904603E080B234
:1034B000042A00D1C0B24FF0000922072AD5327881
:1034C000702A07D0DDF800C08CF0100C5CEA0B0C01
:1034D00005D00EE040228DF80420012208E050EAD9
:1034E000010306D030238DF804308DF80520022228
:1034F0009146009B83F0080353EA0B030AD150EA7C
:10350000010201D1620705D530228DF804204FF069
:1035100001097F1E3278582A04D039A20C920CAAD5
:1035200002920BE03BA2F9E75B46009AFCF73DFFF5
:103530000C9B9B5C029A521E0292137050EA01028D
:10354000F2D1029804A9081A00F1200B600702D5F5
:1035500024F4803400E001275F4502DDA7EB0B0077
:1035600000E0002000EB0B01009003984944401A52
:103570000390E00306D453462146179A039800F0BF
:10358000A9F90544002706E001A85246C05D179935
:1035900090476D1C7F1C4F45F6DBE0030CD553466E
:1035A0002146179A039800F095F9054404E030206D
:1035B0005246179990476D1C0099481E00900029AB
:1035C000F5DC08E00298029952460078491C029105
:1035D000179990476D1CBBF10001ABF1010BF1DCB9
:1035E0005BE100F065F90544761C307800287FF433
:1035F0000DAE19B02846BDE8F08F00000928010083
:103600003031323334353637383961626364656658
:10361000000000003031323334353637383941421A
:103620004344454600000000600700D4062708F127
:10363000070020F00700F0E80223804603F0004C6A
:103640005FEA0C0001D097A009E0200501D596A003
:1036500005E0E00701D095A001E0AFF24C00139027
:10366000307823F0004365280CD006DC452809D0CB
:1036700046281DD047287FD13BE0662818D0672810
:103680007AD136E00021112F01DB112000E0781CF7
:10369000CDE9000104A90CA8FFF7EEFCDDE90D015E
:1036A0000C9A4FF0000B07F10109109200914EE0C7
:1036B0004FF000400097CDE9011004A90CA8FFF7D6
:1036C000DBFCDDE90D020C9B0F994FF0000B9146DE
:1036D0001093009211B9791C00EB0109B7EB0900B6
:1036E00003D4C0F1FF3B07F10109A9EB07000190EA
:1036F00042E0012F00DA01270021112F01DD112006
:1037000000E03846CDE9000104A90CA8FFF7B4FC9D
:10371000DDE90D010C9A00914FF0000BB9461092B3
:1037200021070FD4009A4A4503DA914601E0A9F136
:103730000109B9F1010F05DD109AA9F10101515CF0
:103740003029F4D0B84202DA10F1040F03DA012173
:10375000CDE9011010E0002803DC8344A9EB00014F
:1037600002E0411C494500DD8946A0EB0B00401CEE
:1037700001904FF000400290200705D40198484581
:1037800002DB4FF0FF30019000208DF84B000298D3
:103790000DF14B07B0F1004F25D002200C902B20EB
:1037A0000D90029800280CDA404202902D200D90D6
:1037B00007E00A210298FCF7E2FD3031029007F899
:1037C000011D0C99481E0C900029F2DC029800287B
:1037D000EFD1791E0D980870307800F0200040F08D
:1037E000450007F8020D11A8C01BC01D02901398D8
:1037F000007800B1012000EB0901019801EBE071B4
:10380000029801440398401A401E0390E00306D436
:1038100053462146179A039800F05CF80544139824
:10382000007818B15246179990476D1CE00323D5D4
:1038300053462146179A039800F04CF805441BE0C4
:10384000BBF1000F07DB0098584504DD109817996D
:1038500010F80B0001E0179930205246904701986C
:103860000BF1010B401E05F10105019004D12E2042
:103870005246179990476D1CB9F10001A9F1010951
:10388000DEDC05E017F8010B5246179990476D1CD6
:103890000299481E02900029F4DC53462146179AEB
:1038A00003989EE62D0000002B0000002000000081
:1038B0002DE9F041044600251E461746880404D42D
:1038C00005E039462020B0476D1C641EF9D5284616
:1038D000BDE8F0812DE9F041044600251E469046E2
:1038E000C80301D5302700E02027880404D505E06F
:1038F00041463846B0476D1C641EF9D52846BDE8E0
:10390000F081000010B56FF00400FEF7A9FF0A482F
:1039100000680A49B0FBF1F00949087008460078D0
:1039200000EB4001C1EBC0104FF6FF7101EAC0008F
:103930000449088010BD00001400002000127A0025
:1039400030000020320000200146114A12884A430C
:103950004FF0E0235A6100229A611A46126942F040
:1039600001021A6100BF4FF0E022106900F001026D
:103970001AB100F48032002AF5D04FF0E02212692B
:1039800022F001024FF0E0231A6100229A61704791
:103990003200002070B504460D46E1B20548FFF73D
:1039A00070FA00BF80210348FFF79EF90028F9D084
:1039B000204670BD0038014008B501210C20FEF7FB
:1039C00045FD10208DF8030048F2E000ADF800003E
:1039D00003208DF8020069460848FDF71BF94820CE
:1039E0008DF803000F20ADF8000003208DF80200D1
:1039F00069460348FDF70EF908BD0000000C0140C0
:103A00000008014008B501212248FDF78EF9009019
:103A100002212048FDF789F99DF8001041EA400095
:103A2000C0B2009004211B48FDF77FF99DF80010FB
:103A300041EA8000C0B2009008211648FDF775F9F0
:103A40009DF8001041EAC000C0B200909DF800004F
:103A50000F281DD00A20FFF777FF9DF800000F28E0
:103A600014D09DF80000072806D00B2806D00D289A
:103A700006D00E2808D105E0012008BD0220FCE791
:103A80000320FAE70420F8E70020F6E70020F4E737
:103A90000020F2E70008014070B500250024002254
:103AA0004FF400412A48FDF74DF9FFF7ABFF041E24
:103AB00005D000BFFFF7A6FF0028FBD1E5B2012229
:103AC000D1032348FDF73EF9002220212048FDF7CD
:103AD00039F9FFF797FF041E06D000BFFFF792FFEA
:103AE0000028FBD1201DC5B2012220211848FDF776
:103AF00029F9002240211648FDF724F9FFF782FF3B
:103B0000041E07D000BFFFF77DFF0028FBD104F1A2
:103B10000800C5B2012240210D48FDF713F900222B
:103B200080210B48FDF70EF9FFF76CFF041E07D04C
:103B300000BFFFF767FF0028FBD104F10C00C5B2FE
:103B4000012280210248FDF7FDF8284670BD0000E3
:103B5000000C01404FF4A060FDF73AFCFFF7D2FEE5
:103B60004FF46140FFF7E8F9FEF7B6FF4FF4E1309C
:103B7000FFF78EF9FFF720FFFDF79AFCFEF7E4FB55
:103B8000FEF708FDFEF794F811E00121002000F097
:103B90006DF9012801D1FDF75BF90521012000F045
:103BA00065F9012801D1FDF7B5FEFCF70FFFECE741
:103BB00070B5054635B1012D14D0022D2BD0032D43
:103BC00055D141E000240AE0102101EB0411C8B2F4
:103BD000102322460021FDF7B5FD601CC4B2062C5F
:103BE000F2DB45E0102323A219461846FDF744FEF8
:103BF0001023072219463020FDF7A4FD10230822C8
:103C000019464020FDF79EFD102309221946502039
:103C1000FDF798FD2CE0102318A220211846FDF78F
:103C20002BFE10230A2220213020FDF78BFD1023CC
:103C30000B2220214020FDF785FD102309222021A1
:103C40005020FDF77FFD13E010230EA2302118460F
:103C5000FDF712FE10230DA230210846FDF70CFEE1
:103C60001023092230215020FDF76CFD00E000BF39
:103C700000BF70BD5331332D2D0000005331342D62
:103C80002D0000005331352D2D00000052464944CF
:103C9000000000001CB500204849487087E0102350
:103CA00047A200210846FDF7E7FD102349A2202185
:103CB0000020FDF7E1FD10234BA230210020FDF78D
:103CC000DBFDFDF79BFCFDF7C3F8FEF789F8044622
:103CD000002C6CD10120FEF760F80446002C66D160
:103CE00001AB632200210120FEF797F80446002C67
:103CF0003FD1102341A21946FDF7BEFD10200090D0
:103D0000BDF80420022301464E20FDF77BFDFDF7A0
:103D100075FCBDF8040030B1012808D002280AD093
:103D2000032810D10BE039A0FFF786F90CE03BA087
:103D3000FFF782F908E03DA0FFF77EF904E03FA01D
:103D4000FFF77AF900E000BF00BF4FF480413F4821
:103D5000FCF7F4FF4FF400513C48FCF7F1FF4FF43F
:103D600080513A48FCF7ECFF42F21070FFF7ECFD8F
:103D70001DE0102336A219460020FDF77DFDFDF75A
:103D80003DFC37A0FFF758F94FF480412F48FCF76E
:103D9000D7FF4FF400512D48FCF7D0FF4FF480516E
:103DA0002A48FCF7CBFF41F28830FFF7CDFD0348EE
:103DB00040780F28FFF673AF1CBD00002B000020D9
:103DC0002020506C6561736520436C69636B202013
:103DD000200000002020205331352D41646D696E94
:103DE00020202020202000002020205331362D527A
:103DF000657475726E202020202000002020202075
:103E0000204944203D20202020202000D5C5C8FD89
:103E1000B4F2BFA8B3C9B9A60D0A0000C0EECBC466
:103E2000B4F2BFA8B3C9B9A60D0A0000CDF5CEE51E
:103E3000B4F2BFA8B3C9B9A60D0A0000D5D4C1F920
:103E4000B4F2BFA8B3C9B9A60D0A0000000C014026
:103E500056616C69646174696F6E4661696C730068
:103E6000CEB4D6AAC8CBD4B10D0A000002460020B9
:103E7000034B9B5C13B9024B99540120704700001F
:103E800028000020000000000000000000000000EA
:103E9000000000003F400000000000000000300073
:103EA000400030004000000009000BC03D000BC086
:103EB0003D00090018C024407FE02240318000000E
:103EC000180024C01B000D803240018003801C407C
:103ED00027401C80074000401000600000000000E8
:103EE000000000000000000000001F802040402073
:103EF0000000402020401F80000000000900060054
:103F00001F80060009000000040004003F80040038
:103F1000040000000010006000000000000000002D
:103F2000040004000400040004000000000000403D
:103F30000000000000000000002001C00600380062
:103F4000400000001F802040204020401F800000D3
:103F5000000010403FC000400000000018C0214099
:103F6000224024401840000010802040244024407B
:103F70001B80000002000D0011003FC00140000046
:103F80003C80244024402440238000001F802440A3
:103F900024403440038000003000200027C0380057
:103FA000200000001B802440244024401B8000008F
:103FB0001C0022C0224022401F80000000000000A0
:103FC0000840000000000000000000000460000045
:103FD00000000000000004000A00110020804040A2
:103FE0000900090009000900090000000000404024
:103FF000208011000A000400180020002340240043
:10400000180000001F802040274029401F4000006A
:10401000004007C039000F0001C0004020403FC0F1
:10402000244024401B8000001F802040204020406E
:104030003080000020403FC0204020401F80000012
:1040400020403FC024402E4030C0000020403FC0F0
:1040500024402E00300000000F001080204022403D
:104060003380020020403FC0040004003FC02040D5
:10407000204020403FC02040204000000060202021
:1040800020203FC02000200020403FC024400B00E3
:1040900030C0204020403FC020400040004000C0D1
:1040A0003FC03C0003C03C003FC0000020403FC078
:1040B0000C4023003FC020001F80204020402040B3
:1040C0001F80000020403FC0244024001800000052
:1040D0001F802140214020E01FA0000020403FC061
:1040E0002440260019C0004018C02440244022402B
:1040F00031800000300020403FC0204030000000F0
:1041000020003F80004000403F80200020003E0013
:1041100001C0070038002000380007C03C0007C07D
:1041200038000000204039C0060039C0204000009F
:104130002000384007C0384020000000304021C037
:104140002640384020C00000000000007FE04020F2
:1041500040200000000070000C00038000400000C0
:104160000000402040207FE0000000000000200010
:10417000400020000000000000100010001000109F
:1041800000100010000000004000000000000000CF
:10419000000002800540054003C0004020003FC0F1
:1041A00004400440038000000000038004400440F9
:1041B0000640000000000380044024403FC000404F
:1041C000000003800540054003400000000004405B
:1041D0001FC0244024402000000002E0055005508C
:1041E0000650042020403FC00440040003C00040AB
:1041F0000000044027C00040000000000010001034
:10420000041027E00000000020403FC001400700EC
:1042100004C00440204020403FC000400040000057
:1042200007C0040007C0040003C00000044007C02A
:104230000440040003C00040000003800440044028
:1042400003800000041007F00450044003800000C5
:10425000000003800440045007F00010044007C031
:104260000240040004000000000006400540054034
:1042700004C00000000004001F8004400040000053
:10428000040007800040044007C00040040007000D
:1042900004C0018006000400060001C0070001C040
:1042A00006000000044006C0010006C004400000F3
:1042B0000410071004E00180060004000000044020
:1042C00005C00640044000000000000004007BE040
:1042D00040200000000000000000FFF0000000008F
:1042E000000040207BE0040000000000400080004F
:1042F00040002000200040000000000000000000FE
:1043000000000000000000000000000000001FCCC2
:10431000000C0000000000000000080030006000F9
:104320000800300060000000022003FC1E20022074
:1043300003FC1E200220000000000E1811043FFFA5
:1043400010840C78000000000F0010840F3800C0AB
:10435000077818840078000000780F8410C41124B6
:104360000E9800E400840008080068007000000057
:10437000000000000000000000000000000007E056
:104380001818200440020000000040022004181801
:1043900007E00000000000000240024001800FF032
:1043A00001800240024000000080008000800FF881
:1043B00000800080008000000001000D000E000061
:1043C000000000000000000000000080008000806D
:1043D00000800080008000800000000C000C0000C5
:1043E000000000000000000000000006001800604F
:1043F0000180060018002000000007F008081004E3
:104400001004080807F000000000080408041FFC5E
:10441000000400040000000000000E0C1014102422
:10442000104411840E0C000000000C18100411043C
:10443000110412880C700000000000E00320042426
:1044400008241FFC0024000000001F9810841104A1
:104450001104108810700000000007F00888110493
:10446000110418880070000000001C00100010FCEF
:1044700013001C001000000000000E3811441084CE
:10448000108411440E38000000000700088C10440E
:104490001044088807F00000000000000000030C32
:1044A000030C0000000000000000000000010106F5
:1044B0000000000000000000000000800140022019
:1044C000041008081004000002200220022002202C
:1044D000022002200220000000001004080804103E
:1044E000022001400080000000000E001200100CAD
:1044F000106C10800F00000003E00C1813E414246B
:1045000017C4082807D000000004003C03C41C4066
:10451000074000E4001C000410041FFC11041104F7
:1045200011040E880070000003E00C181004100441
:10453000100410081C10000010041FFC10041004CC
:104540001004080807F0000010041FFC11041104F7
:1045500017C410040818000010041FFC11041100F7
:1045600017C010000800000003E00C18100410042D
:1045700010441C780040000010041FFC10840080D0
:10458000008010841FFC10040000100410041FFCA5
:1045900010041004000000000003000110011001CD
:1045A0001FFE10001000000010041FFC1104038007
:1045B0001464181C1004000010041FFC10040004F4
:1045C00000040004000C000010041FFC1F0000FC8D
:1045D0001F001FFC1004000010041FFC0C0403004B
:1045E00000E010181FFC100007F008081004100469
:1045F0001004080807F0000010041FFC108410804D
:10460000108010800F00000007F0081810241024FC
:10461000101C080A07F2000010041FFC110411000E
:1046200011C011300E0C000400000E1C1104108487
:10463000108410441C3800001800100010041FFCE7
:10464000100410001800000010001FF810040004EF
:10465000000410041FF8100010001E0011E0001CE0
:10466000007013801C0010001FC0103C00E01F00F1
:1046700000E0103C1FC000001004180C163401C0EC
:1046800001C01634180C100410001C00130400FCA8
:1046900013041C00100000000804101C1064108497
:1046A00013041C04101800000000000000007FFE2E
:1046B0004002400240020000000030000C00038075
:1046C0000060001C000300000000400240024002A5
:1046D0007FFE0000000000000000000020004000FD
:1046E0004000400020000000000100010001000126
:1046F0000001000100010001000040004000200016
:1047000000000000000000000000009801240144A7
:104710000144014400FC000410001FFC0088010457
:10472000010400880070000000000070008801048F
:1047300001040104008800000000007000880104EA
:10474000010411081FFC0004000000F801440144AA
:104750000144014400C800000000010401040FFCF2
:104760001104110411001800000000D601290129CC
:10477000012901C90106000010041FFC008401008A
:104780000100010400FC000400000104190419FCEC
:10479000000400040000000000000003000101010B
:1047A000190119FE0000000010041FFC0024004045
:1047B00001B4010C010400000000100410041FFCEF
:1047C0000004000400000000010401FC01040100D9
:1047D00001FC0104010000FC010401FC0084010053
:1047E0000100010400FC0004000000F801040104C1
:1047F0000104010400F80000010101FF008501042B
:1048000001040088007000000000007000880104AE
:104810000104010501FF00010104010401FC008401
:104820000104010001800000000000CC01240124EB
:10483000012401240198000000000100010007F894
:104840000104010400000000010001F8000400045C
:104850000004010801FC0004010001800170000C4B
:10486000001001600180010001F0010C003001C066
:104870000030010C01F0010000000104018C007403
:104880000170018C01040000010101810171000E21
:10489000001801600180010000000184010C013456
:1048A00001440184010C0000000000000000000031
:1048B00001003EFC40024002000000000000000039
:1048C000FFFF0000000000000000400240023EFC2C
:1048D0000100000000000000000060008000800077
:1048E0004000400020002000000000000000000008
:1048F00000000000000000000000000000000000B8
:1049000000000000000000000000000000000000A7
:1049100000000000000000000000000F80380FFEC3
:10492000380F803800000000000000000000000088
:104930000000000000000100000600000C0000382C
:1049400000003100000600000C00003800003000BC
:10495000000000000000000061800067F807F98097
:104960000061800061800061800061800067F8075D
:10497000F98000618000000000000000000001C01C
:10498000E003E0F00630080418081FFFFE040E08DC
:104990000787F00381E000000000000001F000063E
:1049A0000C00040408060C7001F9C0000E00003B66
:1049B000E000EC18070808040C180003E0000000F1
:1049C0000001E00007F003F818041C0804170807AA
:1049D000E1D003C0E00023B0003C08002008000044
:1049E0001000000000000001000031000032000053
:1049F0001C0000000000000000000000000000009B
:104A000000000000000000000000000000000000A6
:104A100000000000000000007F0001FFC00780F0E0
:104A20000C0018100004200002000000000000200C
:104A300000021000040C00180780F001FFC0007F86
:104A40000000000000000000000000000000000066
:104A5000000000004200006600006600003C00000C
:104A6000180003FFC0001800003C0000660000664C
:104A700000004200000000000800000800000800DC
:104A800000080000080001FFC00008000008000046
:104A900008000008000008000000000000010000FD
:104AA0003100003200001C00000000000000000087
:104AB00000000000000000000000000000000000F6
:104AC00008000008000008000008000008000008B6
:104AD00000000800000800000800000800000000B6
:104AE000000000000000000038000038000038001E
:104AF00000000000000000000000000000000000B6
:104B00000000000000000000000600001C00007013
:104B1000000180000E0000380000C0000700001CEB
:104B20000000300000000000000000007F8001FF56
:104B3000E00380700600180400080400080600184E
:104B400003807001FFE0007F800000000000000093
:104B5000000001000801000801000803FFF807FF3A
:104B6000F800000800000800000800000000000035
:104B700000000001C03802C0580400980401180465
:104B80000218040418061C1803F81801E0F80000C5
:104B90000000000000000001C0E003C0F0040008B5
:104BA00004080804080806180803F41801E7F000D0
:104BB00001E0000000000000000000000300000D04
:104BC0000000110000610000810803010807FFF8E0
:104BD0000FFFF800010800010800000000000000BD
:104BE00000E007FCD00608080610080610080610AA
:104BF00008061838060FF00607C000000000000085
:104C0000000000003F8001FFE00384300208180428
:104C10001008041008041008071810030FF000070C
:104C2000C000000000000000000003C000070000FA
:104C30000600000600F80607F806180006E0000760
:104C4000000006000000000000000001E1E003F7A2
:104C5000F0063410041808041808040C08040C08A2
:104C600006161803F3F001C1E00000000000000088
:104C7000F80003FC300306380402080402080402AA
:104C8000080404100308F001FFC0007F00000000CA
:104C90000000000000000000000000000000000014
:104CA000703800703800703800000000000000000C
:104CB00000000000000000000000000000000000F4
:104CC00000000000301A00301C000000000000004E
:104CD00000000000000000000000000000000008CC
:104CE000000014000022000041000080800100400C
:104CF000020020040010080008000000000000006E
:104D000021000021000021000021000021000021DD
:104D1000000021000021000021000021000000000F
:104D2000000000000000080008040010020020013C
:104D300000400080800041000022000014000008B4
:104D40000000000000000003C00004C000040000D8
:104D5000080038080F380808380810000C30000721
:104D6000E00003C000000000000000003F8000FFE2
:104D7000E0038070020F1006708804C08804830866
:104D8000047F8802C09003012000FE40000008005C
:104D900000180001F8003E0801C20007020007E207
:104DA0000000FE00001FC80001F8000038000008E5
:104DB00004000807FFF807FFF804080804080804BF
:104DC000080804080806180803F41801E7F00001B1
:104DD000E0000000000000003F8001FFE003807061
:104DE000020018040008040008040008040010066B
:104DF00000200780C000000004000807FFF807FF3C
:104E0000F804000804000804000804001802001058
:104E100003807001FFE0007F8000000004000807AD
:104E2000FFF807FFF8040808040808040808040845
:104E300008043E0804000806001801006000000095
:104E400004000807FFF807FFF80408080408000436
:104E50000800040800043E0006000006000001806F
:104E600000000000000000003F8001FFE0038070B0
:104E70000600180400080402080402080203F007F0
:104E800083F000020000020004000807FFF807FF9B
:104E9000F8040808000800000800000800000800E6
:104EA00004080807FFF807FFF804000800000000E6
:104EB000000004000804000804000807FFF807FFCA
:104EC000F8040008040008040008000000000000C6
:104ED00000000000000600000700000104000104BB
:104EE000000104000307FFFE07FFFC0400000400AC
:104EF0000004000004000807FFF807FFF8040C088E
:104F0000001800003E0004C7800503C80600F8042E
:104F1000003804001800000804000807FFF807FF25
:104F2000F80400080000080000080000080000085D
:104F300000000800001800006000000004000807DE
:104F4000FFF807800807FC00007FC00003F8000797
:104F5000C000780007800807FFF807FFF804000882
:104F600004000807FFF807000803C00000E0000085
:104F70003800001E000007000001C00400F007FF19
:104F8000F8040000000000007F8001FFE003807053
:104F90000600180400080400080600180300300189
:104FA000FFE0007F8000000004000807FFF807FF13
:104FB000F8040408040400040400040400040400C9
:104FC000060C0003F80001F00000000000000000E3
:104FD0007F8001FFE00380700600880400880400E1
:104FE000C806003C03003E01FFE6007F840000008D
:104FF00004000807FFF807FFF80408080408000485
:105000000C00040F00040BC00610F003F03801E0A0
:105010000800000800000001E0F803F0300630103E
:10502000041808041808040C08040C0802061802E6
:1050300007F00781E0000000018000060000040086
:105040000004000004000807FFF807FFF804000848
:1050500004000004000006000001800004000007B6
:10506000FFE007FFF004001800000800000800003F
:105070000800000800000804001007FFE00400001A
:1050800004000006000007E00007FE00041FE00027
:1050900001F80000380001E0043E0007C0000600EF
:1050A0000004000004000007E00007FFC0041FF830
:1050B0000007C007F80007FF80043FF80007C0049E
:1050C000F8000700000400000000000400080600CB
:1050D0001807C07805F1C8003E00001F800463E88F
:1050E0000780F8060018040008000000040000060D
:1050F000000007800007E008047C08001FF8000794
:10510000F800180804E0080700000600000400008A
:105110000000000100080600380400F80403E80459
:105120000F08047C0805F00807C0080700180400F1
:10513000600000000000000000000000000000000F
:105140000000003FFFFE200002200002200002209D
:105150000002200002000000000000000000080023
:105160000007000000C0000038000006000001C079
:1051700000003000000E00000100000000000000F0
:105180000000200002200002200002200002200077
:10519000023FFFFE000000000000000000000000D1
:1051A00000000000000000000008000010000030B7
:1051B0000000200000300000100000080000000087
:1051C00000000000000001000001000001000001DB
:1051D00000000100000100000100000100000100CA
:1051E00000010000010000010000000000000000BC
:1051F000002000002000001000001000000000004F
:10520000000000000000000000000000000000009E
:1052100000F00019F8001B180022080026080024DE
:1052200008002410003FF8001FF8000008000018D4
:1052300000000004000007FFF80FFFF0001818003E
:105240001008002008002008003018001FF0000F90
:10525000C00000000000000007C0001FF000183070
:10526000002008002008002008003C08001C100056
:1052700000600000000000000000000007C0001FE8
:10528000F000381800200800200800200804101042
:1052900007FFF80FFFF00000100000000000000002
:1052A00000000007C0001FF000123000221800228A
:1052B00008002208003208001E10000E2000000026
:1052C00000000000200000200800200801FFF80373
:1052D000FFF8062008042008042008072000030027
:1052E0000000000000000000000E000E6E001FF322
:1052F0000031B10020B10020B1003191001F130036
:105300002E1E00200E00300000000004000807FFE1
:10531000F80FFFF80010080020000020000020080F
:10532000003FF8001FF80000080000000000000027
:105330000000002008002008002008063FF8063F73
:10534000F80000080000080000080000000000004D
:105350000000000000000000030000030020010026
:105360002001002003063FFE063FFC000000000075
:105370000000000000000004000807FFF80FFFF81D
:10538000000188000300002FC00038F8002038001A
:1053900020080000080000000000000000000400D9
:1053A0000804000804000807FFF80FFFF8000008D1
:1053B00000000800000800000000000000200800B5
:1053C0003FF8003FF8001008002000003FF8003FC1
:1053D000F8001008002000003FF8003FF800000827
:1053E000000000002008003FF8003FF8001008000F
:1053F0001000002000002008003FF8001FF8000007
:10540000080000000000000007C0000FF000183086
:105410000030080020080020080030080018300084
:105420000FF00007C0000000000000002001003F56
:10543000FF003FFF00101100200900200800200895
:10544000003038001FF0000FC00000000000000016
:1054500007C0001FF00038180020080020080020B6
:1054600009001011001FFF003FFF000001000000B5
:10547000002008002008002008003FF8003FF80046
:10548000080800100800200800200000300000304C
:1054900000000000000000000000000C78001E1852
:1054A000003308002308002108002188002198000B
:1054B00030F00038600000000000000020000020F4
:1054C0000000200000FFF003FFF800200800200883
:1054D0000020080000300000000000000000000074
:1054E0002000003FF0007FF80000180000080000D6
:1054F00008002010003FF8007FF0000010000000BE
:10550000000000002000003000003C00003F800050
:1055100023F0000078000070002380003C00003081
:1055200000002000002000003C00003FE00023F8C5
:105530000000E0002700003E00003FE00021F800EE
:1055400001E0003E000020000000000020080020D4
:1055500008003838003E680027800003C8002CF897
:10556000003838002018002008000000000000006B
:105570002000003003003C01003F830023EC0000CA
:1055800070002380003C000020000020000000008C
:105590000000000000000038080020380020F8005B
:1055A00023E8002F88003E0800380800201800007B
:1055B000700000000000000000000000000000007B
:1055C0000000000008000014001FF7FC3000062057
:1055D00000020000000000000000000000000000C9
:1055E00000000000000000000000FFFFFF000000BE
:1055F00000000000000000000000000000000000AB
:1056000000002000023000061FF7FC001400000814
:10561000000000000000000000000000000000008A
:105620000000001800006000004000004000002062
:1056300000001000000800000400000400000C003E
:10564000001000006456000800000020AC030000B9
:105650008C0600082C590008AC030020C40B000085
:1056600068300008412D01020304041009060708F0
:10567000090204060884A24A046918F1100910946A
:1056800053321E325210567E4242427E4BFF490137
:1056900042FF100908CC4A49484ACC181F7F888825
:1056A0008482E01E26121252927F5A7E1024F80144
:1056B000064A02012AFE3E911B4080271008404402
:1056C00024147F14243906134440301008884929D3
:1056D0000949897909090929498808400C22322A8F
:1056E000A6A2622111098101200E4222130B4282DF
:1056F0007E02020A122346162030AC6330100A885C
:10570000C8A8998E88A8C888200A22672212128009
:1057100040300FA53F4040713A0101F910180910BF
:105720008C4404E40495A6871D8444940CAA2E7A24
:1057300041414342EE3343F8170484E45C44C4100F
:105740000902F2828282FE80801702017F10103FE0
:105750001A0801154888403F1720102CE7242438E8
:1057600008E22C20BF2028E657100D7F2111804F22
:1057700020100F10204F8017101010FF10901009EC
:105780003F484844444442701D0444827F862BFFB6
:1057900049014AFFC0180A100808F8090E08F8085D
:1057A000EF29C0180A928040211608162140701C6B
:1057B00008F88801127014203F202D030C302010AF
:1057C0004CE808101041193C2938111A20121A20EF
:1057D0000F190E2C0810E0201A2084113810042410
:1057E00024A42F2424E424242FA4242404B9180955
:1057F0000B0808FF08080A090B413DFE929292042B
:1058000041201044442425140C04FF040C142524C6
:105810004444195018088848289F2848886A31123B
:10582000FF10080120100C0304183440807F1E1064
:1058300010925430E426305492101018108485458C
:105840004424140C060C142444458484975D2222BD
:1058500022E20419A12B80403E311B3F4001127807
:105860001B04049B2C24243F0514E40404180F801B
:10587000804322120E0202027E82828380C8200EA2
:10588000100CF312125292121212F2020240100184
:10589000011F11111115195191513F1111011BFCDB
:1058A0004401180842C242434240406053300F0254
:1058B00026FF200F40484848FF484842A29E82A247
:1058C000C2BE180A80601F207F4444404F181C4805
:1058D0004F40DF180C14D4545454FC525252D3127B
:1058E000E11809404050575555557F041B575070DB
:1058F00015404042CC180940A09E8282829EA0E0C2
:1059000029DA200C908840432C10284641808018CA
:10591000081715D55557557D041CD51517702B4004
:0C592000403C29011A7F0C611AFF01C1F4
:04000005080000ED02
:00000001FF
